:100000000C9474030C9491030C9491030C9491033D
:100010000C9491030C9491030C9491030C94910310
:100020000C9491030C9491030C94CD210C94A02278
:100030000C94EA1B0C9491030C9491030C9491037F
:100040000C9491030C9491030C9491030C949103E0
:100050000C9491030C94821C0C9491030C949103C6
:100060000C9491030C9491030C9491030C949103C0
:100070000C9491030C9491030C9491030C949103B0
:100080000C9491030C9491030C9491030C949103A0
:100090000C9491030C9491030C9491030C94910390
:1000A0000C9491030C9491030C94910300000000B4
:1000B00000000000000000000000140004001D000B
:1000C0000000290000001A0016001B0000002C0090
:1000D0000000080007000600000024520000150080
:1000E0000900190029000000000017000A0005009F
:1000F0000000000000000000000000000000000000
:1001000000000000000000000000000000001C00D3
:100110000B00110000000000000018000D0010008E
:100120000000000000000C000E0036000000265207
:10013000000012000F0037000000E1000000130073
:1001400033003800000023520000000000000000CF
:10015000000000000000000000000000000000009F
:10016000000000000000000000000000000000008F
:10017000000000000000000000000000000000007F
:10018000000000000000000000000000000000006F
:10019000000000000000000000000000000000005F
:1001A000000000000000000000000000000000004F
:1001B000000000000000000000000000000000003F
:1001C000000000000000000000000000000000002F
:1001D000000000000000000000000000000000001F
:1001E000000000000000000000000000000000000F
:1001F00000000000000000000000000000000000FF
:1002000000000000000000000000000000000000EE
:1002100000000000000000000000000000000000DE
:1002200000000000000000000000000000000000CE
:1002300000000000000000000000000000000000BE
:1002400000000000000000000000000000000000AE
:10025000000000000000000000000000000000009E
:10026000000000000000000000000000000000008E
:10027000000000000000000000000000000000007E
:10028000000000000000000000000000000000006E
:10029000000000000000000000000000000000005E
:1002A000000000000000000000000000000000004E
:1002B00000001E002F0231020000000000001F009D
:1002C00035000000000000000000200034002F0274
:1002D000000000000000210034022F000000000098
:1002E000000022002D002D02000000000000000090
:1002F00000000000000000000000000000000000FE
:1003000000000000000023002E022E00000000006C
:1003100000002400407E30000000000000002500A6
:10032000417E30020000000000002600427E0000F6
:100330000000000000002700437E310000000000A4
:1003400000000000000000000000000000000000AD
:1003500000000000000000000000457E437E5001C8
:10036000000000000000447E427E4F0100000000BB
:1003700000002B03417E41520000000000002B01D1
:10038000407E4600000000000000290028002B00ED
:10039000000000000000000000000000000000005D
:1003A0000000000000000000000000000000290024
:1003B00028002B000000000000004A0050004B0005
:1003C0000000000000004D0051004E000000000041
:1003D00000002A00520000000000000000004C0055
:1003E0004F000000000000000000000000000000BE
:1003F00000000000000000000000000000000000FD
:1004000000005900437E3A000000000000005A003E
:10041000427E3B000000000000005B00417E3C008B
:100420000000000000005C00407E3D000000000075
:1004300000005D0044003E000000000000000000DD
:1004400000000000000000000000000000000000AC
:100450000000000000005E0045003F0000000000BA
:1004600000005F00407E40000000000000006000CF
:10047000417E41000000000000006100427E420019
:100480000000000000006200437E43000000000006
:10049000000000000000000000000000000000005C
:1004A0000000000000000000000000000404000044
:1004B0000000000000000000070400000000000031
:1004C0000000000016040000000000000000000012
:1004D00009040000000000000000170400000000F4
:1004E000000000000000000000000000000000000C
:1004F00000000000000000000000000000000000FC
:100500000000000000000000000000000D041004C6
:100510000000000000000C040F04000000000000B8
:10052000000000000E0400000000000000000000B9
:100530003304000000000000000000000000000084
:100540000000000016034500720067006F004400C1
:100550006F007800200045005A00000028035A0070
:1005600053004100200054006500630068006E00E5
:100570006F006C006F006700790020004C00610084
:10058000620073000000040309040902540003011F
:1005900000A0FA0904000001030101000921110172
:1005A000000122440007058103080001090401003D
:1005B0000103010200092111010001224700070582
:1005C0008203080001090402000103000000092160
:1005D00011010001226D00070583032000011201B3
:1005E0000002000000089732744901000102000176
:1005F00005010980A101850319012AB7001501260B
:10060000B700950175108100C0050C0901A1018595
:100610000419012AA002150126A002950175108176
:1006200000C005010906A1018506050719E029E7B3
:10063000150025019508750181020507190029EFAC
:100640001500250195F0750181020508190129059C
:10065000950575019102950175039101C005010988
:1006600002A1010901A100050919012908150025A8
:1006700001950875018102050109300931158125AF
:100680007F95027508810609381581257F950175CA
:10069000088106050C0A38021581257F9501750829
:1006A0008106C0C005010906A101050719E029E777
:1006B00015002501950875018102950175088101D4
:1006C0000507190029FF150026FF0095067508810A
:1006D00000050819012905150025019505750191E9
:1006E00002950175039101C011241FBECFEFDAE01E
:1006F000DEBFCDBF11E0A0E0B1E0E4EFFCE402C05A
:1007000005900D92A639B107D9F722E0A6E9B1E02C
:1007100001C01D92AE3EB207E1F70E94ED150C94A8
:1007200039260C9400008098889A8198899A849838
:100730008C9A85988D9A86988E9A87988F9A089524
:10074000209828982198299822982A9823982B98BD
:1007500052985A9853985B983E9846980895CF932C
:10076000C82F873078F58091060190910701892B79
:1007700039F564E670E080E40E94E91C909307017B
:1007800080930601892BD1F464E670E082E10E9437
:10079000591D9093070180930601892B79F481E01C
:1007A00090E001C0880FCA95EAF764E670E0809592
:1007B0000E94591D90930701809306010E94AE1D6F
:1007C000CF9108958B30C1F048F4893079F08A30A8
:1007D00081F0883041F0209A2898F2CF8C3079F45B
:1007E000539A5B98EDCF219A2998EACF229A2A98BA
:1007F000E7CF239A2B98E4CF529A5A98E1CF3E9AAA
:100800004698DECFCF93DF93873058F5809106016D
:1008100090910701C0E0892B71F464E670E081E4F7
:100820000E94E91C9093070180930601892B39F0FF
:10083000C0E00E94AE1D8C2FDF91CF91089584E619
:1008400090E00E94891DEC0197FF05C0909307017D
:1008500080930601EDCFC09510920701109206011A
:10086000E8CFCFB12FB1269526952C73C3702C2BD2
:10087000C22FC095E0CF0E94B70590E0909307018A
:10088000809306010E94A0030E9493030895A3E0B1
:10089000B0E0EDE4F4E00C948224809106019091A4
:1008A0000701892B91F0809198018F5F80939801C7
:1008B00081110BC00E94B70590E0909307018093CF
:1008C0000601892B11F40E944A050DEB12E01A82F1
:1008D0001B828A81895F89838A810E94AF03898113
:1008E0000E94AF038A810E9402048F73F8019191E4
:1008F0008F01F12C891721F031978083FF24F39425
:1009000089810E9402048F73F8019681891791F002
:10091000868381E08F29FB81F82BFB830E94A00353
:100920008A818F5F8A838730A1F68B812396E5E0E9
:100930000C949E2480E0EECF0E94B70590E0909347
:100940000701809306010E94A0030E949303EBEC31
:10095000F2E0119282E0E93DF807D9F70895FF929D
:100960000F931F93CF93DF93EC01F62EC901F8018B
:10097000258184179507B1F48881222341F08111E4
:1009800003C0862F0E94530882E0888304C082300F
:1009900039F0833081F0CDB7DEB7E5E00C949E24CA
:1009A00081E0F3CF222361F00E945506882399F35A
:1009B0008881882381F318828F2D0E94E408EBCF71
:1009C0000E9465068111E7CF88818130A1F38230D2
:1009D00011F783E0DACFB0E0A0E0E1EFF4E00C94AF
:1009E0007E24EC01862FB42EF701D601E216F30621
:1009F000B9F415969C91992379F09881911104C0CE
:100A000091E098830E9453088B2D0E945308CDB724
:100A1000DEB7E9E00C949A248B2D0E94E408F7CF0E
:100A200098819923A1F3E016F10689F3EF54F109B7
:100A3000329768F30E94E4081882E9CF259A2D9A2C
:100A40000895269A2E9A0895279A2F9A08955698CF
:100A50005E98089525982D98089526982E980895C3
:100A600027982F9808950E9427050E942A050E9422
:100A70002D050E943005089590E0909389008093A1
:100A8000880090938B0080938A0090938D008093D0
:100A90008C0008950E9433058FEF0E943C050E9450
:100AA0001E052FEF80E792E0215080409040E1F753
:100AB00000C000000E9421052FEF80E792E0215046
:100AC00080409040E1F700C000000E9424052FEF15
:100AD00080E792E0215080409040E1F700C00000A4
:100AE0000E942A052FEF80E792E02150804090403D
:100AF000E1F700C000000E942D052FEF80E792E093
:100B0000215080409040E1F700C000000E94300575
:100B10000E943305089589EA8093800089E08093DC
:100B2000810024982C983F988AB18F7C8AB96E985E
:100B3000479A8BB180638BB9769A0E947B11609340
:100B4000B7027093B8028093B9029093BA026770AB
:100B50002FEF629FC00111249595879595958795F4
:100B60000E943C050E944A050E940A15089580E2F1
:100B700090E0909307018093060180919901811183
:100B80000EC00E94E31C81E0809399012FEF83ED5A
:100B900090E3215080409040E1F700C0000064E6FF
:100BA00070E080E40E94E91C9093070180930601A5
:100BB000892B09F04EC064E670E080E00E94591D68
:100BC0009093070180930601892B09F042C064E6E7
:100BD00070E080E00E94591D909307018093060108
:100BE000892BB9F564E670E08FE30E94591D90935C
:100BF000070180930601892B61F50E94AE1D64E612
:100C000070E080E40E94E91C909307018093060144
:100C1000892BF9F464E670E08CE00E94591D9093F2
:100C2000070180930601892BA1F464E670E080E05F
:100C30000E94591D9093070180930601892B49F466
:100C400064E670E08FE30E94591D90930701809342
:100C500006010E94AE1D809106010895A4E0B0E057
:100C6000E4E3F6E00C9485241092B7021092B802E7
:100C70001092B9021092BA0284E080618093B702A8
:100C80008091B7029091B802A091B902B091BA02D6
:100C9000BC01CD010E9480110E948E112496E2E0D9
:100CA0000C94A1240E940B1508959C01253282E525
:100CB000380730F481E02332324530F480E004C05C
:100CC00081E026323245D1F708959C01263282E533
:100CD000380799F058F4213E310579F02352324516
:100CE00081E02230310540F080E0089520543E47F5
:100CF00081E024303105C0F7089581E0FDCFB0E0F8
:100D0000A0E0E5E8F6E00C947D24D82FC92F5B0124
:100D10006B01E82EF92E00E41EE724E43EE74BE2E7
:100D200050E063EE70E08FE991E00E94EB0425E46F
:100D30003EE74BE250E060EE70E08EE991E00E9409
:100D4000EB0485012D2F3C2F40E45EE761EE70E05F
:100D50008DE991E00E94AF042D2F3C2F41E45EE726
:100D600060EE70E08CE991E00E94AF042D2F3C2FE3
:100D700042E45EE762EE70E08BE991E00E94AF042E
:100D80002D2F3C2F43E45EE763EE70E08AE991E0AB
:100D90000E94AF0481E0CDB7DEB7EAE00C9499245D
:100DA00025E044E063E00E946C0D08958730B8F4BC
:100DB0006E30A8F4463098F4E42FF0E096E0699F96
:100DC000E00DF11D112494E5899FE00DF11D112422
:100DD000EE0FFF1FE455FF4F85919491089581E038
:100DE00090E008950E94D606089581E008950E943B
:100DF000F506089581E008950E947F0608950895FC
:100E00000E94FF060895A6E0B0E0E9E0F7E00C9448
:100E1000842449835A839E833091A50189819A81D4
:100E200031111AC03E81332399F0222389F00E94A8
:100E3000040D182F682F89819A810E94E00C698126
:100E40007A81812F0E94E7132696E3E00C94A02478
:100E50000E94F20C182FF3CF0E94040D69817A8151
:100E6000F1CFFC01262F4081518162817381848101
:100E700095810E9403070895CF93DF93D82FC92F40
:100E800061E00E9431076D2F7C2F0E94F706DF91F1
:100E9000CF910895CF93DF93D82FC92F60E00E94A0
:100EA00031076D2F7C2F0E940007DF91CF910895AD
:100EB00008950E94B40B0E9458072FEF84E39CE032
:100EC000215080409040E1F700C0000008950E944A
:100ED00059070E94A61C08950E9459070E94D81C19
:100EE00008950F931F93CF93DF938C0161E00E94CD
:100EF0003107EC01B8010E94FC06811106C080E0B8
:100F0000DF91CF911F910F910895B801CE010E94FA
:100F1000EB198823A1F3B801CE010E948118882320
:100F200071F3B801CE010E945D19882341F3F801E5
:100F30008581882381F0CA35FCE7DF0711F178F459
:100F4000C130ECE7DE07D1F0C330FCE7DF07A1F0EA
:100F5000C115DC4771F0C8010E94FA06D1CFCB352C
:100F6000ECE7DE0789F0CC35DC47A9F70E94421197
:100F7000F2CF0E946707C3CF0E9454110E946C07F2
:100F8000BECF0E944C11E7CF0E945011E4CF0E94C7
:100F9000C81B0E94EE0708950E94F2070E94CC1B16
:100FA0000895089581E008950895CF93DF93D82F91
:100FB0000E94D207C82F882319F08D2F0E94D407D2
:100FC0008C2FDF91CF9108950895CF93C82F0E9461
:100FD000D1078C2F0E94D507CF91089580E00E9401
:100FE000E50708950E94331A0E94E5070895CF93FC
:100FF0000E94331AC82F8091A0018C1779F0C093FA
:10100000A0010E94561C6093A1017093A2018093DD
:10101000A3019093A4018C2F0E94E507CF9108951E
:10102000ADE0B0E0E6E1F8E00C948524488759870C
:101030006A877B878C879D8791110E947A101F8217
:1010400086E0FE013896DE01119601900D928A9598
:10105000E1F78D8181110DC029813A814B815C813D
:101060006D817E818F810E94AA0F2D96E2E00C9403
:10107000A124CE0101960E943C078111EDCFF5CF4E
:10108000FC018481813021F4808191810E94360DA0
:101090000895662329F00E9484160E945717089528
:1010A0000E94DE16FACFCF93C82F8823C9F082386A
:1010B000C9F40E94401A81FD13C089E30E943010D8
:1010C0000E94B3102FEF37EE83E021503040804074
:1010D000E1F700C0000089E30E9438100E94B310BD
:1010E000CF9108958338A1F40E94401A80FDF8CF73
:1010F00083E50E9430100E94B3109FEF21EE34E090
:10110000915020403040E1F700C0000083E5E4CF7B
:101110008438A1F40E94401A82FDE2CF87E40E9445
:1011200030100E94B3108FEF91EE24E08150904078
:101130002040E1F700C0000087E4CECF8CEF8C0F99
:10114000813A90F46C2F80910801909109010E94DE
:10115000C91A882329F08C2F0E9438100E94B310DE
:101160008C2F0E943010BACF80E28C0F883048F468
:10117000C77081E001C0880FCA95EAF70E945B1032
:10118000ADCF8BE58C0F833038F42C2F2452330BEA
:10119000C9010E94691AA4CFE8E5EC0FEB3150F4C5
:1011A000F0E0EE0FFF1FE65EFE4F808191810E940E
:1011B0008F1A96CF83E38C0F833108F091CF61E0D3
:1011C0008C2F0E9449088CCF882309F456C082389E
:1011D00079F40E94401A81FF50C089E30E943010C8
:1011E0000E94B31089E30E9438100E94B310089542
:1011F000833859F40E94401A80FF3FC083E50E9463
:1012000030100E94B31083E5EECF843859F40E9469
:10121000401A82FF32C087E40E9430100E94B3104F
:1012200087E4E1CF9CEF980F913AE8F290E2980FB3
:10123000983050F4877091E001C0990F8A95EAF7D1
:10124000892F0E946110D1CF9BE5980F933028F42D
:1012500090E080E00E94691A089598E5980F9B310C
:1012600028F490E080E00E948F1A089593E3980F8D
:10127000933118F460E00E94490808951F93CF93BA
:10128000DF93182FEB010E945308209739F4812F28
:101290000E94E408DF91CF911F9108958FE99FE0AC
:1012A0000197F1F700C000002197EFCF70E060E0F8
:1012B000893311F460E570E00E943E0908958823A7
:1012C00021F00E945B100E94B3100895882321F042
:1012D0000E9461100E94B3100895B0E0A0E0E3E71F
:1012E000F9E00C947D246C01D62FC72FFC011581E9
:1012F000068102950F700E945110E82E8823E9F0B4
:10130000E12E1123D1F08C2F807F803451F080E2C8
:101310008D0F8830F0F0011104C08C2F807E803258
:10132000C1F08091BC0282FF14C082E00E941611BD
:101330000E94511091E0E82EE9268C2F82958F7043
:10134000A82EB12C8C30B0F5F501E55CF94D0C946C
:101350006F24E12CF2CF0C2F0F70C07F11F002959B
:10136000007F112399F0002359F080E28D0F88301F
:1013700010F0D11107C0802F0E945B100E94B310A3
:101380008D2F5CC0802F0E946C10F8CF8D2F0E9493
:10139000E408002379F080E28D0F883010F0D1113D
:1013A00004C0802F0E94611003C0802F0E94721021
:1013B0000E94B31088E0A81AB10894E0A916B104FD
:1013C00020F40E94331A0E94E507EE2089F00E9463
:1013D0004D1080FD0DC0F60115820E9447100E943D
:1013E0003D0CC6010E947B0B0E9447100E944D0CD1
:1013F000CDB7DEB7EAE00C949924FC2FFF70FF2EE6
:10140000C07FC03219F0F29480EFF822DD2341F062
:10141000D130D1F1112309F443C00023F1F0B0CF52
:101420008091BC0282FD15C0112359F0FF2029F0E4
:101430008F2D0E945B100E94B31080E00E94530821
:10144000B9CF80E00E94E408FF2009F4B3CF8F2DCC
:10145000A9CF112369F0011104C08F2D0E945F09EB
:10146000A9CF013009F0A6CF8F2D0E949110A2CFF5
:101470000111A0CF8F2D0E9466098F2D0E949D1013
:101480008F2D0E94811096CF112321F0023008F099
:1014900091CFE3CF01118ECF8F2D0E9466098ACFA5
:1014A0000023D1F3D93349F42FEF87EE93E0215095
:1014B00080409040E1F700C000008D2F0E94E408BA
:1014C00079CF8C2F86958695837069F0813009F0ED
:1014D00071CF8D2F9C2F9370111102C080E090E08E
:1014E0000E948F1A67CF8D2F9C2F9370111102C00D
:1014F00080E090E00E94691A5DCF612F8D2F0E94DD
:10150000490858CF8C2F8370A9F5111153CF4D2F57
:10151000429546954770440F440F2D2F2F7030E0B1
:10152000042E02C0220F331F0A94E2F790E080E0FD
:10153000D4FF09C08FE090E002C0880F991F4A9540
:10154000E2F780959095C695C695C370822B932B34
:10155000C23051F0C33059F0C13019F00E94100C64
:1015600029CF0E94070C26CF0E94190C23CF0E947E
:10157000040C20CF8695112311F08C2F81708823C5
:1015800009F418CF4D2F429546954770440F440FEC
:101590002D2F2F7030E0042E02C0220F331F0A942B
:1015A000E2F790E080E0D4FF09C08FE090E002C055
:1015B000880F991F4A95E2F780959095C695C69534
:1015C000C370822B932BC23051F0C33059F0C1301D
:1015D00019F00E94780CEECE0E946F0CEBCE0E94A8
:1015E000810CE8CE0E94250CE5CECF70112329F0A6
:1015F0008C2F0E943D0C8D2F31CF8D2F0E946609BC
:101600008C2F0E944D0CD6CED23F39F160F4D03FE2
:10161000B9F0D13F81F0112309F445C00111B0CEDA
:101620008C2F8F711EC0D33FF9F0D43FA1F780916A
:10163000BC0282FD23C08C2F8F71112311F311C0C6
:10164000112339F00111B6CE8C2F8F710E945F0CDF
:10165000B1CE023008F0AECEF7CF8C2F8F711111C2
:10166000D0CF0E943D0CA6CE112329F08C2F8F7174
:101670000E94310C9FCE0E942C0C9CCE112349F06D
:10168000CF718C2F0E943D0C63E08C2F0E94F810CC
:1016900091CE81E00E941611023008F48BCE82E0D8
:1016A0000E94161187CE002359F0D93309F005CFD7
:1016B000EFEFF7EE23E0E150F0402040E1F7FBCE02
:1016C0008C2F8F719ECF0F931F93CF93DF93EC01DD
:1016D000688179818D810E94430D8C010E948A0C62
:1016E0000E94030CB801CE010E946D09DF91CF91D9
:1016F0001F910F910895CF93DF93EC018C81882384
:1017000099F0CE010E947107811111C00E94511001
:10171000882351F08D81882339F08091BC0282FFAB
:1017200003C082E00E941611DF91CF910895CE018F
:101730000E94630BCE010E944A07F6CF90E080E042
:101740000E94691A90E080E00E948F1A0E947A102D
:101750000E94B3100E9472170E94571708950E94AA
:1017600040100E949E0B08950E9469100E94AF0BCA
:101770000895282F92959F70963091F060F4925FB3
:101780009F70923030F481E0203F81F030F4283EA9
:1017900030F080E008959A5FF3CF243FD1F70895A9
:1017A00081E0283EE0F3213FA1F7F9CF0895FC0145
:1017B0008481882339F0808191810E94360D0E94B6
:1017C000B90B089580E00895A6E0B0E0EAEEFBE0F2
:1017D0000C9485242696E2E00C94A124A7E0B0E0C6
:1017E000E4EFFBE00C9485242796E2E00C94A1241E
:1017F00008950E94F80B08950E94F90B9093D5016B
:101800008093D401089508950E94FC0B08952091BF
:10181000D4013091D501822B932B0E94FC0B0895AB
:101820002091D4013091D501822393230E94FC0B97
:1018300008952091D4013091D501822793270E94E9
:10184000FC0B08950E94D00608950E94220C9093EC
:10185000D3018093D201089590E080E00E94250C8E
:10186000089521E030E0A90102C0440F551F8A9578
:10187000E2F7CA010E94250C089521E030E002C081
:10188000220F331F8A95E2F78091D2019091D30104
:10189000822B932B0E94250C089521E030E002C09A
:1018A000220F331F8A95E2F7209530958091D2015F
:1018B0009091D301822393230E94250C089521E067
:1018C00030E002C0220F331F8A95E2F78091D201E7
:1018D0009091D301822793270E94250C089520918F
:1018E000D2013091D301822B932B0E94250C0895B5
:1018F0002091D2013091D301822393230E94250CA1
:1019000008952091D2013091D301822793270E941C
:10191000250C089508959B01677091E001C0990F0F
:101920006A95EAF763E0369527956A95E1F7220F05
:10193000331F220F331FFA01E20FF31F50E040E084
:10194000682F70E08191DF0111979B01042E02C086
:10195000369527950A94E2F72170219528272923A7
:1019600028272C934F5F5F4F4430510559F7089556
:101970009C01982F977083E0369527958A95E1F71B
:10198000220F331F220F331FFB01E20FF31F50E022
:1019900040E080E0219130E0092E02C03695279585
:1019A0000A94E2F721703327042E01C0220F0A9413
:1019B000EAF7822B4F5F5F4F4430510559F7089586
:1019C000282F862F9E3068F4263058F4622F70E05E
:1019D00026E0929F600D711D112446EA51E00E949D
:1019E0008B0C0895292F9E3068F4863058F490E0CF
:1019F00066EA71E036E0239F800D911D11240E945C
:101A0000B80C089580E00895B0E0A0E0EAE0FDE0C1
:101A10000C947E248C01E090D201F090D30180914F
:101A2000D4019091D501E82AF92ACFE0D0E0CC2466
:101A3000C394D12CBC2EC6010C2E02C0880F991F56
:101A40000A94E2F78E219F21892B49F4219790F780
:101A5000B12C8B2DCDB7DEB7E9E00C949A24B801F8
:101A60008C2F0E94F313019789F3F3CFCF93DF9369
:101A7000D82FC92F0E94040D6D2F7C2F0E94F313C5
:101A8000DF91CF9108951F93CF93DF93162FD72F18
:101A90009091A501992341F0862F972F0E94360D32
:101AA000DF91CF911F910895882381F0862F972F82
:101AB0000E94040DC82F682F812F9D2F0E94E00CDB
:101AC000612F7D2F8C2F0E94F313EACF862F972F43
:101AD0000E94F20CC82FF4CFFC0181E090E0DC0101
:101AE00002C0AA0FBB1F6A95E2F7BD01DC0102C06C
:101AF000AA0FBB1F4A95E2F7AD01462B572B02C038
:101B0000880F991F2A95E2F79A012E233F23241765
:101B1000350719F48E2B9F2B0895809590958E2371
:101B20009F2308951F93CF93DF93E091D60117E091
:101B30008091D7018E1304C0DF91CF911F9108953A
:101B4000CE2FD0E01E9FF0011124E852FE4F2081DD
:101B50003181428153816481758186810E94EE0BBF
:101B6000FE013196E770E4CF20911002309111020E
:101B7000409112025091130260911402709115026B
:101B8000809116020E94EE0B0895CF93DF9380910F
:101B90001602807F09F04DC080911502882309F458
:101BA00048C0E091D6015091D701C0911102D09167
:101BB0001002609112027091130247E05E17C9F1A2
:101BC0008E2F90E0E49FF0011124E852FE4F248113
:101BD000222391F1489FF001499FF00D1124DF016C
:101BE000A852BE4F11962C9111972C1325C02C9101
:101BF0002D1322C015962C91159721111DC01296F8
:101C00002D913C91261B370B283C3105A8F480917F
:101C100016028F70806180931602E252FE4F80811F
:101C20008F708061808380E192E00E947B0B0E9434
:101C3000920DDF91CF910895FC013196E770BECFF0
:101C4000982FE091D6014091D70157E0E41302C0EC
:101C500080E008952E2F30E05E9FF0011124E852BD
:101C6000FE4F8181681306C08081981303C085816F
:101C70008111EFCFF9013196E770E8CFADE0B0E028
:101C8000E4E4FEE00C947B248C0186E0F801DE01A4
:101C9000189601900D928A95E1F7F8018481E5800C
:101CA00090E1A92E92E0B92E9091140291111FC0DB
:101CB0008823D1F0EE20A9F0C8010E94D70BF82E9E
:101CC000882379F087E0F801D50101900D928A957B
:101CD000E1F7C5010E9440080E94C50D0E94B40DA5
:101CE0005FC0C8010E947B0BFF24F39459C0C080E1
:101CF000D18082809380F090150220911202309161
:101D00001302A401421B530BFF2009F4DBC0483C23
:101D1000510508F0A7C0882309F442C09091110230
:101D200080911602282F207F09F05CC0D91216C0BE
:101D300090911002C91212C0E1104EC08F708061E4
:101D4000809316020E94B40D80E192E00E947B0B0A
:101D500080911602F8018683F12C22C0E1103CC06C
:101D60006D2D8C2D0E94200E6D2D8C2D0E94200E2D
:101D7000E82E8111F1CFC886D986888599850E9481
:101D8000360D292F22952F70903478F49F702230D1
:101D9000A8F09923B9F0F8019681907F99F4FE2C70
:101DA0008F2D2D96ECE00C9497242A5F2F70223013
:101DB00068F0C8010E947B0BEF2CF1CF992311F042
:101DC000882369F3805E883050F3F3CF803F38F387
:101DD000815F833020F3EDCF809116028160809384
:101DE0001602BACFD91213C090911002C9120FC0B7
:101DF000E1100DC08683C8010E947B0B87E0F801CB
:101E0000A0E1B2E001900D928A95E1F767CFC80199
:101E10000E94D70B882309F464CFEE2009F461CF28
:101E200080911602803288F02091100230911102C8
:101E30003A8329839C828B82909114029D831E8217
:101E40008F83CE0101960E947B0B87E0F801A0E111
:101E5000B2E001900D928A95E1F70E94C50D0E94B3
:101E6000B40D42CF90911602292F207FA1F4682D46
:101E70009B868A86A6017B859E2D0E94E40B80E1CD
:101E800092E00E947B0B87E0F50111928A95E9F7B9
:101E90000E94B40D61CF882309F482CF8091110292
:101EA0008D11B5CF80911002C812B1CFE110AFCF24
:101EB0009683C8010E947B0B87E0F50111928A95F9
:101EC000E9F76ECF483C5105B8F5882309F40CCFEB
:101ED000FE2CEE2009F405CF809111028D111EC059
:101EE00080911002C8121AC08091160280FD0DC0A8
:101EF000982F907F51F08683903F09F47CCF982FE4
:101F0000907F905F8F70892B75CF87E0F801A0E1FB
:101F1000B2E001900D928A95E1F742CFC8010E948C
:101F2000D70B811192CF80911602816080931602A7
:101F3000C8010E947B0B34CF682D9B868A86A60140
:101F40007B859E2D0E94E40B87E0F50111928A9516
:101F5000E9F7C4CEAEE0B0E0E0EBFFE00C948424FF
:101F6000288739874A875B876C877D878E87CE0174
:101F700008960E943E0E8823B1F06C85662341F0DE
:101F8000288539854A855B857D858E850E94EE0B87
:101F900017E08091D6019091D70189133EC02E960B
:101FA000E3E00C94A02487E0FE013896DE01119650
:101FB00001900D928A95E1F74C85442349F32091D5
:101FC000D70130E0C9010196877099275091D60159
:101FD00058171906A1F04D8397E0929FD001939F67
:101FE000B00D1124A852BE4FFE01319601900D9202
:101FF0009A95E1F78093D7010E94920DC9CF0E9474
:10200000B40B1092D7011092D60187E0E0E1F2E024
:10201000DF011D928A95E9F7BBCF819FC001112492
:1020200088529E4F0E943E0E882309F4B8CFE0915B
:10203000D6011E9FF0011124E852FE4F208131810C
:10204000428153816481758186810E94EE0B80916B
:10205000D60190E00196877099278093D60199CF99
:10206000682F80910801909109010E944D1B0895ED
:10207000682F80910801909109010E945B1B0895CF
:1020800080910801909109010E94691B0895809137
:1020900037028695869586950895809137028770D8
:1020A000089590913702977081E009F480E00895D7
:1020B00080915B02089590915B02982B90935B0254
:1020C0000895982F909580915B02892380935B02FD
:1020D000089510925B02089590915A02982B909364
:1020E0005A020895982F909580915A0289238093DF
:1020F0005A02089510925A02089508950E947D1080
:10210000089590913802292F282331F08095892352
:10211000809338020E947E10089508950E948D10C9
:10212000089590913902292F2823281729F0982BF8
:10213000909339020E948E10089590913902292FB0
:10214000282331F080958923809339020E948E10D4
:10215000089580913902882329F01092390280E095
:102160000E948E100895CF93DF93E0910801F091C3
:10217000090180915B028083E0910801F0910901DF
:10218000808190915A02892B808390913902992302
:1021900081F0E0910801F09109018081892B808311
:1021A00080910801909109010E94B51A81110E9445
:1021B000A910C0910801D091090140E250E067E107
:1021C00072E0CE010E94D425892B59F080E2FE01F5
:1021D000A7E1B2E001900D928A95E1F7CE010E944D
:1021E000431ADF91CF91089508950E94F410089545
:1021F0009091BC0292FF11C098E0899F9001112438
:10220000622B609337020E943D0C809137028695C5
:10221000869586950E94F51008950E943D0C0895BC
:102220001092370280E00E94F510089590913702D5
:102230008095892380933702282F277069F48917A6
:1022400059F09091BC0292FF07C0869586958695BD
:102250000E944D0C0E94101108959091BC0292FBB7
:10226000222720F9281769F080FB92F99093BC028D
:102270008091BB029091BC020E94751182E00E9485
:10228000161108958091BC0282FB882780F991E0A5
:1022900089270E942D11089581E00E942D11089533
:1022A00080E00E942D1108956FEF7FEF90E080E0B5
:1022B0000E942326089590E080E00E94EF259C0173
:1022C00081E0263E3E4F09F080E0089582E090E0F4
:1022D0000E94E125089583E090E00E94E1250895A1
:1022E00084E090E00E94EF250895BC0184E090E036
:1022F0000E94232608958FE090E00E94E92508952A
:10230000AB01BC018FE090E00E9417260895AB015D
:10231000BC0183E190E00E941726089560E070E020
:10232000CB010E9487110895A8E0B0E0EAE9F1E14D
:102330000C94852466EE7EEF90E080E00E942326D8
:1023400060E082E090E00E94052660E083E090E09B
:102350000E9405261092D5011092D40160E074E12C
:1023600084E090E00E94232660E086E090E00E94F6
:1023700005266FEF87E090E00E94052640E050E0E0
:10238000BA0188E090E00E94172660E084E290E0C5
:102390000E94052660E087E190E00E94052660E04B
:1023A0008CE090E00E94052660E08DE090E00E94C5
:1023B000052619821A821B821C821D821E821F82A0
:1023C000188648E050E068E170E0CE0101960E9476
:1023D000F52540E050E0BA0180E290E00E94172627
:1023E0000E942E062896E2E00C94A1240E949411EB
:1023F0000895682F8EE090E00E9405260895A6E0DB
:10240000B0E0E5E0F2E10C9483240E944A1C8C01C8
:1024100080915C0290915D028017910781F0198292
:102420001A820E944A1C682F49815A81792F80E0C4
:1024300090E00E94100810935D0200935C022696C3
:10244000E4E00C949F240E94561C609370027093E9
:102450007102809372029093730260936C02709386
:102460006D0280936E0290936F020895089508950F
:102470000E943612089508950E943B12089589EE35
:1024800094E10E94FA150E9437120E9438120895B2
:1024900081E008950E94481208950E94481208950C
:1024A000089508950E9450120E94511208950E94AA
:1024B000EC140E94E40708950E94411C0E94131529
:1024C0000E9457120E943C120895A6E0B0E0EBE68D
:1024D000F2E10C947C240E944A1281110AC00E94ED
:1024E000FF110E9493170E94F7072696EBE00C94C9
:1024F00098240E9425158EE5A82E82E0B82E75013D
:1025000010E0F70101917F01812F0E940C151F5FE0
:102510001E3009F441C00817A1F38091740281FDB7
:102520000E9412150E944D12C82E00E09924939427
:10253000802F0E940C15182FF50191915F018917CA
:1025400029F1D82ED926F12CEE24E3948D2D8E215D
:10255000A9F0CC2099F0F9820A830E944A1C9C833E
:102560008B839D8291E0812F8E2109F490E0498137
:102570005A816B817C818D810E941008F394EE0C4E
:10258000F6E0FF12E3CFF501319710830F5F0E30B5
:1025900079F60E942312A5CF0813BFCFA0CF1F93B7
:1025A000CF93DF930E94F813EC018115924508F058
:1025B0005FC0C11580E5D80708F0DDC0C03ED10579
:1025C00038F5CD3CD10508F0AEC0C83AD10580F44D
:1025D000C53AD10508F0A4C0C130D10509F443C003
:1025E000CE010497813A9105F0F1D0E0C0E03BC004
:1025F000CE01885A91094B97C0F7C85AD0E0CC0F4A
:10260000DD1FC05BDE4F0990D881C02DD4642BC084
:10261000C11590E4D907F0F4C11520E2D20708F003
:10262000C4C0C83ED105F8F0CE019A9581159F41EE
:10263000E0F68D2F0E949A14182FCE0199270E9440
:10264000F813C12FD0E0DC2FCC27CC27DF71C82BAB
:10265000D92B09C0CE0199270E94F813CC27DF702F
:10266000C82BD92BD06ACE01DF91CF911F9108954D
:10267000C03882E5D807B8F5C03692E5D90708F02A
:102680005BC0C03422E5D207C8F4C03282E5D80767
:1026900008F04BC02C2F2695269590E2299F90019B
:1026A00011248C2F8370C1E0D0E002C0CC0FDD1F5D
:1026B0008A95E2F7C22BD32BDD68D5CF2C2F269538
:1026C0002695277080E2289F900111248C2F83701B
:1026D000C1E0D0E002C0CC0FDD1F8A95E2F7C22B2B
:1026E000D32BDC68C0CFC03C92E5D90760F48C2FB7
:1026F0008F71C03AD245A8F5C82FD0E0DC2FCC2787
:10270000C46FD06AB0CFCE01805C9245809708F04C
:102710006CCFDC2FCC27CC27DF71C06FD06AA3CF62
:10272000A497D064A0CFD0659ECFCF71D0E0DC2F2E
:10273000CC27C16FD06A97CF2C2F2695269527706E
:1027400080E2289F900111248C2F8370C1E0D0E09B
:1027500002C0CC0FDD1F8A95E2F7C22BD32BDA68BB
:1027600082CF0E949A14C82FD0E0DC2FCC27CC2730
:10277000DF71D06278CF8C2F8F710E949A1455E050
:10278000D695C7955A95E1F7CF70D0E0DC2FCC27CE
:10279000282F30E084FF05C044E0220F331F4A9504
:1027A000E1F7C22BD32BD0695ECF8D2F8F710E94A2
:1027B0009A14182FCE0199270E94F813C12FD0E048
:1027C000DC2FCC27CC27DF71C82BD92BD2CF462FBB
:1027D000672F7E3028F4463018F40E94F2060895E0
:1027E00080E090E008950E94E7130E94CF120895C0
:1027F000803E9105C1F1C8F48133910509F47DC093
:1028000048F48932910509F46DC08A32910509F4C2
:102810007BC0089589339105D1F082389105B9F0D4
:102820008533910509F459C00895843E9105C1F19D
:1028300038F4823E910521F1833E910531F10895EE
:10284000863E9105C1F1873E9105E1F10895209101
:10285000BB02237009F065C02091BC0223FF14C0A5
:1028600089E290E008952091BB0220FD43C03091A1
:10287000BC0230FF09C024FF4EC090E080E0089504
:102880002091BB0222FDF7CF08952091BB0222FDCB
:1028900045C03091BC0230FD44C024FFF5CFEDCFE0
:1028A0002091BC0221FFF0CF8091BB0284FDE5CFD7
:1028B00087EE90E008952091BB0223FFE5CF24FD31
:1028C000DCCFF6CF2091BB0223FD2EC03091BC029D
:1028D00031FFE3CF84EE90E008952091BB0225FF05
:1028E000D3CFBECF2091BB0225FD21C02091BC02D9
:1028F00023FFCACF89E390E0C7CF2091BB0226FF18
:10290000C3CF8AE290E008952091BB0226FFBCCF9E
:1029100081E390E0089583EE90E0089582EE90E0E8
:10292000089580EE90E0089586EE90E0089585E3A6
:1029300090E008959091BB0292FF10C041E0282FD3
:102940002471243009F040E031E0282F287128302C
:1029500009F030E0431711F02CE0822793FF10C0FC
:1029600041E0282F2471243109F040E031E0282F84
:102970002871283109F030E0431711F02CE082274C
:102980003091BC0230FF10C051E0282F217121305E
:1029900009F050E041E0282F2871283009F040E08C
:1029A000541711F029E0822731FF10C041E0282F91
:1029B0002171213109F040E031E0282F28712831C0
:1029C00009F030E0431711F029E0822794FD877E5B
:1029D000089580E0089508950E945B11811102C05E
:1029E0000E94F6110E946611809374020E94701179
:1029F0009093BC028093BB020E94EB140E946B1167
:102A000090E00E94040C8091D2019091D3010E9429
:102A1000220C089508950895E82FF0E0E553FD4F46
:102A20008081089508950E943B04EDEBF2E0ABEC49
:102A3000B2E011921D9282E0EB3CF807D1F78EE0F4
:102A40000E9438150E948B050895CF938DEB92E07C
:102A50000E944704282F4EE06BEC72E08DEB92E071
:102A60000E944B15C82F0E9452068C2FCF910895BB
:102A7000CF93C82F90E00E94AC248093790290936A
:102A80007A02282FFC018E2F821B8C1710F0CF9119
:102A900008951192F8CFB0E0A0E0E1E5F5E10C94E3
:102AA0008024082FF92EE62ED72E142FC22F109235
:102AB0007502D0917602DD2309F454C00E944A1CAD
:102AC0009C018091770290917802F901E81BF90B43
:102AD0003093780220937702EF3FF10509F0D0F4AC
:102AE0003097A1F03E2F1092760210927B02409117
:102AF0007902E42FF0917A0280E090E02E2F241BDF
:102B0000211758F09093760280937B02C11138C050
:102B1000CD2F2AC0EFEFF0E0E5CF2081222321F076
:102B2000321720F010828D2F3196E8CF231B20839F
:102B30009D2FFACF8C913881381781F03081311177
:102B40000DC0508388839C91892730E0B901682BA0
:102B5000CB0121E0892B09F420E091E03196219608
:102B600011961EC0211106C080917B02882301F1BD
:102B7000C11106C00E944A1C90937802809377028C
:102B800010927B0240917902209175029091760219
:102B9000CE2DDD2DA02FBF2DE42FF0917A025EE126
:102BA0008E2F841B811730F220937502909376024A
:102BB00080917502CDB7DEB7E7E00C949C240E94AB
:102BC000251F0E945C120E94321F08950E94371F29
:102BD0000E9465120E94511F08950E94E31B0E94EB
:102BE0000B1F0E943F120E94DF150E94E6150E94F3
:102BF0005212FBCF90939701809396010895282F4E
:102C000035EB2303C001112497FF04C080589109BC
:102C1000892F089580589F4FFBCF8091830280FFBA
:102C20000DC060910F0170E0660F771F603871056D
:102C300070F56115710569F1862F089581FF07C050
:102C400060910F0184E0689FB0011124EFCF609183
:102C50000F0182FD0AC0809182028823A9F0209191
:102C60000E0160910F01821710F088E0ECCF869F73
:102C7000C001112433E0880F991F3A95E1F7622FC4
:102C800070E00E945B24D2CF68E070E0D5CF8FE780
:102C9000089581E008958091830280FF0CC06091C7
:102CA0000B0170E0759567957595679561157105D0
:102CB00049F1862F089581FF06C060910B0170E0F5
:102CC00075956795F3CF60910B0182FD0BC09091D4
:102CD00081029923A1F060910A0180910B0196175E
:102CE00038F0682F70E06038710500F38FE70895C1
:102CF000899FC001112470E00E945B24F4CF61E041
:102D000070E0D7CF81E008958D3C31F40E940D161C
:102D100081958093860208958E3C19F40E940D16C9
:102D2000F8CF8F3C31F40E940D1681958093850277
:102D30000895803D19F40E940D16F8CF893D29F4BD
:102D40000E944B168093870208958A3D21F40E94C9
:102D50004B168195F7CF8B3D31F40E944B16819530
:102D60008093880208958C3D19F40E944B16F8CF89
:102D70009FE2980F983070F4815D990B21E030E06C
:102D800001C0220F8A95EAF780918402822B8093FA
:102D9000840208958D3D31F4809183028160809397
:102DA000830208958E3D21F4809183028260F7CFE3
:102DB0008F3DB9F7809183028460F1CF4091850205
:102DC0008D3C59F48091860287FF0DC010928602D7
:102DD00041110BC01092820208C08E3C81F4809198
:102DE000860218169CF3442381F08091870290910B
:102DF0008802892B09F05AC01092810208958F3CF5
:102E000049F447FFF0CF109285028091860281112C
:102E1000ECCFE0CF803D19F41416ACF3E4CF9091E1
:102E20008702893D29F41916F4F610928702DBCF48
:102E30008A3D19F497FFD7CFF8CF909188028B3D48
:102E400029F497FFD0CF10928802CDCF8C3D19F492
:102E50001916CCF3C8CF9FE2980F983090F4815D9B
:102E6000990B21E030E0B90102C0660F771F8A9507
:102E7000E2F7CB01809590918402892380938402AC
:102E8000B2CF8D3D31F4809183028E7F8093830297
:102E9000AACF8E3D21F4809183028D7FF7CF8F3DA5
:102EA00009F0A1CF809183028B7FF0CF08950E941B
:102EB0004A1C2091850230918602232B21F08093B9
:102EC0007F02909380022091870230918802232B09
:102ED00021F080937D0290937E0284E892E00E942C
:102EE0005E1A089585E0E4E8F2E0DF011D928A951C
:102EF000E9F71092820210928102109283020895E3
:102F0000FC01818181110DC0828181110AC0838100
:102F1000811107C081E09481911101C080E081702E
:102F2000089581E0FCCFA5E0B0E0E9E9F7E10C9479
:102F3000842485E0E4E8F2E0DE01119601900D9230
:102F40008A95E1F71092850210928602109287020C
:102F5000109288028A819B81892B89F080917F025F
:102F6000909180020E94731C9C01809182028823B0
:102F7000C9F1909110019217130608F440C08C819A
:102F80009D81892B91F080917D0290917E020E941B
:102F9000731C9C0180918102882309F46AC090917E
:102FA0000C019217130608F472C0BE016F5F7F4FC9
:102FB00084E892E00E947B1B811105C084E892E0C6
:102FC0000E94801781110E94571785E0FE013196FB
:102FD000A4E8B2E001900D928A95E1F72596E3E02E
:102FE0000C94A02440917C029AE0499FA0011124F6
:102FF0004217530720F68F5F8093820202C08F3FF3
:10300000D1F71A81112359F00E940D169FEF111666
:103010000CF491E0899F802D1124809385021B81FF
:10302000112359F00E940D169FEF11160CF491E038
:10303000899F802D112480938602809185028823A8
:1030400009F49DCF10918602112309F498CF0E94B4
:10305000FF15882351F080938502812F0E94FF1570
:10306000882329F0809386028ACF81E0F4CF81E023
:10307000F9CF40910D019AE0499FA0011124421718
:10308000530708F092CF8F5F8093810202C08F3F79
:10309000D1F71C81112359F00E944B169FEF111696
:1030A0000CF491E0899F802D1124809387021D816B
:1030B000112359F00E944B169FEF11160CF491E06A
:1030C000899F802D11248093880280918702882314
:1030D00009F46BCF10918802112309F466CF0E9486
:1030E000FF15882351F080938702812F0E94FF15DE
:1030F000882329F08093880258CF81E0F4CF81E0C3
:10310000F9CFCF93DF93EC01FB018581882309F48C
:10311000D2C09E0130572332310508F0B2C00E9460
:1031200070119093BC028093BB02FE01E150F04706
:10313000E232F10520F4E95BF94D0C946F248091A3
:10314000BB0281608093BB0293C08091BC02886007
:103150008093BC028DC08091BB028260F3CF8091CE
:10316000BB028460EFCF8091BB028860EBCF80917F
:10317000BC028160EDCF8091BC028260E9CF80917A
:10318000BB028061DFCF8091BB028062DBCF809188
:10319000BB028064D7CF0E94B40B8091BB028068D1
:1031A000D1CF8091BB028C60CDCF8091BC02836077
:1031B000CFCF8091BB028E7FC5CF8091BC02877F2D
:1031C000C7CF8091BB028D7FBDCF8091BB028B7F2B
:1031D000B9CF8091BB02877FB5CF8091BC028E7F33
:1031E000B7CF8091BC028D7FB3CF8091BB028F7E21
:1031F000A9CF8091BB028F7DA5CF8091BB028F7B31
:10320000A1CF0E94B40B8091BB028F779BCF80919E
:10321000BB02837F97CF8091BC028C7F99CF809136
:10322000BB0282FB992790F921E0922790FB82F95B
:1032300090FB83F987CF8091BC02982F9095917075
:103240008E7F892B90FB81F983CF9091BB02892FD0
:103250008F7B96FF806476CF0E94B40B9091BB0267
:10326000892F97FB87F980586DCF81E00E94F91173
:103270008091BB029091BC020E9475110E94B40B18
:1032800080E0DF91CF91089580E0F0CF9091BB0274
:10329000892F8F7E94FF806155CF9091BB02892F3B
:1032A0008E7F90FF81604ECF9091BC02892F877FE7
:1032B00093FF88604DCF81E0E4CFCF93DF93EB01A4
:1032C00086319C4711F50E9458109D81992399F0F1
:1032D0008A7A91E009F490E090938902811109C003
:1032E00089E20E9430100E94B31080E0DF91CF91FC
:1032F000089585E3F6CF80918902811104C089E2A7
:103300000E943810F0CF85E3FBCF81E0EFCF0F9321
:103310001F93CF93DF93C42FD22FFC018581882385
:10332000C9F040938C020E944A1C90938B028093B8
:103330008A0280E28C0F883040F4C77081E001C0BF
:10334000880FCA95EAF70E945F09DF91CF911F911C
:103350000F91089510918C02141332C080918A024B
:1033600090918B020E94731C883C910548F5C0E245
:10337000CD0F1D17B9F080E2810F883040F417702F
:1033800081E001C0880F1A95EAF70E946609C830EB
:1033900048F481E09D2F977001C0880F9A95EAF755
:1033A0000E945F09802F0E945609C83070F6D770BE
:1033B00081E001C0880FDA95EAF70E946609C5CF5F
:1033C00080E28C0F883008F6C77081E001C0880F5A
:1033D000CA95EAF7F2CF0F93FC01CB01E851FC4705
:1033E000E730F10590F5E759F94D0C946F2406E2AA
:1033F00021EE41EE6AE17CE70E94871980E00F919F
:10340000089507E225EE45EE6BE17CE7F5CF06E295
:1034100021EE40EE68E17CE7EFCF07E225EE44EED7
:1034200069E17CE7E9CF06E221EE42EE6CE17CE760
:10343000E3CF07E225EE46EE6DE17CE7DDCF08E263
:1034400021E045EE6EE17CE7D7CFFB018581882343
:1034500019F010928C02D3CF81E0D1CF90939202D9
:10346000809391020895E0919102F0919202309739
:1034700029F00190F081E02D0995089580E00895EC
:103480000E94331A0895DC01E0919102F0919202BA
:10349000309799F080911901882351F08091BB02F7
:1034A00087FF06C08C9111968C93119786E08C93C0
:1034B0000280F381E02DCD0109950895E0919102FC
:1034C000F0919202309721F00480F581E02D09956A
:1034D0000895A3E0B0E0EFE6FAE10C9485249C01A6
:1034E00080918F029091900282179307A1F0309300
:1034F000900220938F02E0919102F0919202309716
:1035000051F083E089833B832A830680F781E02D95
:10351000CE01019609952396E2E00C94A124A3E044
:10352000B0E0E5E9FAE10C9485249C0180918D02DC
:1035300090918E0282179307A1F030938E02209310
:103540008D02E0919102F0919202309751F084E067
:1035500089833B832A830680F781E02DCE01019683
:1035600009952396E2E00C94A124FC013296809107
:103570001901882321F08091BB029EE187FF96E02C
:1035800080E0915008F4089521912223D1F38F5FB8
:10359000F8CF9C01662301F1809119018823F1F095
:1035A0008091BB0287FF1AC0462F469546954695E7
:1035B000603F90F4677081E090E002C0880F991F2F
:1035C0006A95E2F7240F311DF901228130E02823AA
:1035D000392381E0232B71F480E00895F9013296BC
:1035E000285F3F4F8191861721F0E217F307D1F74B
:1035F000F3CF81E008959C01FC0132968FEF90E0BB
:103600004191461751F08F3F19F4411101C0892FA4
:103610009F5F9630A9F78F3F09F40895280F311D59
:1036200087FD3A95F901628308959C01FC01329669
:10363000285F3F4F8191861303C0DF0111971C92D1
:10364000E217F307B9F70895E62FE695E695E695B4
:10365000603F68F4E80FF92FF11D677021E030E05A
:1036600001C0220F6A95EAF78281822B8283089536
:10367000E62FE695E695E695603F70F4E80FF92FA2
:10368000F11D677081E090E001C0880F6A95EAF74C
:1036900080959281892382830895209119012223A4
:1036A00039F02091BB0227FF03C00E94241B08951C
:1036B0000E94FB1A089520911901222339F02091CC
:1036C000BB0227FF03C00E94381B08950E94151BF0
:1036D0000895FC01329680911901882351F0809160
:1036E000BB0287FF06C08EE1DF011D928A95E9F7D4
:1036F000089586E0F9CFDC01FB019C91808198134D
:1037000022C011968C911197882319F09181891309
:103710001AC012968C911297882319F092818913FE
:1037200012C014968C911497882319F094818913F0
:103730000AC013969C91992321F081E023812913DB
:1037400003C080E001C081E08170089508950E9467
:10375000A61B0895811106C081E0809393020E9408
:10376000A71B089582E0F9CF83E0809393020E9423
:10377000A71B08950E94AA1B089581E080939302DD
:103780000E94A71B08950E94BD1B089508950895E7
:103790000E94C71B089508950E94C61B0895CF93E9
:1037A0000E949C040E9425150E94CB1BC0E08C2F18
:1037B0000E940C15811105C0CF5FCE30C1F7CF91AB
:1037C000089581E0FCCF85B7806885BF85B78068A4
:1037D00085BF08951F921FB61F9211248F939F9348
:1037E000AF93BF9380919402811113C08091D9024D
:1037F0009091DA02A091DB02B091DC024196A11D0A
:10380000B11D8093D9029093DA02A093DB02B093AA
:10381000DC02BF91AF919F918F911F901FBE1F90AF
:1038200018958091E102843031F10E94C70710920F
:10383000940288E190E020E40FB6F894A895809374
:1038400060000FBE2093600083B7817F846083BFD8
:1038500083B7816083BF7894889583B78E7F83BF59
:103860000FB6F894A89580916000886180936000FD
:10387000109260000FBE08950E94B40B0E94CC0706
:10388000089582E084BD93E095BD9AEF97BD809343
:103890006E0008952FB7F8948091D9029091DA02C2
:1038A000A091DB02B091DC022FBF0895A4E0B0E04C
:1038B000ECE5FCE10C9485248FB7F8942091D902B3
:1038C0003091DA024091DB025091DC0229833A8385
:1038D0004B835C838FBF69817A818B819C81249625
:1038E000E2E00C94A1249C014FB7F8948091D90296
:1038F0009091DA02A091DB02B091DC024FBF821BF3
:10390000930B089578941F921FB61F9211248F93E2
:103910009F93AF93BF938091D9029091DA02A091C7
:10392000DB02B091DC020196A11DB11D8093D9028A
:103930009093DA02A093DB02B093DC02BF91AF91C7
:103940009F918F911F901FBE1F901895F89481E052
:103950008093E00080E28093D800E9ECF0E01082F0
:103960008FE19EE40197F1F700C000001DBA1092AC
:1039700068001CBC10BE1FBA10927A0010926E0034
:1039800010926F0010927100109272001082ECEB96
:10399000F0E0108214B817B81AB81DB810BA108227
:1039A00015B818B81BB81EB811BA0C94003F08958A
:1039B00088E19AE00FB6F894A895809360000FBE56
:1039C00090936000FFCF1092B9008CE08093B80014
:1039D0000895B0E0A0E0EFEEFCE10C947C24B82E5A
:1039E000EB010E944A1C6C01EE24E394F12CC431DB
:1039F000D10560F025E0E22EF12CCF3FDC0731F05D
:103A0000CE0164E170E00E9447247B0184EAA82E85
:103A100094E8992E1092BC00A092BC000E944A1C0F
:103A2000182F092F8091BC0087FF0DC08091B9002D
:103A3000887F883001F18091B900887F8031D9F08A
:103A40000FEF1FEF09C0812F902F0E94731CE81603
:103A5000F90640F70EEF1FEFCF3FDC07D9F2C601A2
:103A60000E94731CC817D907A8F6C801CDB7DEB7E6
:103A7000EBE00C949824B092BB009092BC000E94A2
:103A80004A1C182F092F8091BC0087FF0AC0209183
:103A9000B900287F283111F0203491F610E000E0C1
:103AA000E4CF812F902F0E94731CE816F90658F777
:103AB000D1CF0F931F93CF93DF93EB018093BB0084
:103AC00084E88093BC000E944A1C182F092F809123
:103AD000BC0087FF11C02091B900287F81E090E0F1
:103AE000283211F490E080E0919581959109DF9161
:103AF000CF911F910F910895CF3FDC0741F3812FA4
:103B0000902F0E94731CC817D90708F78EEF9FEFFC
:103B1000EECF0F931F93CF93DF93EC0184E8809354
:103B2000BC000E944A1C182F092F8091BC0087FFFF
:103B300008C08091BB0090E0DF91CF911F910F9161
:103B40000895CF3FDC0789F3812F902F0E94731CCB
:103B5000C817D90750F78EEF9FEFEECF84E9809317
:103B6000BC0008958091B5020895282FCB01BA01B9
:103B70003091E1023430E1F42F702093E9002FEF0F
:103B80003091E800215035FD06C035ED3A95F1F74A
:103B900000002111F5CF2091E80025FF09C050E079
:103BA00040E00E94C91F8091E8008E778093E80072
:103BB0000895BC0143E050E083E00E94B51D0895E4
:103BC000BC0145E050E082E00E94B51D0895CF930E
:103BD000DF93D82FC92F80911901811113C048E0BC
:103BE00050E06D2F792F81E00E94B51D80E2ED2F0E
:103BF000FC2FA5E9B2E001900D928A95E1F7DF91E3
:103C0000CF9108958091BB0287FF06C040E283E018
:103C100050E06D2F7C2FE8CF48E081E0F9CF809114
:103C2000E002811109C00E9451210E94AE218091C1
:103C3000E20084608093E20008951092E00208950B
:103C40000E94BD1B08956091DD0281E0611101C0F9
:103C500080E00E94B41B08959091E10281E09430CD
:103C600009F080E06091DD020E94BA1B089542E0F5
:103C700061EC81E00E94CD2042E061EC82E00E9494
:103C8000CD2042E261EC83E00E94CD209091E102E0
:103C900081E0943009F080E06091DD020E94AA1B6F
:103CA00008958091E302893089F148F4823009F463
:103CB000A1C0833009F45BC0813041F008958A309F
:103CC00009F488C08B3009F46DC008958091E20238
:103CD000813A09F04BC08091E800877F8093E8002B
:103CE0008091E6029091E702892B61F460E285E918
:103CF00092E070E00E9418208091E8008B7780931A
:103D0000E800089560E090E080E0F3CF8091E20267
:103D1000813261F58091E6029091E7028D7F892BD7
:103D200029F58091E800877F8093E8008091E80082
:103D300082FF18C09091F3008091F200029731F455
:103D40008091F100813011F0863021F48091F100F2
:103D50008093B5028091E8008B778093E8000E9401
:103D6000012104C08091E1028111E0CF089580918A
:103D7000E202813AD9F78091E6029091E702892B1D
:103D8000A9F78091E800877F8093E8008091E800A0
:103D900080FFFCCF809119018093F1008091E800B1
:103DA0008E77DBCF8091E202813201F78091E602CB
:103DB0009091E702892BD1F68091E800877F80936C
:103DC000E8000E9401218091E402809319010E9481
:103DD000B40B08958091E202813241F68091E800AF
:103DE000877F8093E8000E9401218091E502809303
:103DF000B60208958091E202813A09F0B7CF80912E
:103E0000E800877F8093E8008091E80080FFFCCF86
:103E10008091B602C1CF84B7877F84BF0FB6F89474
:103E2000A895809160008861809360001092600086
:103E30000FBE80E890E00FB6F894809361009093F5
:103E400061000FBE0E94C31B08950E9451210E9471
:103E5000AE21E2EEF0E080818460808378940E945D
:103E60002C24089581E191E00E942E1A08958091FA
:103E7000E102853031F48091E102853019F00E9431
:103E80003C1C08950E94111C8091DF02882399F345
:103E90000E94CF1B882379F30E94B31F0E94B40BAA
:103EA000EACF08959A014091E8025091E9020E94F8
:103EB0005A1F0895AC01CB01D901252F3327233098
:103EC0003105D1F070F42130310509F447C02230BA
:103ED000310569F484E590E02AE835E02D933C93C0
:103EE000089521323105E9F02232310539F190E0AF
:103EF00080E030E020E0F2CFCA019927413059F04C
:103F00008230910559F0E6E8F5E0892B81F784913C
:103F100090E09F01E3CFECE5F5E0F9CFE4E4F5E0D4
:103F2000F6CF8330910518F7880F991FFC01E157F0
:103F3000FE4F2081318189E090E0D0CF8330910520
:103F4000B0F6FC01EE0FFF1FE757FE4F20813181D5
:103F50008A579E4FFC01808190E0C0CF82E190E0C3
:103F60002EED35E0BBCF80E189BD82E189BD09B48A
:103F700000FEFDCF8091D8008F7D8093D800809186
:103F8000E00082608093E0008091E00081FDFCCF42
:103F90000895AF92BF92CF92DF92FF920F931F933B
:103FA000CF93DF936C01EB018A010E942021F82E50
:103FB000811123C00115110539F0F801808191812B
:103FC000C81BD90BC80ED91EB12CA12C2097A9F063
:103FD0008091E80085FD22C08091E8008E77809373
:103FE000E80001151105A1F0F80180819181A80E6A
:103FF000B91EB182A08285E0F82E8F2DDF91CF917E
:104000001F910F91FF90DF90CF90BF90AF900895D8
:104010000E9420218823D1F2F82EEFCFF601819162
:104020006F018093F1002197FFEFAF1ABF0ACECF47
:10403000FC01CB012091E8023091E90226173707F5
:1040400090F0009729F42091E8002E772093E80063
:1040500040E0009751F4411108C08091E80082FFD0
:1040600031C080E00895C901F3CF2091E1022223FD
:10407000A9F12530A9F12091E80023FD2DC0209160
:10408000E80022FDEACF2091E80020FFE2CF309146
:10409000F3002091F200009719F02830310558F014
:1040A00041E02830310509F040E02091E8002E770A
:1040B0002093E800CECF41914093F10001972F5F0C
:1040C0003F4FE9CF8091E102882341F0853041F0F4
:1040D0008091E80083FFC1CF81E0089582E00895D8
:1040E00083E00895FC01CB012091E8023091E902C0
:1040F0002617370790F0009729F42091E8002E77D3
:104100002093E80040E0009751F4411108C08091ED
:10411000E80082FF32C080E00895C901F3CF20910A
:10412000E1022223B1F12530B1F12091E80023FD15
:104130002EC02091E80022FDEACF2091E80020FF68
:10414000E2CF3091F3002091F200009719F028306F
:10415000310558F041E02830310509F040E0209168
:10416000E8002E772093E800CECF44914093F100F1
:10417000319601972F5F3F4FE8CF8091E10288236E
:1041800041F0853041F08091E80083FFC0CF81E0AD
:10419000089582E0089583E00895982F973028F0DD
:1041A0008F708093E90081E008959093E900242FB7
:1041B000762F50E0981731F07091EC002091ED00CF
:1041C0005091F00021FD02C09F5FE8CF3091EB00DD
:1041D0003E7F3093EB003091ED003D7F3093ED005A
:1041E0003091EB0031603093EB007093EC00209342
:1041F000ED005093F0002091EE0027FDE5CF80E028
:1042000008958091E20287FF13C08091E80082FF49
:1042100006C08091E8008B778093E80004C080910D
:10422000E1028111F2CF08958091E1028823D9F350
:104230008091E80080FFF8CF8091E8008E77ECCF86
:104240002091E4003091E50095E6A9012091EC0071
:10425000822F817020FF06C08091E80080FF06C099
:1042600080E008952091E80022FD1AC08091E102CB
:10427000882389F0853089F08091EB0085FD0FC09F
:104280002091E4003091E50042175307F9F2915074
:10429000E1F684E0089582E0089583E0089581E0E6
:1042A00008950E94C0210E94C821E0EEF0E08081C4
:1042B00081608083E8EDF0E080818F77808319BC96
:1042C000A7EDB0E08C918E7F8C9380818F7E808370
:1042D0001092E00208950F931F93CF93DF930E94F3
:1042E000C0210E94C821C8EDD0E088818F778883E3
:1042F00088818068888388818F7D888319BC10922B
:10430000E1021092DD021092DF021092DE0200EE56
:1043100010E0F80180818B7F8083888181608883B1
:1043200042E060E080E00E94CD20E1EEF0E080819C
:104330008E7F8083E2EEF0E08081816080838081E7
:1043400088608083F80180818E7F8083888180618E
:104350008883DF91CF911F910F910895E8EDF0E0F0
:1043600080818F7E8083E7EDF0E0808181608083B3
:1043700084E082BF81E08093E0020E946B21089577
:10438000E8EDF0E080818E7F80831092E200089556
:104390001092DA001092E10008951F920F920FB66A
:1043A0000F9211242F933F934F935F936F937F93BB
:1043B0008F939F93AF93BF93EF93FF938091E1000F
:1043C00082FF0BC08091E20082FF07C08091E10074
:1043D0008B7F8093E1000E942B248091DA0080FF84
:1043E00019C08091D80080FF15C08091DA008E7FBF
:1043F0008093DA008091D90080FF94C080E189BD6C
:1044000082E189BD09B400FEFDCF81E08093E10225
:104410000E940F1E8091E10080FF19C08091E20090
:1044200080FF15C08091E2008E7F8093E200809132
:10443000E20080618093E2008091D80080628093E6
:10444000D80019BC85E08093E1020E94231E809170
:10445000E10084FF29C08091E20084FF25C080E153
:1044600089BD82E189BD09B400FEFDCF8091D800ED
:104470008F7D8093D8008091E1008F7E8093E10052
:104480008091E2008F7E8093E2008091E200816063
:104490008093E2008091DD02882309F449C084E022
:1044A0008093E1020E942C1E8091E10083FF29C0CD
:1044B0008091E20083FF25C08091E100877F809397
:1044C000E10082E08093E1021092DD028091E10040
:1044D0008E7F8093E1008091E2008E7F8093E200E6
:1044E0008091E20080618093E20042E060E080E041
:1044F0000E94CD208091F00088608093F0000E949F
:10450000201EFF91EF91BF91AF919F918F917F916D
:104510006F915F914F913F912F910F900FBE0F9030
:104520001F90189519BC1092E1020E941D1E72CFB7
:104530008091E30087FD02C081E0B2CF83E0B0CF7D
:104540001F920F920FB60F9211242F933F934F9308
:104550005F936F937F938F939F93AF93BF93CF930B
:10456000DF93EF93FF93D091E900DF708091EC002F
:10457000C82FC17080FDC0E81092E9008091F00062
:10458000877F8093F00078940E94E4221092E900E3
:104590008091F00088608093F000CD2BCF70C093A5
:1045A000E900FF91EF91DF91CF91BF91AF919F9182
:1045B0008F917F916F915F914F913F912F910F90CC
:1045C0000FBE0F901F901895AAE2B0E0EAEEF2E25B
:1045D0000C94842482EE92E0FC0101962091F1007B
:1045E000208322E08A3E9207B9F70E94511E8091F3
:1045F000E80083FF1EC18091E2029091E3029A30AD
:1046000008F017C1E92FF0E0E059F94D0C946F2440
:10461000803899F0823809F00CC18091E6028F70E1
:10462000873008F006C18093E9008091EB0085FB9C
:10463000882780F91092E90006C08091DE029091EF
:10464000DF02911182609091E800977F9093E800DB
:104650008093F1001092F1008091E8008E77E5C020
:10466000882309F4D3C0823009F0E3C08091E402CA
:104670008111D6C08091E6028F702FEF280F26306F
:1046800008F0D7C08093E9002091EB0020FFC8C05C
:10469000933031F48091EB0080628093EB00C0C0D6
:1046A0009091EB0090619093EB0021E030E001C02D
:1046B000220F8A95EAF72093EA001092EA0080918F
:1046C000EB008860EACF8111B4C01091E4021F773B
:1046D0008091E3008078812B8093E3008091E80053
:1046E000877F8093E8000E9401218091E80080FF8D
:1046F000FCCF8091E30080688093E30082E0111199
:1047000083E08093E10295C08058823008F091C028
:104710008091E4029091E5028C3D23E09207A1F59F
:1047200083E08A838AE289834FB7F894DE01139687
:1047300020E03EE051E2E32FF0E050935700E49197
:1047400020FF03C0E295EF703F5FEF708E2F90E087
:10475000EA30C0F0C7968D939D932F5F243159F7AF
:104760004FBF8091E800877F8093E8006AE270E0A5
:10477000CE0101960E9418208091E8008B778093EB
:10478000E80057C0C096E7CF6091E6027091E7025B
:10479000AE014F5F5F4F0E94521FBC01892B09F48D
:1047A00048C08091E800877F8093E80089819A81E2
:1047B0000E947220E1CF8038E1F58091E800877F88
:1047C0008093E8008091DD028093F10045CF811154
:1047D00030C09091E402923060F58091E800877FCC
:1047E0008093E8009093DD020E9401218091DD0218
:1047F000882311F084E005C08091E30087FDFACFA3
:1048000081E08093E1020E94371E13C08091E40290
:10481000813079F481E0933009F080E08093DF0209
:104820001092E9008091E800877F8093E8000E9461
:1048300001218091E80083FF0AC08091E800877F12
:104840008093E8008091EB0080628093EB00AA9651
:10485000E3E00C94A0240895CF938091E102882393
:10486000A1F0C091E900CF709091EC00892F817088
:1048700090FD80E8C82B1092E9008091E80083FD4C
:104880000E94E422CF70C093E900CF910895AA1B43
:10489000BB1B51E107C0AA1FBB1FA617B70710F02B
:1048A000A61BB70B881F991F5A95A9F7809590955D
:1048B000BC01CD01089597FB072E16F4009407D094
:1048C00077FD09D00E94472407FC05D03EF490955F
:1048D00081959F4F0895709561957F4F0895EE0FD4
:1048E000FF1F0590F491E02D09942F923F924F9273
:1048F0005F926F927F928F929F92AF92BF92CF9270
:10490000DF92EF92FF920F931F93CF93DF93CDB778
:10491000DEB7CA1BDB0B0FB6F894DEBF0FBECDBFF0
:1049200009942A88398848885F846E847D848C84C1
:104930009B84AA84B984C884DF80EE80FD800C81CA
:104940001B81AA81B981CE0FD11D0FB6F894DEBFAD
:104950000FBECDBFED0108950F931F93CF93DF934B
:104960009C01029710F422E030E0E091EC02F0911B
:10497000ED0290E080E0B0E0A0E0309791F4009785
:1049800009F445C0821B930B84309105B8F58A81E8
:104990009B816115710569F1FB0193838283FE019F
:1049A00011C0408151810281138142175307F0F0F9
:1049B0004217530799F4109761F012960C931297CF
:1049C00013961C933296CF01DF91CF911F910F91D7
:1049D00008950093EC021093ED02F4CF009719F0C4
:1049E0004817590718F4CA01BD01EF01DF01F801AA
:1049F000C4CF9093ED028093EC02D1CFFE01E80F7B
:104A0000F91F21933193029799838883DCCF80919A
:104A1000EA029091EB02892B41F48091020190917E
:104A200003019093EB028093EA0280910001909140
:104A30000101009741F48DB79EB740910401509158
:104A40000501841B950B4091EA025091EB02481737
:104A5000590708F0B8CF841B950B8217930708F409
:104A6000B2CFB9016E5F7F4F8617970708F4ABCFBF
:104A7000640F751F7093EB026093EA02FA012193B1
:104A80003193A1CFCF93DF939C010097E9F0FC0114
:104A9000329713821282C091EC02D091ED02DE01B6
:104AA00090E080E02097A1F480819181280F391F48
:104AB0008091EA029091EB028217930709F067C098
:104AC000F093EB02E093EA02DF91CF910895DA01CF
:104AD000AE17BF0708F041C012964D915C91139735
:104AE000CD014115510599F7DC011396FC93EE9326
:104AF00012974D915D91A40FB51FEA17FB0781F442
:104B0000208131812E5F3F4F240F351FDC0111962C
:104B10003C932E932281338113963C932E931297CC
:104B2000B0E0A0E08A819B810097B1F5FE01819100
:104B30009191E80FF91F8091EA029091EB028E1794
:104B40009F0711F6109759F51092ED021092EC02A2
:104B5000D093EB02C093EA02B7CFB383A283408124
:104B60005181240F351FA217B30771F44E5F5F4FB9
:104B70002D913C911197420F531F51834083129600
:104B80002D913C9133832283009709F0ADCFF093B0
:104B9000ED02E093EC0298CFDE01EC01C3CF139657
:104BA0001C921E921297D4CFFB01DC0104C08D91A0
:104BB0000190801921F441505040C8F7881B990B8F
:104BC0000895F999FECF92BD81BDF89A992780B5D5
:104BD0000895A6E1B0E044E050E00C942B26A8E153
:104BE000B0E042E050E00C942B26DC01A40FB51F8E
:104BF0004150504048F0CB01840F951F2E910E94E8
:104C0000062641505040D0F70895262FF999FECF3F
:104C100092BD81BDF89A019700B4021639F01FBA0F
:104C200020BD0FB6F894FA9AF99A0FBE089503962C
:104C3000272F0E9406260E940526252F0E94062661
:104C4000242F0C9406260196272F0E9406260C94EA
:104C50000526DC01CB01FC01F999FECF06C0F2BDAF
:104C6000E1BDF89A319600B40D9241505040B8F72A
:104C70000895F894FFCFAB09AB09FD09FD09610A5E
:104C80007D0ADA09DA09820AF50A040B040BD9183D
:104C90004D19E118AB18AF18E518B318E918F51855
:104CA000BF184619C318F918C718FD182519CB18CD
:104CB00001192C19D11807190F19B718ED18BB18BD
:104CC000F118D5180B191B1935194419A518DD1839
:104CD0005419071A0D1AF719011A131A191A1F1A5B
:104CE000082330231924302319246323842319240F
:044CF000DB23E723B8
:104CF4000000EE02200020003A023C0714283C0782
:104D040014B21DE71DE01DD91D01E200E900EA000F
:104D1400B500B600B700CD008301CC008A01920132
:104D240094012102230224022502260227022A02D8
:104D3400B300B4006F0070009F01CB019F02A0027A
:104D4400E200E900EA00B500B600B700CD00830137
:104D5400CC008A019201940121022302240225023B
:104D6400260227022A02B300B4006F0070009F01DC
:104D7400CB019F02A00244476DA4065D06F0059C8A
:064D840005B505CE050097
:00000001FF
