:100000000C946F030C948C030C948C030C948C0351
:100010000C948C030C948C030C948C030C948C0324
:100020000C948C030C948C030C9457300C942A3150
:100030000C94C6260C948C030C948C030C948C03A7
:100040000C948C030C948C030C948C030C948C03F4
:100050000C948C030C9427270C948C030C948C0325
:100060000C948C030C948C030C948C030C948C03D4
:100070000C948C030C948C030C948C030C948C03C4
:100080000C948C030C948C030C948C030C948C03B4
:100090000C948C030C948C030C948C030C948C03A4
:1000A0000C948C030C948C030C948C0307634236E1
:1000B000B79BD8A71A39685618AEBAAB558C1D3CF9
:1000C000B7CC5763BD6DEDFD753EF6177231BF00BD
:1000D0000000803F05A84CCDB2D44EB93836A902F5
:1000E0000C50B9918688083CA6AAAA2ABE00000036
:1000F000803F2E0003510451E100E30000001E0088
:10010000140004001D61E20002511F001A001600D5
:100110001B0000002A00200008000700060000075E
:100120002C00210015000900190029004A002200B6
:1001300017000A00050000006564E15C350200005C
:10014000000F0000E300E25C30000000000F000040
:10015000E20023001C000B00110000002900240015
:1001600018000D00100029004B0025000C000E00A7
:10017000360000072800260012000F00370000009C
:100180002B002700130033003861E60002512D00D8
:1001900031003400E500E70000000100010001002B
:1001A000E100010000000100010001000100010068
:1001B0000100010001000100010001000100010037
:1001C0000100010001000100010001000100010027
:1001D0000100010001000100010001000100000018
:1001E00001000100310000000100000001000100D9
:1001F00030000000010000000100010001000100CA
:1002000001000000010001000100010001000100E7
:1002100001000100010001000100010001000100D6
:100220000100010001000100010001001300330082
:1002300001000100010001002F003400E500010071
:1002400000000100010001000100DE5C00003A0036
:100250001E0236020100010001003B001F022F00B8
:1002600001000100C95C3C0020022F02380201009D
:10027000CA5C3D00210226023502010001003E0059
:100280002202350001000000C35C3F0001000000B5
:100290000100000001000100010000000100000059
:1002A000C25C40002302005701000000E05C4100F6
:1002B00024022702015701000100420025023002FA
:1002C00001000100C55C43002D0030000100010069
:1002D000C65C44002E023702010001000100450007
:1002E0000100010001000100000001000100010007
:1002F00001000100000001000100010001000100F7
:1003000001000100010001000100010001000100E5
:100310000100010001000100F400010001000100E2
:1003200001000100010001000100010001000000C6
:1003300001000100010000000100000001000100B7
:100340000100000001000000010001000100F200B6
:100350000100000001000100F400F100FB00A90011
:1003600001000100F600F000FC00AA0001000100FD
:10037000F500F3000000A80001000100FA00F900F8
:1003800001000100010001000100AE0001000100B8
:100390000000010001000100010001000000010057
:1003A0000100010001000100010001000100010045
:1003B0000100010001000100010001000100010035
:1003C0000100010001000100010001000100010025
:1003D0000100010001000000010001000100000017
:1003E0000100000001000100010000000100000008
:1003F000010001004A00500001000000010001005E
:100400004E00510001000100010001004B005200AC
:1004100001000100010001004D004F00010001003A
:1004200001000100010001000100010001000100C4
:100430000100010001000100000000047F3F1F6473
:100440003214643214783C1E1E140A056801F00050
:10045000B40078005A000000000000010101010111
:10046000010101010202020202020202020303036D
:10047000030303030304040404040405050505053C
:1004800006060606060707070708080808090909F7
:100490000A0A0A0A0B0B0B0C0C0C0D0D0D0E0E0F9D
:1004A0000F0F101011111112121313141415151629
:1004B000161717181819191A1A1B1C1C1D1D1E1F98
:1004C0001F20202122222324252526272728292AE8
:1004D0002B2B2C2D2E2F2F3031323334353636370F
:1004E00038393A3B3C3D3E3F404142434446474811
:1004F000494A4B4C4D4F50515253555657585A5BE1
:100500005C5E5F606263646667696A6C6D6E707181
:1005100073747678797B7C7E8081838486888A8BED
:100520008D8F91929496989A9B9D9FA1A3A5A7A920
:10053000ABADAFB1B3B5B7B9BBBDBFC1C4C6C8CA17
:10054000CCCFD1D3D6D8DADCDFE1E4E6E8EBEDF0CE
:10055000F2F5F7FAFCFF0403300000001603450033
:10056000720067006F0044006F00780020004500B3
:100570005A00000016034500720067006F00440037
:100580006F007800200045005A00000004030904B1
:1005900009023B00020100A0FA0904000001030166
:1005A0000100092111010001224000070581030813
:1005B000000A0904010001030000000921110100E3
:1005C0000122C0000705820320000A120110010069
:1005D000000008EDFE0713010001020301050109F7
:1005E00002A10185020901A10005091901290515CA
:1005F00000250195057501810295017503810105AD
:1006000001093009311581257F9502750881060998
:10061000381581257F950175088106050C0A380279
:100620001581257F950175088106C0C005010980E7
:10063000A10185031601002603001A81002A830008
:10064000751095018100C0050C0901A101850416F2
:100650000100269C021A01002A9C02751095018156
:1006600000C005010906A1018505050719E029E774
:100670001500250195087501810205081901290554
:100680009505750191029501750391010507190002
:1006900029EF1500250195F075018102C0050109BA
:1006A00006A101050719E029E71500250195087540
:1006B0000181029501750881010508190129059537
:1006C000057501910295017503910105071900292E
:1006D000FF150026FF00950675088100C000112453
:1006E0001FBECFEFDAE0DEBFCDBF12E0A0E0B1E089
:1006F000ECE3FEE602C005900D92A436B107D9F7EF
:1007000024E0A4E6B2E001C01D92AC34B207E1F7E8
:100710000E94862D0C94A8360C94000080B38C7037
:1007200080BB81B3836F81BB089584B1807F84B91E
:1007300085B1807F85B98AB1837F8AB98BB1837F88
:100740008BB93E9846980895CF93C82F873080F58F
:100750008091000190910101892BA9F564E670E078
:1007600080E40E9418059093010180930001892B79
:10077000D1F464E670E082E10E9474059093010177
:1007800080930001892B79F481E090E001C0880F0B
:10079000CA95EAF764E670E080950E94740590932C
:1007A00001018093000184E690E0CF910C94C7058D
:1007B0008B30C9F050F4893081F08A3089F088306C
:1007C00049F0209A2898CF9108958C3079F4539A63
:1007D0005B98F9CF219A2998F6CF229A2A98F3CFDD
:1007E000239A2B98F0CF529A5A98EDCF3E9A46987A
:1007F000EACF08950C94F903CF93DF930E946B0620
:1008000090E090930101809300010E9495030E9463
:100810008E03E7ECF2E0A9EBB2E090E080E0119209
:100820001D92EC01CB59DD4F26E019922150E9F7DA
:1008300006968435910599F7DF91CF910C940C08B9
:100840000E946B0690E090930101809300010E944A
:1008500095030E948E03E7ECF2E0119282E0E53D01
:10086000F807D9F70895CF93DF93E62FF0E0E75428
:10087000FD4F40814827808386E0689FF001112466
:10088000EB59FD4F30E020E080E061E070E050E0A7
:10089000AAE0B22F91919923B9F0EF0121979150DD
:1008A0009883EA0102C0D595C795BA95E2F7C0FFD3
:1008B00003C0EF012197A8832F5F3F4F26303105FA
:1008C00041F7DF91CF910895EB01022E01C0CC0FCB
:1008D0000A94EAF78C2BE5CFCF93DF93D82F87309C
:1008E00008F050C08091000190910101C0E0892B77
:1008F00081F464E670E080E40E94180590930101A1
:1009000080930001892BB1F0C0E084E690E00E9462
:10091000C7056D2F8C2F0E943304282FED2FF0E098
:10092000E953FD4F8095908189232C23822BDF9101
:10093000CF91089564E670E083E10E94740590937E
:10094000010180930001892BF9F664E670E081E4EF
:100950000E9418059093010180930001892BA1F654
:1009600084E690E00E94A30597FF05C090930101E3
:1009700080930001C9CFC82FC09510920101109239
:100980000001C3CFCFB12FB1269526952C73C3702C
:100990002C2BC22FC095BDCF0F931F93CF93DF9306
:1009A0008091000190910101892B91F08091640266
:1009B0008F5F8093640281110BC00E946B0690E0F0
:1009C0009093010180930001892B11F40E94150678
:1009D00007EC12E0C0E08C2F0E94A403D7E0DC0FEC
:1009E0008D2F0E94A4038C2F0E946C04F801819328
:1009F0008F018D2F0E946C04F80186830E9495035D
:100A0000CF5FC73041F70E94140881E0DF91CF919A
:100A10001F910F910895E82FF0E0E953FD4F808179
:100A2000089508951092B9008CE08093B80008955D
:100A3000EF92FF920F931F93CF93DF93182FEB0149
:100A40001092BC0084EA8093BC000E94F6267C01D0
:100A50008091BC0087FF27C08091B900887F8830D3
:100A600029F08091B900887F8031D9F51093BB00BF
:100A700084E88093BC000E94F6268C018091BC0023
:100A800087FF24C02091B900287F90E080E02831C2
:100A9000B1F081E090E0203411F490E080E0919595
:100AA000819591090CC0CF3FDC0791F20E94F62698
:100AB0008E199F098C179D0758F28EEF9FEFDF91DB
:100AC000CF911F910F91FF90EF900895CF3FDC07DA
:100AD000A9F20E94F626801B910B8C179D0770F2DD
:100AE000ECCF8FEF9FEFEBCF0F931F93CF93DF935D
:100AF000EB018093BB0084E88093BC000E94F62643
:100B00008C018091BC0087FF11C02091B900287F23
:100B100081E090E0283211F490E080E09195819599
:100B20009109DF91CF911F910F910895CF3FDC077D
:100B300041F30E94F626801B910B8C179D0708F34A
:100B40008EEF9FEFEECF0F931F93CF93DF93EC01C8
:100B500084E88093BC000E94F6268C018091BC0042
:100B600087FF08C08091BB0090E0DF91CF911F917B
:100B70000F910895CF3FDC0789F30E94F626801B72
:100B8000910B8C179D0750F38EEF9FEFEECF0F93D5
:100B90001F93CF93DF93EC0184E98093BC000E9404
:100BA000F6268C018091BC0084FD07C090E080E0B7
:100BB000DF91CF911F910F910895CF3FDC0791F303
:100BC0000E94F626801B910B8C179D0758F38EEF21
:100BD0009FEFEECF259A2D9A0895269A2E9A089582
:100BE000279A2F9A089556985E98089525982D98DB
:100BF000089526982E98089527982F9808950E9472
:100C0000F3050E94F6050E94F9050C94FC0590E09E
:100C1000909389008093880090938B0080938A0042
:100C200090938D0080938C0008950E94FF058FEFB4
:100C30000E9407060E94EA052FEF80E792E021500C
:100C400080409040E1F700C000000E94ED052FEFCA
:100C500080E792E0215080409040E1F700C0000022
:100C60000E94F0052FEF80E792E0215080409040F5
:100C7000E1F700C000000E94F6052FEF80E792E048
:100C8000215080409040E1F700C000000E94F9052B
:100C90002FEF80E792E0215080409040E1F700C0C4
:100CA00000000E94FC050C94FF0589EA80938000F7
:100CB00089E08093810024982C983F988AB18F7C9A
:100CC0008AB96E98479A8BB180638BB9769A0E94E5
:100CD00015060C94550780E290E0909301018093F3
:100CE00000018091D50281110EC00E94120581E0A1
:100CF0008093D5022FEF83ED90E321508040904008
:100D0000E1F700C0000064E670E080E40E9418058E
:100D10009093010180930001892B09F050C064E693
:100D200070E080E00E9474059093010180930001BF
:100D3000892B09F044C064E670E080E00E947405ED
:100D40009093010180930001892BC9F564E670E05E
:100D50008FE30E9474059093010180930001892B19
:100D600071F584E690E00E94C70564E670E080E4D7
:100D70000E9418059093010180930001892BF9F4DA
:100D800064E670E08CE00E9474059093010180930A
:100D90000001892BA1F464E670E080E00E947405F4
:100DA0009093010180930001892B49F464E670E07F
:100DB0008FE30E947405909301018093000184E603
:100DC00090E00E94C705809100010895CF939C0197
:100DD000FB01223E8CE5380709F445C050F4203E63
:100DE0008CE5380709F459C0213E3C4529F1C1E0A2
:100DF00037C0233E3C45D9F7C281CC2309F448C013
:100E0000E091A001F091A1018081C82FC27081FD05
:100E10003CC080E190E09093D7028093D60282E0BC
:100E20000E94D11A8091D6020E948719CC2339F0F2
:100E300082E00E94CA1A03C0C281CC2311F0C0E034
:100E40000FC081E00E9490228FE00E94CA1A8EE2B9
:100E50000E9487198EE20E94741A8FE00E94D11AB4
:100E60008C2FCF910895C281C111E9CF81E00E94FA
:100E7000C1228FE00E94CA1A8DE29FE60E94DE071F
:100E80008DE29FE60E94F307E8CF80E390E0C3CFB6
:100E90008091D6020E94741AE3CF8281882309F4DC
:100EA000A6CF81E00E94C911CACF08950F931F9366
:100EB000CF93DF938B01D82FC92F0E94F3050E9497
:100EC000F6050E94F9050E94FC05B8018D2F9C2FA4
:100ED0000E942A25E82F883038F4F0E0E655F94CD6
:100EE0000C944D360E94ED11B8018D2F9C2FDF918F
:100EF000CF911F910F9108950E94EA05F5CF0E94AE
:100F0000EA050E94ED05F0CF0E94EA050E94F00577
:100F1000EBCF0E94EA050E94ED05F8CF0F931F93D7
:100F2000CF93DF938C01EB019A9581159F4138F5A2
:100F300010FF03C080EEFB01099511FF03C081EE95
:100F4000FE01099512FF03C082EEFE01099513FF11
:100F500003C083EEFE0109950115104180F084EE77
:100F6000FE01099585EEFE01099586EEFE010995C3
:100F700087EEFE01DF91CF911F910F910994DF91D0
:100F8000CF911F910F910895982F977081E001C024
:100F9000880F9A95EAF70E94FF240C94B5240C94CC
:100FA000C407982F977081E001C0880F9A95EAF7DF
:100FB0000E9405250C94B5240C94D107CF93DF93A0
:100FC000EC01805E9109089720F064EC77E02097AF
:100FD00011F46FEC77E0CE010E948E078C2FDF9129
:100FE000CF910C948719CF93DF93EC010E94741A70
:100FF000CE01805E9109089720F061ED77E020979F
:1010000011F46CED77E0CE01DF91CF910C948E0757
:1010100081E008950C94E6060E947525811102C0B6
:101020000E94E3250C9455060E9490170C94FA0335
:10103000282F2F7041F0822F90E02A3010F44D9627
:1010400008950697089587E290E0089508950C9416
:1010500026080C94270808950E941B1E0E942B0846
:101060002FEF84E39CE0215080409040E1F700C0E6
:1010700000000C944B27EF92FF920F931F93CF9396
:10108000DF9300D000D0CDB7DEB789839A83A981E2
:10109000BA81ED90FC90119780912403811160C07A
:1010A00012968C91882309F456C0C7010E94F92337
:1010B000182F682FC7010E94A023B701812F0E941B
:1010C000290B8C0169817A810E94F11669817A81EC
:1010D000C8010E940A08882309F471C069817A81D5
:1010E000C8010E943617882309F469C069817A8192
:1010F000C8010E94A00D882309F461C00E3DBCE523
:101100001B07B0F4023CECE51E0778F50531FCE561
:101110001F07A8F502308CE5180708F099C10115E2
:101120009CE5190709F445C001301C4509F453C07A
:1011300081E08093DD028093DE0289819A810F90A5
:101140000F900F900F90DF91CF911F910F91FF9013
:10115000EF900C940808C7010E94CF23182FADCF41
:10116000C7010E94F923B701AACFF801E25CFC4550
:10117000EC31F105E8F6EE54F94C0C944D3606319D
:101180001C45B1F60E94E824A981BA8112969C916F
:10119000992309F450C28A7A91E009F490E090937F
:1011A000D802811146C289E20E9471240E94B524AE
:1011B00006C0E981FA81828181110E942C0880E0B9
:1011C0000F900F900F900F90DF91CF911F910F9183
:1011D000FF90EF900895A981BA8112968C9188238F
:1011E00071F38091C30381608093C303E8CFE981E9
:1011F000FA818281882319F30E94E325E0CFA98137
:10120000BA8112968C918823D1F20E944812D7CFCE
:10121000E981FA818281882391F20E94E824827216
:1012200069F00E94D611CBCFA981BA8112968C9118
:10123000882329F20E94E824827299F30E94CC113B
:10124000BECFE981FA818281882309F4B8CF0E9458
:10125000DD10B5CFA981BA8112968C91882309F44B
:10126000AECF0E94F510ABCFE981FA81828188234D
:1012700009F4A5CF0E941411A2CFA981BA811296B8
:101280008C91882309F49BCF0E94261198CFE98185
:10129000FA818281882309F492CF0E9438118FCF7E
:1012A000A981BA8112968C91882309F488CF0E9473
:1012B000501185CFE981FA818281882309F47FCF9B
:1012C0000E94870F7CCFA981BA8112968C918823C6
:1012D00009F475CF0E94AE0F72CFE981FA81828145
:1012E000882309F46CCF81E00E94C91168CFA981DD
:1012F000BA8112968C91882309F461CF0E94630F02
:10130000623071058105910540F00E94630F6530E0
:1013100071058105910508F491CF82E0E5CFE9815F
:10132000FA818281882309F44ACF0E94630F6630D4
:1013300071058105910540F00E94630F68307105C9
:101340008105910508F47ACF86E0CECFA981BA81D4
:1013500012968C91882309F432CF0E94630F693072
:1013600071058105910540F00E94630F6E30710593
:101370008105910508F462CF89E0B6CFE981FA8151
:101380008281882309F41BCF0E94630F6F3071059F
:101390008105910540F00E94630F6431710581055C
:1013A000910508F44BCF8FE09FCFA981BA811296A7
:1013B0008C91882309F403CF0E94630F6531710576
:1013C0008105910540F00E94630F67317105810529
:1013D000910508F433CF85E187CFE981FA818281D5
:1013E000882309F4ECCE88E17FCFA981BA811296D7
:1013F0008C91882309F4E3CE0E94630F6931710553
:101400008105910540F00E94630F623271058105EC
:10141000910508F413CF89E167CFE981FA818281D0
:10142000882309F4CCCE83E25FCFA981BA811296DA
:101430008C91882309F4C3CE80E00E94272EBFCE72
:10144000E981FA818281882309F4B9CE82E0F5CF5F
:10145000A981BA8112968C91882309F46ECE0E94DC
:101460007525811102C00E94E3250E94882590E025
:1014700090933E0480933D04F801E350FC45809135
:101480003D048160E231F10538F4E253F94C0C94EB
:101490004D3680913D04826080933D0480913D04EF
:1014A0000E948C250E941B1E8ACE80913D04846080
:1014B000F3CF80913D048860EFCF80913D0480613F
:1014C000EBCF80913D048062E7CF80913D04806442
:1014D000E3CF80913D048068DFCF80913D048C6034
:1014E000DBCF80913D048E7FD7CF80913D048D7FEF
:1014F000D3CF80913D048B7FCFCF80913D04877FF8
:10150000CBCF80913D048F7EC7CF80913D048F7DEE
:10151000C3CF80913D048F7BBFCF80913D048F77F7
:10152000BBCF80913D04837FB7CF90913D04892F3D
:1015300097FB87F98058B0CFE981FA8182818823AF
:1015400061F01092DD020E94F6269093DA028093F9
:10155000D90282E00E94CA1A32CE0E94E82485FF96
:1015600009C081E08093DD028093DE0282E00E9468
:10157000D11A25CE8091DD028111F8CF8091D90258
:101580009091DA020E940227883C910578F786E262
:101590000E94871986E20E94741AE8CFA981BA8155
:1015A00012968C91882351F01092DE020E94F6264A
:1015B0009093DC028093DB0280E2CCCF0E94E8248F
:1015C00081FF07C081E08093DD028093DE0280E22C
:1015D000CECF8091DE028111FACF8091DB02909113
:1015E000DC020E940227883C910588F787E20E946E
:1015F000871987E20E94741AEACFE981FA81828111
:101600008111D2CF8091DE028111E1CF8091DB0286
:101610009091DC020E940227883C9105C0F680E28E
:101620000E94D11A88E20E94871988E20E94741AE7
:10163000C6CD85E3B9CD8091D802811104C089E27D
:101640000E947824B3CD85E3FBCF90E080E008953D
:101650000895972F70E026E0929F600D711D112470
:10166000FB0194E5899FE00DF11D1124EE0FFF1F92
:10167000EE50FF4F859194910895FC01EE0FFF1FEE
:10168000EE50FF4F859194910895CF93DF930E9480
:10169000290B0E94020DEC01811521E5920708F04B
:1016A00045C0811530E5930708F026C1883E9105B5
:1016B00020F5803E910508F068C0883A910580F4D5
:1016C000853A910508F0A1C08130910509F45DC00B
:1016D0000497813A910508F458C0D0E0C0E055C0A5
:1016E0008F3B910508F49CC0805C91098032910584
:1016F000A0F70E943D0BEC0148C08115904370F4A7
:10170000C11580E2D80708F0EAC0CF3FD10509F043
:10171000E0F5C03FD10508F3D06537C0C11590E4AE
:10172000D90708F4DFC0DF70D06A2FC0811526E525
:10173000920778F5811535E5930708F00FC18115FB
:1017400044E59407F0F4C11583E5D80708F0F2C02A
:10175000C11592E5D90708F4E8C0CE018370992736
:1017600021E030E002C0220F331F8A95E2F7C695D0
:10177000C69540E2C49FE0011124C22BD32BDC6844
:1017800004C0D82FCC27C46FD06ACE01DF91CF918F
:101790000895C1158CE5D80728F5C1159BE5D90733
:1017A00008F0E2C0C11529E5D20750F4C11538E5AB
:1017B000D30708F492CFDC2FCC27C06FD06AE5CFD7
:1017C000CE0199558F3F910511F008F086CFCE01DB
:1017D00034E0969587953A95E1F78F70CF70C06E9B
:1017E000D82FA2CFCE0190568115904208F075CF28
:1017F0008D2F8F710E947D0D90E0982F882788276C
:101800009F719C012C2BE901ADC0853A910509F42B
:10181000AEC0863A910509F0ADC0C2E8D0E4B5CFBC
:10182000883A910509F4A9C0893A910509F4A8C03C
:101830008A3A910509F4A7C08B3A910509F4A6C02C
:101840008C3A910509F4A5C08B3B910509F4A4C01D
:101850008C3B910509F4A3C08D3A910509F4A2C00F
:10186000803B910509F4A1C08E3A910509F4A0C00E
:101870008F3A910509F49FC0813B910509F49EC000
:10188000823B910509F49DC0833B910509F49CC0FE
:10189000843B910509F49BC0853B910509F49AC0EE
:1018A000863B910509F499C0873B910509F498C0DE
:1018B000883B910509F497C0893B910509F496C0CE
:1018C0008D3B910509F495C08E3B910509F494C0B8
:1018D0008A3B910509F493C0C0E0D4E456CFCE0111
:1018E0009F7007CFCE019927D3FF03C0EC01D86CBE
:1018F0004CCFEC01D06C49CF74E0969587957A95E2
:10190000E1F783702C2F26952695237090E2299F6E
:1019100090011124382B8C2F8370C1E0D0E002C0DD
:10192000CC0FDD1F8A95E2F728CFDC2FCC27C16FC3
:10193000D06A2BCFCE018370992721E030E002C01E
:10194000220F331F8A95E2F7C695C69540E2C49FE1
:10195000E0011124C22BD32BDA6817CFD82FCC2764
:10196000CC27DF71D06211CFDD27D0660ECFC1E862
:10197000D0E40BCFC3E8D0E408CFC2EED4E405CF67
:10198000C9EED4E402CFCAEED4E4FFCEC5EBD4E472
:10199000FCCEC6EBD4E4F9CEC3EBD4E4F6CEC4EB74
:1019A000D4E4F3CEC7EBD4E4F0CECCECD4E4EDCE6B
:1019B000CDECD4E4EACEC3E8D5E4E7CECAE8D5E47A
:1019C000E4CEC2E9D5E4E1CEC4E9D5E4DECEC1E29D
:1019D000D6E4DBCEC3E2D6E4D8CEC4E2D6E4D5CE9C
:1019E000C5E2D6E4D2CEC6E2D6E4CFCEC7E2D6E494
:1019F000CCCECFE6D4E4C9CEC0E7D4E4C6CECAE2AA
:101A0000D6E4C3CE803E910581F1C8F481339105BF
:101A100009F462C048F48932910509F456C08A324B
:101A2000910509F460C0089589339105B9F08238B1
:101A30009105A1F08533910509F440C00895863ED3
:101A4000910561F138F4823E9105B1F0833E910534
:101A5000E1F00895873E910551F1089520913D04EC
:101A60002370D9F080EE90E0089520913D0420FF8E
:101A700014C089E390E0089520913D0422FF0DC039
:101A800024FD09C083EE90E0089520913D0422FDDD
:101A900031C024FF02C090E080E0089520913D0411
:101AA00023FFFBCF24FDF7CF87EE90E00895209130
:101AB0003D0423FFEECF86EE90E0089520913D0493
:101AC00025FFEBCF89E290E0089520913D0425FFAA
:101AD000E4CF85E390E0089520913D0426FFDDCF1B
:101AE0008AE290E0089520913D0426FFD6CF81E35D
:101AF00090E0089582EE90E0089590913D0492FF69
:101B000006C0282F2871283069F4877F846093FFEE
:101B100006C0282F2871283161F4877E846194FDE6
:101B2000877E0895282F2471243089F78B7F886061
:101B3000EECF282F2471243191F78B7E8861EFCF6F
:101B4000CF93DF93EC01FB01C13080E8D80768F048
:101B50008281882351F00E94B90D0E94C70DCE01E9
:101B60009F770E948F0E0E94420E81E0DF91CF91FD
:101B700008958091DF02811109C08CE090E00E94FD
:101B800060368093E00281E08093DF020895E09167
:101B9000A001F091A10180818093F50381FF03C032
:101BA00081EE0E94741A8091F50385FF03C085EED3
:101BB0000E94741A8091F50380FF03C080EE0E949A
:101BC000741A8091F50384FF03C084EE0E94741A96
:101BD0008091F50382FF03C082EE0E94741A809107
:101BE000F50386FF03C086EE0E94741A8091F50308
:101BF00083FF03C083EE0E94741A8091F50387FF70
:101C000003C087EE0E94741A8091E002823039F19D
:101C100030F4811111C082EE0E94871904C0843013
:101C200031F1853039F08FE39CE90197F1F700C07D
:101C30000000089586EEF0CF80EE0E94871981EEB5
:101C40000E94871988E10E94871988E10E94741A0E
:101C500081EE0E94741A80EE0E94741AE4CF82EE24
:101C60000E94871987E50E94871987E5F5CF86EEE0
:101C70000E94871986EE0E94741A88E10E948719D3
:101C800088E1EACF8091E002823019F030F48111CE
:101C900040C082EE0E94741A02C08530C1F180916A
:101CA000F50381FF03C081EE0E9487198091F5033F
:101CB00085FF03C085EE0E9487198091F50380FFA0
:101CC00003C080EE0E9487198091F50384FF03C052
:101CD00084EE0E9487198091F50382FF03C082EE93
:101CE0000E9487198091F50386FF03C086EE0E944B
:101CF00087198091F50383FF03C083EE0E94871943
:101D00008091F50387FF0AC087EE0C94871986EE51
:101D1000C1CF8CE20E9487198CE2BCCF0895EF926C
:101D2000FF921F93CF93DF937C01CCE0D0E0C701FB
:101D30000C2E02C0969587950A94E2F7182F1F7013
:101D4000812F0E9418080E948719812F0E9418086D
:101D50000E94741A2497CC3F8FEFD80741F7DF9188
:101D6000CF911F91FF90EF900895AF92BF92CF92C5
:101D7000DF92EF92FF920F931F93CF93DF937C013B
:101D8000E901842F242F662309F43FC0C42ED12CEF
:101D90008FEF90E0861B9109489F8001499F100DAD
:101DA0001124212F812F9927C81AD90A9CE3A92E23
:101DB000B12CC701B5010E942536FB01BC01C69EAE
:101DC000C001C79E900DD69E900D1124B5010E94B2
:101DD0002536E330F10509F443C080EFE816F1043D
:101DE00068F4E130F10591F13297A1F18CE3E81646
:101DF000F10440F180E020E040E007C0E430F1056C
:101E000099F1842F861B3597A9F7E42FF0E0EA5A61
:101E1000FB4F4491E22FF0E0EA5AFB4F9491E82FF8
:101E2000F0E0EA5AFB4FE49149839883EA83DF911B
:101E3000CF911F910F91FF90EF90DF90CF90BF90C7
:101E4000AF900895812F262F210FDFCF812F242FD0
:101E5000461BDBCF862F810FE42F412F2E2FD5CFAE
:101E6000E42FE61B842FF9CF842F462F410FCDCFCF
:101E700088E090E00C946836AB01BC0188E090E00B
:101E80000C948636CF93DF9300D000D0CDB7DEB769
:101E9000E6EFF3E083E0808311828FEF8283838318
:101EA000148280819181A281B38189839A83AB83DB
:101EB000BC83BC01CD010F900F900F900F90DF916C
:101EC000CF910C943C0FCF93DF9300D000D0CDB7CF
:101ED000DEB78091F60380FF15C086958F73282F9B
:101EE00030E050E040E029833A834B835C83698192
:101EF0007A818B819C810F900F900F900F90DF91D2
:101F0000CF91089519821A821B821C82F0CFCF9341
:101F1000DF9300D000D0CDB7DEB78091FA0390E018
:101F200001968430910514F083E090E08093FA03E9
:101F30008091F6039091F703A091F803B091F90313
:101F400089839A83AB83BC83BC01CD010F900F9032
:101F50000F900F90DF91CF910C943C0FCF93DF93B4
:101F600000D000D0CDB7DEB78091FA038150990B35
:101F700097FF02C090E080E08430910514F083E088
:101F800090E08093FA038091F6039091F703A0917B
:101F9000F803B091F90389839A83AB83BC83BC01B6
:101FA000CD010F900F900F900F90DF91CF910C9477
:101FB0003C0F8091F603EBEFF3E080FF06C06FE08B
:101FC00070E08BEF93E00C94251611821082128240
:101FD000349684E0E733F807C1F7F1CF9091F60328
:101FE00090FF0CC0EBEFF3E0818360834283349673
:101FF00094E0E733F907C1F70C94D90F0895CF9314
:10200000DF9300D000D0CDB7DEB72091F60320FFDC
:102010000AC09E012F5F3F4F0E94B50E4B81698120
:102020008A810E94EE0F0F900F900F900F90DF911A
:10203000CF9108955F926F927F928F929F92AF920D
:10204000BF92CF92DF92EF92FF920F931F93CF93A5
:10205000DF93CDB7DEB728970FB6F894DEBF0FBE7B
:10206000CDBF8C01E62EF42E522E8091F60380FF18
:1020700032C0982F9E77923009F043C09E012F5FA7
:102080003F4FC8010E94B50E4B8169818A810E9431
:10209000EE0F8091F60300FB87F98093F603902FF3
:1020A00096958091F7038078892B10FB87F98093B0
:1020B000F703E092F803F092F903552061F0809164
:1020C000F6039091F703A091F803B091F903BC01D6
:1020D000CD010E943C0F28960FB6F894DEBF0FBECC
:1020E000CDBFDF91CF911F910F91FF90EF90DF90C7
:1020F000CF90BF90AF909F908F907F906F905F90A8
:102100000895E82FE695EF739EE39E0F9F7394303A
:1021100018F4F090F903BDCF9AE39E0F9F739930A6
:1021200068F4881F8827881F9091F703292F220FB2
:10213000022F082B97FB112710F9ABCF87E28E0FE8
:102140008F738A3008F0A5CFE951FF0B21E0E0FD45
:102150002FEFEE7FE45BFB4F859194916FE070E091
:102160000E94253626034001279F900C1124580118
:1021700088E9A81A8EEFB80A8BEFC82E83E0D82E14
:1021800098E6692E77247394C501B3010E94253621
:1021900096014F2D6E2D0E94B50EA80CB91C94E02F
:1021A000C90ED11CA7E3CA16A4E0DA0669F70E949B
:1021B000D90F6FCF21E00C941A10E6EFF3E02081E5
:1021C000221F2227221F3091F703432F440F842F11
:1021D000822B37FB992790F90C9668E671E00E94F4
:1021E0003936438162810C94DA102091F603221F64
:1021F0002227221F3091F703432F440F842F822B75
:1022000037FB992790F98C30910540F4845A9E4F02
:102210004091F9036091F8030C94DA100C9768E68A
:1022200071E00E943936F4CFE6EFF3E08081881F39
:102230008827881F9091F703292F220F97FB992752
:1022400090F943816FEF822B0C94DA10E6EFF3E004
:102250008081881F8827881F9091F703292F220FDC
:1022600097FB992790F9438160E0822B0C94DA1058
:102270004091F903443F90F4445F8091F603881F36
:102280008827881F9091F703292F220F97FB992702
:1022900090F96091F803822B0C94DA104FEFEDCF98
:1022A0004091F9034C3090F04C508091F603881F18
:1022B0008827881F9091F703292F220F97FB9927D2
:1022C00090F96091F803822B0C94DA1040E0EDCF86
:1022D00020E00C941A10CF93DF9300D000D0CDB73C
:1022E000DEB79091F60390FF4DC0917881113EC00A
:1022F00092609093F603662381F08091F6039091AB
:10230000F703A091F803B091F90389839A83AB8313
:10231000BC83BC01CD010E943C0F9091F6039983D0
:10232000692F66956F7370E04BE050E084E991E0AF
:102330000E945336892B11F11092FE02A981AA1F27
:10234000AA27AA1F9091F703892F880F97FB992737
:1023500090F94091F9036091F8038A2B0F900F9048
:102360000F900F90DF91CF910C946811853210F08F
:102370009864BFCF8F73880F982BBBCF81E0809379
:10238000FE02DCCF0F900F900F900F90DF91CF9156
:10239000089561E00C946B118091F60386958F731C
:1023A0008F5F853208F081E00C94C9119091F6039B
:1023B00096959F738FEF890F913009F484E20C9406
:1023C000C911E6EFF3E080818160808386958F7389
:1023D0000C94C91160E00C946B118091C30381606F
:1023E0008093C3030E947525811104C00E94E325D8
:1023F0000E94420F0E94380F6093F6037093F70318
:102400008093F8039093F9036E7761F40E94420F72
:102410000E94380F6093F6037093F7038093F803DC
:102420009093F90381E08093FE028091F60380FF90
:1024300004C086958F730C94EA110895CF93DF93AF
:1024400000D000D0CDB7DEB7E6EFF3E080818E7F1D
:10245000808380819181A281B38189839A83AB83B8
:10246000BC83BC01CD010E943C0F1092FE029FEF85
:10247000A0E7B2E09150A040B040E1F700C00000FA
:102480000F900F900F900F90DF91CF910C94D90F78
:102490008091F60380FD0C941E120C94E111CF93F1
:1024A000DF9300D000D0CDB7DEB789838091FC02E6
:1024B0009091FD020E9402274981E42FF0E0E85B41
:1024C000FB4FE491E817190611F008F081C00E9453
:1024D000F6269093FD028093FC028091FB02282F48
:1024E00030E050E040E029833A834B835C83CA01AB
:1024F000B9010E94263420E030E04FE753E46983BD
:102500007A838B839C8369817A818B819C810E94F1
:1025100049332BED3FE049E450E469837A838B83B0
:102520009C8369817A818B819C810E944F3569836C
:102530007A838B839C8369817A818B819C810E94C1
:10254000BC3569837A838B839C8369817A818B8193
:102550009C810E94C3332BE43AE34EE25FE369833C
:102560007A838B839C8369817A818B819C810E9491
:10257000DC3220EF3BEF48ED52E469837A838B83B2
:102580009C8369817A818B819C810E944F3569830C
:102590007A838B839C8369817A818B819C810E9461
:1025A000F533462F8091F603881F8827881F909166
:1025B000F703292F220F97FB992790F96091F803D1
:1025C000822B0E94FF0F8091FB028F5F8093FB02A2
:1025D0000F900F900F900F90DF91CF910895CF93B0
:1025E000C82F8091F9029091FA020E940227EC2FE5
:1025F000F0E0EB5BFB4FE491E817190609F0E8F413
:102600000E94F6269093FA028093F9024091F90312
:102610006091F8038091F7029091F8020E94FF0FF9
:102620008091F7029091F802019668E671E00E94AD
:1026300025369093F8028093F702CF910895CF92B8
:10264000DF92EF92FF921F93CF93DF93182F809129
:10265000F5029091F6020E940227E12FE695F0E044
:10266000EE5BFB4FE491E817190609F0C0F50E94F4
:10267000F6269093F6028093F5028BEFE82E83E026
:10268000F82ED0E0C0E098E6C92EDD24D3948091E6
:10269000F3029091F4028C0F9D1FB6010E94253623
:1026A00097014091F9036091F8030E94B50E689676
:1026B00084E0E80EF11CC83681E0D80741F70E949B
:1026C000D90F8091F3029091F40210FF10C001968F
:1026D000BE010E9425369093F4028093F302DF91AD
:1026E000CF911F91FF90EF90DF90CF9008950197C9
:1026F000F2CFCF92DF92EF92FF920F931F93CF937F
:10270000DF93C82FFF24FA9480FD02C0FF24F394C6
:102710008091F1029091F2020E940227C695EC2F5F
:10272000F0E0E15CFB4FE491E817190611F008F0C6
:1027300051C00E94F6269093F2028093F1020BEFB3
:1027400013E0D0E0C0E0F80111821082128294E020
:10275000C92ED12CE12C8091F0028E0D87FD815F76
:10276000082E000C990B8C179D07E9F48091F90352
:102770008C9DA0018D9D500D112455954795559523
:1027800047958091F603881F8827881F9091F7034B
:10279000592F550F97FB992790F998016091F803ED
:1027A000852B0E94B50EEF0CF1E0CF1AD10899F6F7
:1027B00021960C5F1F4FCF30D10529F60E94D90F0B
:1027C0008091F00291E0F91210C081110CC08EE0EE
:1027D0008093F002DF91CF911F910F91FF90EF90C6
:1027E000DF90CF9008958150F3CF90E00196BE0125
:1027F0000E943936EDCF0F931F93CF93DF93C82FED
:102800008091EE029091EF020E940227EC2FF0E0FF
:10281000E45CFB4FE491E817190611F008F052C090
:102820000E94F6269093EF028093EE02CBEFD3E066
:10283000FE01118210821282349684E0E733F80799
:10284000C1F710E000E08091ED02082E000C990B1A
:1028500008171907E4F180919301082E000C990BD9
:1028600080179107A4F18091F603881F8827881F9D
:102870009091F703592F550F97FB992790F99E01D7
:102880004091F9036091F803852B0E94B50E0F5F0C
:102890001F4F24960F301105B1F60E94D90F809179
:1028A00092019091ED02980F9093ED022091930187
:1028B000280F20939301121614F49E301CF081957A
:1028C00080939201DF91CF911F910F91089519820A
:1028D00018821A82DCCFEF92FF920F931F93CF934F
:1028E000DF938091EB029091EC020E940227883ED8
:1028F0009340C8F10E94F6269093EC028093EB027D
:10290000C091E902D091EA022196C170DD27D093EF
:10291000EA02C093E9028BEFE82E83E0F82E10E084
:1029200008E7812F86958C0F9D2F911D8170992727
:1029300097014091F9036091F803FC010E9FC001DB
:102940000F9F900D11240E94B50E1F5FF4E0EF0E53
:10295000F11C1F3031F7DF91CF911F910F91FF9044
:10296000EF900C94D90FDF91CF911F910F91FF90B1
:10297000EF900895CF93DF9300D000D0CDB7DEB7AE
:102980008091E7029091E8020E9402279C01EAE30D
:10299000F4E0859194912817390798F18091E60227
:1029A00081110CC09E012F5F3F4F4FEF6FEF90E002
:1029B00080E00E94B50E8A818093E6020E94F6268E
:1029C0009093E8028093E7026091E502613049F05C
:1029D0006230F1F08091E60240E0662331F040E0A1
:1029E00019C06091E60240E080E00E94EE0F809105
:1029F000E50290E0019663E070E00E943936809332
:102A0000E5020F900F900F900F90DF91CF910895F6
:102A10004091E60280E060E0E8CF0F931F93CF93F0
:102A2000DF938091E3029091E4020E940227843FA9
:102A30009140D8F10E94F6269093E4028093E3023D
:102A4000CBEFD3E010E000E06091F8038091F60353
:102A5000282F221F2227221F9091F703892F880FEA
:102A6000822B97FB992790F92091E1023091E202A5
:102A700007301105FCF4232BF9F09E014091F90376
:102A80000E94B50E0F5F1F4F24960F301105E1F61F
:102A90000E94D90F8091E1029091E202019681702B
:102AA00099279093E2028093E102DF91CF911F91E9
:102AB0000F910895232B09F39E0140E0E1CF80910F
:102AC000FE028823D1F19091F603892F86958F73AA
:102AD0002EE3280F2F73243018F482500C944F12D9
:102AE0002AE3280F2F73233018F486500C94EF122A
:102AF00027E3280F2F73263018F489500C941F13E6
:102B000021E3280F2F73263018F48F500C9479137B
:102B10002BE2280F2F73233018F485510C94FB13EC
:102B20009E77903311F40C946B14963411F40C943A
:102B3000BA14983411F40C940D1508958823B9F043
:102B40005198599A5098589A95E09A95F1F7000043
:102B5000509A589895E09A95F1F70000882311F063
:102B6000519A599885E08A95F1F700000895519A95
:102B70005998E8CF8BB18C7F8BB95098589A51985F
:102B8000599A85E08A95F1F7000008958AB18C7F03
:102B90008AB985E08A95F1F70000519A599885E045
:102BA0008A95F1F70000509A589885E08A95F1F7D8
:102BB000000008955098589A85E08A95F1F7000032
:102BC0005198599A85E08A95F1F700000895CF93BE
:102BD000DF93C82FD8E08C2F80780E949E15CC0FF1
:102BE000D150C9F780E00E949E1585E08A95F1F7E3
:102BF000000085E08A95F1F7000080E0DF91CF9139
:102C000008959C01CB016BB1542F509556236BB1A5
:102C1000462B6FB7F894820F931F2817390711F4CA
:102C20006FBF0895F90171919F01E8E04BB9000071
:102C300000C077FF5BB9770F000000C000C000C084
:102C40005BB900C0EA9591F7E8CFAF92BF92CF92FF
:102C5000DF92EF92FF920F931F93CF93DF937C014C
:102C60008B01CFB6D090BC00F8948091BC008B7FD4
:102C70008093BC000E94BA150E94C61584E80E9489
:102C8000E715000F111F000F111F5701A00EB11EF5
:102C9000E701CA15DB05A9F40E94DA15CFBED09270
:102CA000BC00579A40E8B801C701DF91CF911F914E
:102CB0000F91FF90EF90DF90CF90BF90AF900C946A
:102CC000011689910E94E715E4CFCF93DF93EC01C1
:102CD00081E08F878F810E94EB2488850E94FF24EA
:102CE0000E94B524EA81FB81309739F06A897B899B
:102CF000CE010696DF91CF910994DF91CF9108958F
:102D0000CF93DF93EC01FB018881823031F4828123
:102D100093810E94DE0781E08987DF91CF9108953A
:102D2000FB01DC018C91813021F4808191810C9434
:102D3000DE07823019F482819381F9CF0895FB0177
:102D4000DC018C91813021F4808191810C94F30716
:102D5000823019F482819381F9CF0895EF92FF9226
:102D60000F931F93CF93DF93EC018885811132C0BD
:102D7000EB80FC8087E5F81A24E12E9DC0012F9D91
:102D8000900D1124DC01AE5FBE4F1496ED91FC91C5
:102D90001597309731F052966D917C91885F9E4FD8
:102DA000099584E18E9D80018F9D100D11240E5F89
:102DB0001E4FF80187810E94F124F80180850E944E
:102DC00005250E94B52418821F82198610920003DF
:102DD0001092FF02DF91CF911F910F91FF90EF9022
:102DE0000895DF92EF92FF920F931F93CF93DF939B
:102DF0008C01FB018281882391F080919F018F3F9C
:102E000071F0C2E0D1E0F12CE12CDD24D39480916B
:102E10009F01082E000C990B8E159F0544F4DF913D
:102E2000CF911F910F91FF90EF90DF9008958E81C9
:102E30008823B9F089859A858017910739F48091A4
:102E4000FF02909100038017910759F0DD868F856E
:102E5000811103C0CE010E946516CE0106960E9424
:102E6000AE16FFEFEF1AFF0A6496D1CFEF92FF92F2
:102E70000F931F93CF93DF938C01FB0197558F3FE7
:102E8000910509F0D0F520919F01022E000C330B23
:102E90002817390714F480939F01228134E1389F69
:102EA0007001399FF00C1124E701CE5FDE4F2E87B1
:102EB00092818E81992349F11A8709878F5F8E83CA
:102EC0000E94F6269C878B870E9427258F830E946D
:102ED000E82488870E94FC249885982B9887E881AD
:102EE000F981309731F06A897B89C701885F9E4FED
:102EF0000995109300030093FF0281E0DF91CF91C9
:102F00001F910F91FF90EF9008958823B1F38F8563
:102F1000882399F3C701885F9E4F0E94AE16EDCFBC
:102F2000EF92FF920F931F93CF93DF9380919F01B6
:102F300010E004E18F3FC1F5DF91CF911F910F9118
:102F4000FF90EF900895029FF001039FF00D112470
:102F5000EE5FFE4FE088F188E114F10419F488EC8B
:102F6000E82EF12C029FE001039FD00D1124CE5FCB
:102F7000DE4F8E818823B9F08B859C850E940227C5
:102F8000E816F90680F4109F700111248F858111D5
:102F900005C0C7018E5F9E4F0E946516C701885FFE
:102FA0009E4F0E94AE161F5F212F30E080919F013F
:102FB000082E000C990B821793072CF6BDCF909327
:102FC0000603809305030895E0910503F09106033D
:102FD000309721F00190F081E02D099480E0089570
:102FE000DC01E0910503F0910603309799F08091A0
:102FF000B101882351F080913D0487FF06C08C9178
:1030000011968C93119785E08C930280F381E02DCB
:10301000CD0109940895DC01E0910503F0910603C8
:10302000309739F082E08C930480F581E02DCD015A
:103030000994089520910303309104032817390758
:1030400071F09093040380930303E0910503F091E2
:103050000603309721F00680F781E02D099408954A
:1030600020910103309102032817390771F09093E2
:10307000020380930103E0910503F091060330976A
:1030800021F00084F185E02D0994089585B78068CA
:1030900085BF85B7806885BF089508950E9446184A
:1030A0000C944D1881E008950E94ED260E94FC03C7
:1030B0000E947D270C94ED11BF92CF92DF92EF9288
:1030C000FF920F931F93CF93DF9300D000D00F9206
:1030D000CDB7DEB70E94CC040E945218882309F4B1
:1030E00072C088E0C82E83E0D82E10E000E0E02E09
:1030F000802F0E940B05B82EF601F1906F01F81693
:1031000009F45BC08091C30381FD0E941105FB247B
:1031100030E020E04F2D50E0922FBA01022E02C085
:10312000759567950A94E2F760FF41C02983EA82AA
:1031300021E030E0790102C0EE0CFF1C9A95E2F725
:103140002B2D30E02E213F2181E0232B09F480E05C
:103150008B830E94F6268160782F9D838C83498122
:103160005A816B818D810E943E19F801E85FFC4F06
:1031700080818E2580830E941D290E94E4179091F2
:103180000703891789F10E94E417809307030F90C2
:103190000F900F900F900F90DF91CF911F910F9193
:1031A000FF90EF90DF90CF90BF900C9429082F5F95
:1031B0003F4F2630310509F0AFCF0F5F1F4F0E3064
:1031C000110509F094CF8FEF89838A831B820E94B7
:1031D000F6268160782F9D838C8349815A816B818B
:1031E0008D810E943E19C7CF0F900F900F900F90C6
:1031F0000F90DF91CF911F910F91FF90EF90DF9093
:10320000CF90BF900895CF93DF93DC019C91692FFD
:1032100070E021E030E0A90102C0440F551F9A95EB
:10322000E2F7CA0111964C91119750E0EA01CA5E8B
:10323000DC4F288112963C9112973323C9F03091CC
:1032400026033323C1F096E0949FF001959FF00D83
:103250001124E60FF71FEE0FFF1FEE54FE4F4081C3
:1032600051814D935C93822B8883DF91CF91089598
:10327000322F3823E6CF80958223F6CFCF93DF938A
:10328000CDB7DEB72B970FB6F894DEBF0FBECDBF1C
:103290004F83588769877A878B878A859B85892B97
:1032A00021F0CA0189238F3FD9F41E8285E0FE01F7
:1032B0003796DE01119601900D928A95E1F74981CA
:1032C0005A816B817C818D819E810E94B2202B96D8
:1032D0000FB6F894DEBF0FBECDBFDF91CF9108953A
:1032E000CE0107960E940319E0CFFC0180819181F5
:1032F0000E943B2492959F70963041F48091260362
:1033000091E0892780932603909325030895CF9316
:10331000C82F882309F4E6C08238C1F40E94E4175C
:1033200081FDE0C089E30E9471240E94B5242FEF43
:1033300081EE94E0215080409040E1F700C0000011
:1033400089E30E947824CF910C94B5248338A1F4AA
:103350000E94E41780FDC6C083E50E9471240E948C
:10336000B5242FEF81EE94E0215080409040E1F7AA
:1033700000C0000083E5E5CF8438A1F40E94E41783
:1033800082FDB0C087E40E9471240E94B5242FEF13
:1033900081EE94E0215080409040E1F700C00000B1
:1033A00087E4CFCF8CEF8C0F813A48F48C2F0E94AA
:1033B000372B811197C08C2F0E947124C4CF80E2DB
:1033C0008C0F883048F4C77081E001C0880FCA951F
:1033D000EAF70E94EB24B7CF8BE58C0F833068F4BB
:1033E00081E890E0C53A31F083E890E0C63A11F404
:1033F00082E890E0CF910C941A1888E58C0F873101
:1034000008F068C082EE90E0C83A09F460C089EE26
:1034100090E0C93A09F45BC08AEE90E0CA3A09F438
:1034200056C085EB90E0CB3A09F451C086EB90E0B2
:10343000CC3A09F44CC083EB90E0CB3B09F447C095
:1034400084EB90E0CC3B09F442C087EB90E0CD3AAE
:10345000F1F18CEC90E0C03BD1F18DEC90E0CE3AF4
:10346000B1F183E891E0CF3A91F18AE891E0C13B74
:1034700071F182E991E0C23B51F184E991E0C33BF3
:1034800031F181E292E0C43B11F183E292E0C53B6D
:10349000F1F084E292E0C63BD1F085E292E0C73BD6
:1034A000B1F086E292E0C83B91F087E292E0C93B3E
:1034B00071F08FE690E0CD3B51F080E790E0CE3B9D
:1034C00031F090E080E0CA3B11F48AE292E0CF91C3
:1034D0000C943018C03F30F08C2F0E942B28CF91D5
:1034E0000C941229CF910895882309F452C0823890
:1034F00071F40E94E41781FF4CC089E30E9471249B
:103500000E94B52489E30E9478240C94B524833862
:1035100059F40E94E41780FF3CC083E50E947124A7
:103520000E94B52483E5EFCF843859F40E94E41754
:1035300082FF2FC087E40E9471240E94B52487E493
:10354000E2CF9CEF980F913AF0F290E2980F98300A
:1035500050F4877091E001C0990F8A95EAF7892F9E
:103560000E94F124D2CF9BE5980F933020F490E095
:1035700080E00C941A1898E5980F973120F490E0A9
:1035800080E00C943018803F20F00E9493280C9427
:1035900012290895882321F00E94EB240C94B5246D
:1035A0000895882321F00E94F1240C94B5240895F5
:1035B0008F929F92AF92BF92DF92EF92FF920F9302
:1035C0001F93CF93DF9300D000D00F92CDB7DEB71B
:1035D0007C016D837983FC01058102950F70128156
:1035E00011110E940D250E94AE24D82E882371F05F
:1035F0001123B1F08D81805E883090F082E00E94CE
:1036000098240E94AE2491E0D82ED926B980B29495
:103610009FE0B922EB2DF0E0E052F94C0C944D36CE
:10362000D12CF4CF09810F70F981F07F11F0029550
:10363000007F1123B1F0002361F08D81805E88301E
:1036400018F02D81211109C0802F0E94EB240E94C7
:10365000B5248D810E94871915C0802F0E94FF24F8
:10366000F6CF8D810E94741A002361F08D81805EF7
:10367000883018F03D81311129C0802F0E94F1243B
:103680000E94B524DD2009F487C20E948B2480FDAE
:1036900083C2F70112820E9485240E949022C701F2
:1036A0000E94DD1D0E9485240F900F900F900F90B7
:1036B0000F90DF91CF911F910F91FF90EF90DF90CE
:1036C000BF90AF909F908F900C94C122802F0E944A
:1036D0000525D6CF49814F70B42E5981507F503285
:1036E00019F0B29480EFB8228D81882339F08130AF
:1036F00019F1112359F1002321F1ABCF112381F0EE
:10370000011106C00E9427258B290E94CA1ABACF30
:103710000130C1F70E9427258B290E942125B2CFB5
:10372000011106C00E9424258B2D0E94D11AAACF18
:10373000013009F4A7CFF6CF112329F0023008F0A9
:10374000A1CF8B2DE2CF01119DCFEECF002361F3EE
:103750008D810E94741A96CF898186958695837093
:1037600049F0813089F086E08B0D8F70823008F44B
:10377000A5C088CF8D8199819370111102C090E00E
:1037800080E00E941A187ECF8D819981937011116B
:1037900002C090E080E00E94301874CF112311F134
:1037A0009D81953F99F0963FB9F0943F49F48091FF
:1037B00037049091380481609093380480933704E3
:1037C0008D810E942B280E9412295CCF80913704A2
:1037D000909138048260F0CF809137049091380442
:1037E0008460EACFED81E53F89F0E63FA9F0E43F50
:1037F00049F480913704909138048E7F9093380477
:10380000809337048D810E949328DDCF8091370407
:10381000909138048D7FF2CF8091370490913804D5
:103820008B7FECCF8981837009F063C0111146C092
:103830002D81229526952770220F220F8D818F7062
:1038400090E0B0E0A0E04C015D01022E04C0880CC5
:10385000991CAA1CBB1C0A94D2F7FD8160E070E0A1
:10386000CB01F4FF0FC06FE070E080E090E004C097
:10387000660F771F881F991F2A95D2F7609570955C
:103880008095909529812695269523702D83223049
:10389000D1F0233039F19B01AC01282939294A297B
:1038A0005B2929833A834B835C833D8169817A81DB
:1038B0008B819C813130D1F00E9408220E94E41754
:1038C0000E942908DFCE9B01AC01282939294A2909
:1038D0005B2929833A834B835C83CA01B9010E9427
:1038E0003022ECCF0E940822C501B4010E94E021E1
:1038F000E5CF8695112311F0898181708823F1F23B
:103900002D81229526952770220F220F8D818F7091
:1039100090E0B0E0A0E04C015D01022E04C0880CF4
:10392000991CAA1CBB1C0A94D2F73D8160E070E090
:10393000CB0134FF0FC06FE070E080E090E004C086
:10394000660F771F881F991F2A95D2F7609570958B
:103950008095909549814695469543704D834230B8
:10396000B1F0433019F19B01AC01282939294A29CA
:103970005B2929833A834B835C833D8169817A810A
:103980008B819C813130B1F00E944F2397CF9B01F6
:10399000AC01282939294A295B2929833A834B8399
:1039A0005C83CA01B9010E94772388CF0E944F230C
:1039B000C501B4010E94272381CF3D81323F09F424
:1039C00050C098F4303FD1F1313F09F443C0832F08
:1039D000805E8031E8F0112309F460C0002309F40F
:1039E0005AC08D810E9487191FC04D81433F09F441
:1039F0003FC0443F81F7112309F444C089818F718E
:103A000089830E94902263E089810E948F240CC0E8
:103A10005D815F705D8389818F71112349F00E9400
:103A200090228D810E94CA1AF8E0BF129CCE46CF28
:103A30000E94C1228D810E94D11AF6CF112339F044
:103A40000111F2CF89818F710E94F622EDCF0230F1
:103A500058F7F8CF89818F71112339F00E94902295
:103A6000E3CF89818F711123C9F30E94C122DCCF7A
:103A7000112329F089818F710E946B22D5CF0E947A
:103A80006622D2CF81E00E949824023068F282E060
:103A90000E949824C9CF89818F71E0CF002381F0E3
:103AA0009D81993349F4EFEFF7EE23E0E150F040C8
:103AB0002040E1F700C000008D810E94741AB4CF4D
:103AC00089818F71D2CF49814F706D81C7010E946A
:103AD000250B0E945221D6CD3D81333F71F1D8F4A0
:103AE000313FD9F1323F59F1303FF1F08091250358
:103AF000002309F446C0882341F08091260391E019
:103B0000892780932603109225038D81112389F143
:103B10000E94871916C04D81443FD1F0453F31F7CF
:103B200011110FC081E006C0112359F080912603C6
:103B300091E089278093260304C081E01827109321
:103B4000260349814F706D81C7010E94280B6CCFFD
:103B50001111F7CF10922603F4CF112339F0809181
:103B60002503882319F310922503EBCF0023F1F2EC
:103B7000E8CF0E94741A86E0F70111928A95E9F75E
:103B8000E0CF8823F1F21111DCCF8091260391E080
:103B9000892780932603E7CF0F900F900F900F9007
:103BA0000F90DF91CF911F910F91FF90EF90DF90D9
:103BB000BF90AF909F908F9008950F931F93CF93D6
:103BC000DF93EC018B819C81892B29F0888199817D
:103BD00089238F3F29F4DF91CF911F910F91089591
:103BE000CE010E943B088823B1F3688179818A81E4
:103BF0000E9447248C010E949F230E94DD21B8016E
:103C0000CE01DF91CF911F910F910C94D81A0E9491
:103C10000D250E941E250E947F240E94B5240E942B
:103C2000B0290E94122990E080E00E941A1890E0CA
:103C300080E00C9430180E94F9240C94071E0E9416
:103C40003B24282F892F82958F70903C80F48A30F6
:103C5000B0F4843020F4823090F480E0089586300F
:103C6000E1F781E0203E88F0213FB9F70EC08C30AB
:103C700011F08F3091F793FB882780F9089581E048
:103C8000203F39F018F4203E40F70895243F29F7EB
:103C9000FCCF0895CF93DF9300D000D00F92CDB723
:103CA000DEB70F900F900F900F900F90DF91CF9194
:103CB0000895CF93DF9300D000D000D0CDB7DEB70A
:103CC00026960FB6F894DEBF0FBECDBFDF91CF9121
:103CD00008951F93CF93DF93E091270316E080911F
:103CE00028038E1304C0DF91CF911F910895CE2F2A
:103CF000D0E01E9FF0011124E75DFC4F408151810F
:103D000062817381848195810E94591EFE013196E2
:103D1000E770E5CF4091590350915A0360915B03DE
:103D200070915C0380915D0390915E030C94591E29
:103D30001F93CF93DF9380915E03807FC1F48091C6
:103D40005B038823A1F080912703C0912803609131
:103D5000590370915A0340915C0350915D03D62F33
:103D6000D723DA01A095B09516E0C81304C0DF91FF
:103D7000CF911F91089590E04115510511F0DF3F5B
:103D800031F401968770F1CF2A0F3B1F17C0189F9F
:103D9000F001199FF00D1124E75DFC4F21812713DD
:103DA000F0CF20812613EDCF22812111EACF23818C
:103DB00034812417350740F3241B350B283C31058B
:103DC00000F720915E032F70206120935E0326E0B0
:103DD000289FF001299FF00D1124E25DFC4F8081A6
:103DE0008F708061808389E593E00E94DD1DDF9103
:103DF000CF911F910C94691E9F92AF92BF92CF9268
:103E0000DF92EF92FF920F931F93CF93DF93CDB783
:103E1000DEB72B970FB6F894DEBF0FBECDBF8C0177
:103E200085E0F801DE01179601900D928A95E1F781
:103E3000D8014C9111965C9111971296EC901297C3
:103E400080915C0390915D03009709F46CC120910F
:103E5000590330915A03632F62236F3F09F463C102
:103E60001396CD90DC9090905B03992009F4FAC0F2
:103E7000C816D90608F43FC0F601E81BF90BCF01BC
:103E8000FF24F394883C910508F0F12C89E5A82ED5
:103E900083E0B82E80915E03982F907FFF2009F475
:103EA000B9C0911180C0FE2C35132AC0241328C03C
:103EB000E11026C08F70806180935E030E948A1E8D
:103EC000C5010E94DD1D80915E03D80115968C937B
:103ED0008F2D2B960FB6F894DEBF0FBECDBFDF91AE
:103EE000CF911F910F91FF90EF90DF90CF90BF90F7
:103EF000AF909F900895809590958C0D9D1DC0CF9B
:103F0000CD2829F0842F85238F3F09F028C180E038
:103F1000B82FB170DB2EE09127032091280336E003
:103F200080FD1CC0EE20A1F280915E038160809331
:103F30005E03F12CCDCF8E2F90E03E9FF001112437
:103F4000E75DFC4F6181651306C06081641303C0A7
:103F500062816E11E7CFFC013196E770E213EBCF7F
:103F60004F8358878F8198850E943B24292F229563
:103F70002F70903260F0225F2F70223078F49F70A3
:103F800051F0F8019581907F31F4D12C0AC09F70D7
:103F900011F08823D1F3805E8830B8F3C8010E9405
:103FA000DD1DFD2C95CF351306C0241304C0D801A8
:103FB000EE2009F47CC04F8358878F8198850E943A
:103FC0001F1E882319F1EE2009F180915E038032D3
:103FD00070F02091590330915A033A8329831B8250
:103FE000DD82CC828E83CE0101960E94DD1D86E0AB
:103FF000F801A9E5B3E001900D928A95E1F70E94DE
:10400000981E0E948A1EFF24F39462CFC8010E946A
:10401000DD1DF9CF911113C07C2DDB86CA866E2D74
:104020008B850E944A1E89E593E00E94DD1D86E093
:10403000F50111928A95E9F70E948A1E49CF35133E
:10404000BACF2413B8CFE110B6CFD80115968C9310
:10405000C8010E94DD1D86E0F50111928A95E9F7FD
:10406000F92C36CFC816D90680F1B601681B790B3A
:10407000CB01F12C883C910508F046C0FE2CEE20C7
:1040800029F2351330C024132EC080915E0380FDC9
:1040900021C0982F907FF1F0D80115968C93159739
:1040A000903F39F0982F907F905F8F70892B1596F5
:1040B0008C93C8010E94DD1D86E0F801A9E5B3E0FC
:1040C00001900D928A95E1F7B7CF809590958C0D70
:1040D0009D1DCFCF86E0F801A9E5B3E001900D92D8
:1040E0008A95E1F7F5CE4F8358878F8198850E9496
:1040F0001F1E81117CCF80915E03816080935E03DF
:10410000C8010E94DD1DE4CE7C2DDB86CA866E2DA3
:104110008B850E944A1E86E0E9E5F3E0DF011D92EF
:104120008A95E9F789CFEE2009F470CF4F8358873D
:104130008F8198850E941F1EF82E882309F466CF70
:1041400086E0F801A9E5B3E001900D928A95E1F7C8
:1041500089E593E00E9475190E94981E6DCF81E059
:104160008E25D6CE1F93CF93DF93CDB7DEB72C9796
:104170000FB6F894DEBF0FBECDBF4F835887698757
:104180007A878B879C87CE0107960E94FC1E882326
:1041900069F08A859B85892B39F04F815885842F5A
:1041A00085238F3F09F077C016E065C086E0FE01E9
:1041B0003796DE01119601900D928A95E1F76A8596
:1041C0007B856115710581F35F814885842F852387
:1041D0008F3F51F32091280330E0C9010196877089
:1041E0009927E0912703E817190671F40E941B1E16
:1041F000109228031092270386E0E9E5F3E0DF013F
:104200001D928A95E9F7D0CF59834A837D836C83C9
:1042100096E0929FD001939FB00D1124A75DBC4FF3
:10422000FE01319601900D929A95E1F78093280353
:104230000E94691EB9CF819FC0011124875D9C4FE8
:104240000E94FC1E8823E9F0E09127031E9FF001E5
:104250001124E75DFC4F408151816281738184812B
:1042600095810E94591E8091270390E001968770E6
:10427000992780932703809127039091280389131E
:10428000DACF2C960FB6F894DEBF0FBECDBFDF910C
:10429000CF911F91089569857A858B859C850E94B1
:1042A000591E82CFEF92FF920F931F93CF93DF930C
:1042B0008C01892B89F0F12CEE24E394E8012196FE
:1042C000F8018491843709F457C0A0F4823009F4CE
:1042D0003EC048F48130D1F0DF91CF911F910F9112
:1042E000FF90EF9008959CEF980F9037A8F70E94E9
:1042F00087190AC0853709F44CC09CE7980F90379E
:1043000058F78F770E94741A8E0116C00E5F1F4FE8
:10431000FE01849190E2980F983060F48770FE2D32
:1043200001C0FF0F8A95EAF78F2F0E9410250E9487
:10433000B52402C00E9487198F2D815008F4BECF8A
:10434000EFE9FFE03197F1F700C00000F6CF0E5F14
:104350001F4FFE01849190E2980F983050F48770BF
:10436000FE2D01C0FF0F8A95EAF78F2F0E941625B8
:10437000DECF0E94741AE0CF0E5F1F4FFE01C49182
:10438000C150D0F28FE99FE00197F1F700C0000023
:10439000F7CF0E5F1F4FFE01F490CECF08950C941F
:1043A000CE210E94CF2160939A0370939B03809348
:1043B0009C0390939D030C94071E08950C94D121A7
:1043C000CF93DF9300D000D0CDB7DEB769837A8377
:1043D0008B839C8380919A0390919B03A0919C0373
:1043E000B0919D0329813A814B815C81282B392B27
:1043F0004A2B5B2B29833A834B835C83CA01B90127
:104400000F900F900F900F90DF91CF910C94D121CE
:10441000CF93DF9300D000D0CDB7DEB769837A8326
:104420008B839C8380919A0390919B03A0919C0322
:10443000B0919D0329813A814B815C8128233923E6
:104440004A235B2329833A834B835C83CA01B901E6
:104450000F900F900F900F90DF91CF910C94D1217E
:10446000CF93DF9300D000D0CDB7DEB769837A83D6
:104470008B839C8380919A0390919B03A0919C03D2
:10448000B0919D0329813A814B815C81282739278E
:104490004A275B2729833A834B835C83CA01B9018E
:1044A0000F900F900F900F90DF91CF910C94D1212E
:1044B0000C9456070E9458226093960370939703BA
:1044C00080939803909399030C94071E60E070E02A
:1044D000CB010C945A220F931F93CF93DF9300D0FC
:1044E00000D0CDB7DEB741E050E060E070E08A0177
:1044F0009B0104C0000F111F221F331F8A95D2F7A2
:1045000009831A832B833C83C901B8010F900F9054
:104510000F900F90DF91CF911F910F910C945A2221
:104520000F931F93CF93DF9300D000D0CDB7DEB7AA
:1045300041E050E060E070E004C0440F551F661F8A
:10454000771F8A95D2F78091960390919703A09157
:104550009803B09199038A019B01082B192B2A2BF0
:104560003B2B09831A832B833C83C901B8010F902D
:104570000F900F900F90DF91CF911F910F910C949E
:104580005A220F931F93CF93DF9300D000D0CDB763
:10459000DEB741E050E060E070E004C0440F551F1A
:1045A000661F771F8A95D2F7409550956095709554
:1045B0008091960390919703A0919803B0919903ED
:1045C0008A019B01082319232A233B2309831A8389
:1045D0002B833C83C901B8010F900F900F900F906F
:1045E000DF91CF911F910F910C945A220F931F933B
:1045F000CF93DF9300D000D0CDB7DEB741E050E0DD
:1046000060E070E004C0440F551F661F771F8A9555
:10461000D2F78091960390919703A0919803B0915F
:1046200099038A019B01082719272A273B27098319
:104630001A832B833C83C901B8010F900F900F9010
:104640000F90DF91CF911F910F910C945A22CF932D
:10465000DF9300D000D0CDB7DEB769837A838B8338
:104660009C838091960390919703A0919803B091B9
:10467000990329813A814B815C81282B392B4A2B64
:104680005B2B29833A834B835C83CA01B9010F906A
:104690000F900F900F90DF91CF910C945A22CF93EF
:1046A000DF9300D000D0CDB7DEB769837A838B83E8
:1046B0009C838091960390919703A0919803B09169
:1046C000990329813A814B815C81282339234A232C
:1046D0005B2329833A834B835C83CA01B9010F9022
:1046E0000F900F900F90DF91CF910C945A22CF939F
:1046F000DF9300D000D0CDB7DEB769837A838B8398
:104700009C838091960390919703A0919803B09118
:10471000990329813A814B815C81282739274A27CF
:104720005B2729833A834B835C83CA01B9010F90CD
:104730000F900F900F90DF91CF910C945A22089513
:10474000292F220FE22FE90FEE0FE80F8E2F87702F
:1047500041E001C0440F8A95EAF7E695E695E695B3
:1047600085E0E89FF0011124E15AFC4F30E020E0A1
:1047700070E05191DF011197CB01022E02C0969596
:1047800087950A94E2F78170819585278423852790
:104790008C932F5F3F4F2530310559F70895292F0E
:1047A000220FE22FE90FEE0FE80F9E2F9770E6958C
:1047B000E695E69585E0E89FF0011124E15AFC4F6B
:1047C00050E040E080E0219130E0092E02C03695B3
:1047D00027950A94E2F721703327042E01C0220F97
:1047E0000A94EAF7822B4F5F5F4F4530510559F726
:1047F0000895BF92CF92DF92EF92FF920F931F9393
:10480000CF93DF938C01C0909603D0909703E090F4
:104810009803F090990380919A0390919B03A09143
:104820009C03B0919D03C82AD92AEA2AFB2ACFE12A
:10483000D0E0BC2ED701C6010C2E04C0B695A795BA
:10484000979587950A94D2F780FD0EC0219788F737
:10485000B12C8B2DDF91CF911F910F91FF90EF9095
:10486000DF90CF90BF900895B8018C2F0E94450B28
:10487000019761F3EECFCF93DF93D82FC92F0E941A
:10488000F9236D2F7C2FDF91CF910C94450B1F9353
:10489000CF93DF93162FD72F90912403992339F0CC
:1048A000862F972FDF91CF911F910C943B24882363
:1048B00091F0862F972F0E94F923C82F682F812F00
:1048C0009D2F0E94A023612F7D2F8C2FDF91CF91F0
:1048D0001F910C94450B862F972F0E94CF23C82F32
:1048E000F2CF682F8091A0019091A1010C944B26EA
:1048F000682F8091A0019091A1010C94562680917F
:10490000A0019091A1010C94612680919E03859550
:1049100085958595089580919E038770089598E008
:10492000899F90011124622B60939E030C94902226
:1049300090919E038095892380939E03282F277052
:1049400061F4282F082E000C330B9217130629F060
:104950008595859585950C94C122089590919E0327
:10496000977081E009F480E00895E091A001F09152
:10497000A1018091C2038083E091A001F091A10187
:1049800080819091C103892B8083E091A001F091F7
:10499000A10180819091C003892B808390919F0316
:1049A000992381F0E091A001F091A1018081892BF0
:1049B00080838091A0019091A1010E94E525811141
:1049C00010929F038091A0019091A1010C94F01787
:1049D0008091C20308959091C203982B9093C203D3
:1049E0000895982F90958091C20389238093C203E4
:1049F00008951092C20308958091C1030895909183
:104A0000C103982B9093C1030895982F909580919E
:104A1000C10389238093C10308951092C1030895AF
:104A20009091C003982B9093C0030895982F909570
:104A30008091C00389238093C00308951092C0031E
:104A4000089580939F03089510929F030895809185
:104A50009F0308950F931F93462F572FBC01CB013F
:104A6000AA27BB270097A105B105E9F1AC01BD015B
:104A700080E1052F162F272F33270115110521055A
:104A8000310519F0885FB901A8018A019B01F4E0A2
:104A90003695279517950795FA95D1F701151105C4
:104AA0002105310519F08C5FB901A8018A019B012C
:104AB000E2E03695279517950795EA95D1F7011508
:104AC00011052105310519F08E5FB901A801769510
:104AD000679557954795452B462B472B09F08F5FD8
:104AE0001F910F91089580E0C4CF90E080E00E9474
:104AF0006E369C0181E02D3E3E4F09F080E0089526
:104B000082E090E00C94603683E090E00C94603694
:104B100084E090E00C946036682F84E090E00C9480
:104B20007436AB01BC018FE090E00C948636AB018B
:104B3000BC0183E190E00C94863660E070E0CB012C
:104B40000C94972560E070E0CB010E9491250C94B5
:104B50009D256DEE7EEF90E080E00E94923660E051
:104B600082E090E00E94743660E083E090E00E9472
:104B7000743610929A0310929B0310929C03109229
:104B80009D0360E084E090E00E94743660E085E080
:104B900090E00E94743660E086E090E00E947436F7
:104BA0006FEF87E090E00E94743640E050E0BA0179
:104BB00088E090E00E94863660E08DE090E00E9400
:104BC00074360C94A2250C94A925FC013296809190
:104BD000B101882321F080913D049EE187FF96E09A
:104BE00080E0915008F4089521912223D1F38F5F42
:104BF000F8CF9C01FC0132968FEF90E0419146176F
:104C000051F08F3F19F4411101C0892F9F5F9630F9
:104C1000A9F78F3F09F40895280F311D87FD3A95B4
:104C2000F901628308959C01FC013296285F3F4F91
:104C30008191861303C0DF0111971C92E217F307DD
:104C4000B9F70895E62FE695E695E695603F68F496
:104C5000E80FF92FF11D677021E030E001C0220F4D
:104C60006A95EAF78281822B82830895E62FE69582
:104C7000E695E695603F70F4E80FF92FF11D677037
:104C800081E090E001C0880F6A95EAF780959281F3
:104C90008923828308952091B101222329F0209154
:104CA0003D0427FD0C9422260C94F9252091B10196
:104CB000222329F020913D0427FD0C9436260C94E4
:104CC0001326FC0132968091B101882351F0809126
:104CD0003D0487FF06C08EE1DF011D928A95E9F74A
:104CE000089586E0F9CF08950C9473260E947426E7
:104CF00080914304843049F11092C40388E190E02C
:104D000020E40FB6F894A895809360000FBE20931E
:104D1000600080E00E9429080E94742683B7817F8A
:104D2000846083BF83B7816083BF7894889583B79D
:104D30008E7F83BF0FB6F894A8958091600088613C
:104D400080936000109260000FBE08950895CF9385
:104D50000E9420040E94CC040E94A626C0E08C2F52
:104D60000E940B05811105C0CF5FCE30C1F7CF91F6
:104D7000089581E0FCCF08950C94BB260E941B1E71
:104D80000E94E4170E9429080C94BC261F921FB6AB
:104D90001F9211248F939F93AF93BF938091C4036D
:104DA000811113C08091390490913A04A0913B0481
:104DB000B0913C044196A11DB11D8093390490939C
:104DC0003A04A0933B04B0933C04BF91AF919F91F0
:104DD0008F911F901FBE1F90189582E084BD93E0B5
:104DE00095BD9AEF97BD80936E0008952FB7F89404
:104DF0008091390490913A04A0913B04B0913C0415
:104E00002FBF0895CF92DF92EF92FF929C014FB790
:104E1000F8948091390490913A04A0913B04B091A8
:104E20003C044FBF6C017D01EE24FF24A90170E01A
:104E300060E0C416D506E606F70638F0821B930B31
:104E4000FF90EF90DF90CF9008950197F7CF78947F
:104E50001F921FB61F9211248F939F93AF93BF93FE
:104E60008091390490913A04A0913B04B0913C04A4
:104E70000196A11DB11D8093390490933A04A0932B
:104E80003B04B0933C04BF91AF919F918F911F90D1
:104E90001FBE1F901895F89481E08093E00080E297
:104EA0008093D800E9ECF0E010828FE19EE4019756
:104EB000F1F700C000001DBA109268001CBC10BEC3
:104EC0001FBA10927A0010926E0010926F0010922A
:104ED0007100109272001082ECEBF0E0108214B8B6
:104EE00017B81AB81DB810BA108215B818B81BB880
:104EF0001EB811BA0C94003F0895CF93DF9300D0F1
:104F000000D0CDB7DEB70E947525811102C00E9486
:104F1000E3250E9480258093C3030E94882590E0AA
:104F200090933E0480933D040E948425282F30E016
:104F300050E040E029833A834B835C83CA01B90186
:104F40000F900F900F900F90DF91CF910C94DE2176
:104F50008091C80380FF12C06091A50185E0689F21
:104F6000B001112475956795759567956038710541
:104F7000A8F561157105A1F1862F089581FF09C07B
:104F80006091A50185E0689FB00111247595679532
:104F9000EDCF6091A50182FD0AC08091C9038823ED
:104FA000D1F09091A4016091A501891728F085E0C6
:104FB000689FB0011124DACF869FB001112485E0EB
:104FC000869F9001879F300D1124692F70E0C901E1
:104FD0000E943936CBCF65E070E0CECF8FE70895E1
:104FE00081E008958091C80380FF0CC06091A30107
:104FF00070E075956795759567956115710549F12F
:10500000862F089581FF06C06091A30170E0759519
:105010006795F3CF6091A30182FD0BC09091C90306
:105020009923A1F06091A2018091A301961738F015
:10503000682F70E06038710500F38FE70895899F4D
:10504000C001112470E00E943936F4CF61E070E0B5
:10505000D7CF81E00895803F31F40E94A827819541
:105060008093CD030895813F19F40E94A827F8CFBB
:10507000823F31F40E94A82781958093CC03089544
:10508000833F19F40E94A827F8CF893F29F40E9492
:10509000F2278093CE0308958A3F21F40E94F227DD
:1050A0008195F7CF8B3F31F40E94F2278195809351
:1050B000CF0308958C3F19F40E94F227F8CF843F64
:1050C00031F48091CB0381608093CB030895853FB9
:1050D00021F48091CB038260F7CF863F21F4809149
:1050E000CB038460F1CF873F21F48091CB038860AC
:1050F000EBCF883F21F48091CB038061E5CF8D3FDA
:1051000031F48091C80381608093C80308958E3F75
:1051100021F48091C8038260F7CF8F3FB9F7809167
:10512000C8038460F1CF9091CC03803F41F480911B
:10513000CD0387FD1092CD03992371F00895813F2F
:1051400029F48091CD031816ACF3F6CF823F81F499
:1051500097FFF2CF1092CC038091CD039091CE03B4
:10516000892B9091CF03892B49F71092C903089599
:10517000833F19F4191674F3DFCF893F39F4809116
:10518000CE031816CCF61092CE03D6CF8A3F29F460
:105190008091CE0387FFD0CFF6CF8B3F39F480913B
:1051A000CF0387FFC9CF1092CF03C6CF8C3F29F41E
:1051B0008091CF031816BCF3BFCF843F31F48091A8
:1051C000CB038E7F8093CB03B7CF853F21F48091B3
:1051D000CB038D7FF7CF863F21F48091CB038B7F6C
:1051E000F1CF873F21F48091CB03877FEBCF883FBE
:1051F00021F48091CB038F7EE5CF8D3F31F48091F8
:10520000C8038E7F8093C80397CF8E3F21F480918F
:10521000C8038D7FF7CF8F3F09F08ECF8091C803F1
:105220008B7FF0CF8AEC93E00E940B180E94F62649
:105230009093C6038093C50308951F93CF93DF9384
:105240008091C5039091C6030E940227AC01809112
:10525000C9032091A60130E0811106C02091C70347
:105260009AE0299F900111244217530778F020916A
:10527000CC031091CD03D091CE03C091CF03211167
:1052800009C09D2F912B9C2B09F066C0DF91CF9117
:105290001F9108958F3F19F08F5F8093C9031216F5
:1052A00024F40E94A8278093CC038091CC0387FF2D
:1052B00005C00E94A82781958093CC03111624F481
:1052C0000E94A8278093CD038091CD0387FF05C05E
:1052D0000E94A82781958093CD033091CC0333237E
:1052E000C1F02091CD032223A1F045EB3403C0018E
:1052F0001124892F911101C081E08093CC0345EBEB
:10530000240390011124832F311101C081E0809387
:10531000CD031D1624F40E94F2278093CE038091C2
:10532000CE0387FF05C00E94F22781958093CE03AC
:105330001C1624F40E94F2278093CF038091CF03A0
:1053400087FF05C00E94F22781958093CF03DF91EC
:10535000CF911F910C9412298F3F09F09DCFAECFB2
:1053600086E0EAECF3E0DF011D928A95E9F71092FE
:10537000C9031092C8030895843009F442C038F478
:105380008230E9F0833061F1813041F00895853059
:1053900009F448C0863009F456C008958091C703C7
:1053A000482F460F5527551F4F3F510524F4680FCE
:1053B0006093C70308958FEF8093C703089580918A
:1053C000A601482F460F5527551F4F3F510524F47E
:1053D000680F6093A60108958FEF8093A60108954A
:1053E0008091A501482F460F5527551F4F3F510566
:1053F00024F4680F6093A50108958FEF8093A501B1
:1054000008958091A401482F460F5527551F4F3FFF
:10541000510524F4680F6093A40108958FEF8093E1
:10542000A40108958091A301482F460F5527551FC9
:105430004F3F510524F4680F6093A30108958FEF47
:105440008093A30108958091A201482F460F55270C
:10545000551F4F3F510524F4680F6093A201089532
:105460008FEF8093A2010895843071F138F4823077
:10547000A9F08330F1F0813031F00895853079F171
:105480008630C1F108958091C703681720F4861B08
:105490008093C70308951092C70308958091A601D1
:1054A000681720F4861B8093A60108951092A60128
:1054B00008958091A501681720F4861B8093A501AB
:1054C00008951092A50108958091A401681720F411
:1054D000861B8093A40108951092A40108958091E1
:1054E000A301681720F4861B8093A30108951092EE
:1054F000A30108958091A201681720F4861B809370
:10550000A20108951092A20108950F931F93CF93C3
:10551000DF9300D000D0CDB7DEB741E050E060E0CF
:1055200070E08A019B0104C0000F111F221F331F6E
:105530008A95D2F709831A832B833C83C901B8016A
:105540000E94DE210F900F900F900F90DF91CF916E
:105550001F910F910C941B1E8A3258F48630D0F0A4
:10556000EAEFE80FE432B0F4F0E0E051F94C0C94CB
:105570004D36833450F48A3308F066C0853309F41D
:105580005FC0883339F481E00895833409F458C04A
:10559000883459F080E008958091C303807F809320
:1055A000C30381E08093D10308950E941B1E2FEF57
:1055B00083ED90E3215080409040E1F700C000006F
:1055C0000E944B27E0CF9091C303892F8E7F90FFDD
:1055D00081608093C30380FDD6CF817F8093C30316
:1055E000D2CF9091C303892F8D7F91FF82608093EA
:1055F000C30381FFC8CF8091C3038160EFCF909137
:10560000C303892F8B7F92FF84608093C30382FD45
:10561000F2CFB9CF9091C303892F877F93FF886022
:105620008093C30383FDE7CFAECF0E941B1E9091F2
:105630003D04892F97FB87F9805880933D04A3CFC1
:1056400080E00E94852A9FCF8953FBCF8D51F9CFEF
:1056500080E008950C94282B8E518A3030F4E82F86
:10566000F0E0E65AFD4F8081089580E00895CF93E1
:10567000C82F8091D1038130D1F0823009F43EC02F
:10568000811182C0E091A001F091A101808181315E
:1056900019F0823209F07AC08C2F0E94282B8111D8
:1056A00020C08C2F0E94AC2A8170CF910895E09188
:1056B000A001F091A1018081813171F3823261F307
:1056C0008C2F0E942A2B81110AC0C431A1F060F4F2
:1056D000CB3029F0C03141F782E08093D10381E0E3
:1056E000E3CF81E090E0E0CFC93229F081E0C83318
:1056F000D9F280E0D9CF1092D103FBCFCB3469F13E
:1057000098F4C43240F4CE3100F5C73061F1C431B1
:1057100021F081E0CACFC932E1F78091D00388231C
:1057200081F01092D003F5CFC135A9F061E0C23508
:10573000A9F06AE0CE3469F78091D0030E94342A40
:10574000E8CF81E08093D103B0CF8C2F0E942C2B27
:105750008093D003DECF61E0EFCF6AE08091D00389
:105760000E94BC29D6CF1092C70384E18093A60182
:10577000C093A5018CE38093A40188E08093A301EA
:1057800088E28093A201C5CF1092D10380E08DCF33
:105790008091F20308950F931F93CF93DF9300D06E
:1057A0000F92CDB7DEB78C010E94372E823011F0F8
:1057B000843021F584E089830A831B8382E080930F
:1057C000E9008FEF9091E800815095FD06C095EDBE
:1057D0009A95F1F700008111F5CF8091E80085FFDF
:1057E0000DC050E040E063E070E0CE0101960E9401
:1057F000542E8091E8008E778093E8000F900F90F0
:105800000F90DF91CF911F910F910895CF93DF9368
:1058100000D00F92CDB7DEB79C0180914304843055
:1058200031F583E08983205831093B832A8382E064
:105830008093E9008FEF9091E800815095FD06C0BC
:1058400095ED9A95F1F700008111F5CF8091E80070
:1058500085FF0DC050E040E063E070E0CE010196AE
:105860000E94542E8091E8008E778093E8000F907C
:105870000F900F90DF91CF910895CF93DF93D82FA2
:10588000C92F0E94372E823011F0843001F582E05A
:105890008093E9008FEF9091E800815095FD06C05C
:1058A00095ED9A95F1F700008111F5CF8091E80010
:1058B00085FF0DC050E040E066E070E08D2F9C2F2A
:1058C0000E94542E8091E8008E778093E800DF914B
:1058D000CF910895CF93DF93D82FC92F0E94372EF1
:1058E000823011F08430C9F58091B1018823C1F173
:1058F00080913D0487FF34C060E282E08093E9003C
:105900008FEF9091E800815095FD06C095ED9A9536
:10591000F1F700008111F5CF8091E80085FF1DC0EF
:105920008091B10170E050E040E0811104C050E08E
:1059300040E068E070E08D2F9C2F0E94542E8091F3
:10594000E8008E778093E80080E2ED2FFC2FA2ED37
:10595000B3E001900D928A95E1F7DF91CF91089520
:1059600068E081E0CBCF80914204811109C00E94A0
:10597000DC2F0E9439308091E20084608093E20045
:105980000895109242040895089508950C94BE2637
:1059900042E061EC81E00E94582F42E261EC82E03B
:1059A0000C94582F80914504893089F148F4823055
:1059B00009F49BC0833009F456C0813041F008954A
:1059C0008A3009F482C08B3009F468C00895809150
:1059D0004404813A09F046C08091E800877F8093B3
:1059E000E8008091480490914904892B61F460E2B9
:1059F00082ED93E070E00E94A32E8091E8008B7707
:105A00008093E800089560E090E080E0F3CF80911B
:105A10004404813239F580914804909149040297F9
:105A200008F58091E800877F8093E8008091E80086
:105A300082FF14C08091B101882329F08091F10088
:105A40008B7F813021F48091F1008093F20380916B
:105A5000E8008B778093E8000C948C2F80914304AE
:105A60008111E4CF089580914404813AD9F780915F
:105A7000480490914904892BA9F78091E800877F19
:105A80008093E8008091E80080FFFCCF8091B10115
:105A90008093F1008091E8008E77DCCF8091440400
:105AA000813201F78091480490914904892BD1F605
:105AB0008091E800877F8093E8000E948C2F80917E
:105AC00046048093B1010C941B1E809144048132E2
:105AD00049F68091E800877F8093E8000E948C2F30
