:100000000C94C4040C94E1040C94E1040C94E104F9
:100010000C94E1040C94E1040C94E1040C94E104CC
:100020000C94E1040C94E1040C9457250C942A26BA
:100030000C94741F0C94E1040C94E1040C94E104FE
:100040000C94E1040C94E1040C94E1040C94E1049C
:100050000C94E1040C940C200C94E1040C94E10445
:100060000C94E1040C94E1040C94E1040C94E1047C
:100070000C94E1040C94E1040C94E1040C94E1046C
:100080000C94E1040C94E1040C94E1040C94E1045C
:100090000C94E1040C94E1040C94E1040C94E1044C
:1000A0000C94E1040C94E1040C94E10400000000C1
:1000B00000000000000000000000140004001D000B
:1000C0000000290000001A0016001B0000002C0090
:1000D0000000080007000600000024520000150080
:1000E0000900190029000000000017000A0005009F
:1000F0000000000000000000000000000000475267
:1001000000000000000000000000000000001C00D3
:100110000B00110000000000000018000D0010008E
:100120000000000000000C000E0036000000265207
:10013000000012000F0037000000E1000000130073
:1001400033003800000023520000000000000000CF
:10015000000000000000000000000000000000009F
:10016000000000000000000000000000000000008F
:10017000000000000000000000000000000000007F
:10018000000000000000000000000000000000006F
:10019000000000000000000000000000000000005F
:1001A000000000000000000000000000000000004F
:1001B000000000000000000000000000000000003F
:1001C000000000000000000000000000000000002F
:1001D000000000000000000000000000000000001F
:1001E000000000000000000000000000000000000F
:1001F00000000000000000000000000000000000FF
:1002000000000000000000000000000000000000EE
:1002100000000000000000000000000000000000DE
:1002200000000000000000000000000000000000CE
:1002300000000000000000000000000000000000BE
:1002400000000000000000000000000000000000AE
:10025000000000000000000000000000000000009E
:10026000000000000000000000000000000000008E
:10027000000000000000000000000000000000007E
:10028000000000000000000000000000000000006E
:10029000000000000000000000000000000000005E
:1002A000000000000000000000000000000000004E
:1002B00000001E002F0231020000000000001F009D
:1002C00035000000000000000000200034002F0274
:1002D000000000000000210034022F000000000098
:1002E000000022002D002D02000000000000000090
:1002F00000000000000000000000000000000000FE
:1003000000000000000023002E022E00000000006C
:1003100000002400407E30000000000000002500A6
:10032000417E30020000000000002600427E0000F6
:100330000000000000002700437E310000000000A4
:1003400000000000000000000000000000000000AD
:1003500000000000000000000000457E437E5001C8
:10036000000000000000447E427E4F0100000000BB
:1003700000002B03417E41520000000000002B01D1
:10038000407E4600000000000000290028002B00ED
:10039000000000000000000000000000000000005D
:1003A0000000000000000000000000000000290024
:1003B00028002B000000000000004A0050004B0005
:1003C0000000000000004D0051004E000000000041
:1003D00000002A00520000000000000000004C0055
:1003E0004F000000000000000000000000000000BE
:1003F00000000000000000000000000000000000FD
:1004000000005900437E3A000000000000005A003E
:10041000427E3B000000000000005B00417E3C008B
:100420000000000000005C00407E3D000000000075
:1004300000005D0044003E000000000000000000DD
:1004400000000000000000000000000000000000AC
:100450000000000000005E0045003F0000000000BA
:1004600000005F00407E40000000000000006000CF
:10047000417E41000000000000006100427E420019
:100480000000000000006200437E43000000000006
:10049000000000000000000000000000000000005C
:1004A0000000000000000000000000000404000044
:1004B0000000000000000000070400000000000031
:1004C0000000000016040000000000000000000012
:1004D00009040000000000000000170400000000F4
:1004E000000000000000000000000000000000000C
:1004F00000000000000000000000000000000000FC
:100500000000000000000000000000000D041004C6
:100510000000000000000C040F04000000000000B8
:10052000000000000E0400000000000000000000B9
:100530003304000000000000000000000000000084
:10054000000000002E0000002A52E100E30000003D
:100550001E00140004001D21E20029521F001A0091
:1005600016001B0000002A002000080007000600FB
:1005700000072C00210015000900190029004A007D
:10058000220017000A00050000004052477E350295
:100590000000000F0000E300487E30000000000F64
:1005A0000000E20023001C000B00110000002900E5
:1005B000240018000D00100029004B0025000C003D
:1005C0000E00360000072800260012000F0037003A
:1005D00000002B002700130033003821E6002952C9
:1005E0002D0031003400E500E700000001000100AB
:1005F0000100E10001000000010001000100010014
:1006000001000100010001000100010001000100E2
:1006100001000100010001000100010001000100D2
:1006200001000100010001000100010001000100C2
:100630000000010001003100000001000000010085
:100640000100300000000100000001000100010075
:100650000100010000000100010001000100010093
:100660000100010001000100010001000100010082
:100670000100010001000100010001000100130060
:10068000330001000100010001002F003400E500EB
:100690000100000001000100010001000100000054
:1006A0003A001E0236020100010001003B001F0259
:1006B0002F000100010027783C0020022F023802A1
:1006C000010028783D0021022602350201000100C8
:1006D0003E00220235000100000021783F000100A9
:1006E0000000010000000100010001000000010005
:1006F0000000207840002302005701000000467EE1
:1007000041002402270201000100010042002502ED
:10071000300201000100237843002D003000010069
:100720000100247844002E0237020100010001007C
:10073000450001000100010001000000010001006E
:1007400001000100010000000100010001000100A2
:100750000100010001000100010001000100010091
:100760000100010001000100010001000100010081
:100770000100010001000100010001000100010071
:100780000000010001000100000001000000010064
:1007900001000100000001000000010001004A000A
:1007A000500001000000010001004E005100010056
:1007B0000100010001004B00520001000100010096
:1007C00001004D004F000100010001000100010087
:1007D0000100010001000100010001000100010011
:1007E0000100000016034500720067006F0044001E
:1007F0006F007800200045005A00000028035A00CE
:1008000053004100200054006500630068006E0042
:100810006F006C006F006700790020004C006100E1
:10082000620073000000040309040902540003017C
:1008300000A0FA09040000010301010009211101CF
:10084000000122440007058103080001090401009A
:1008500001030102000921110100012247000705DF
:1008600082030800010904020001030000000921BD
:1008700011010001226D0007058303200001120110
:1008800000020000000897327449010001020001D3
:1008900005010980A101850319012AB70015012668
:1008A000B700950175108100C0050C0901A10185F3
:1008B0000419012AA002150126A0029501751081D4
:1008C00000C005010906A1018506050719E029E711
:1008D000150025019508750181020507190029EF0A
:1008E0001500250195F075018102050819012905FA
:1008F000950575019102950175039101C0050109E6
:1009000002A1010901A10005091901290815002505
:10091000019508750181020501093009311581250C
:100920007F95027508810609381581257F95017527
:10093000088106050C0A38021581257F9501750886
:100940008106C0C005010906A101050719E029E7D4
:100950001500250195087501810295017508810131
:100960000507190029FF150026FF00950675088167
:100970000005081901290515002501950575019146
:1009800002950175039101C011241FBECFEFDAE07B
:10099000DEBFCDBF11E0A0E0B1E0E6E1F4E502C0CA
:1009A00005900D92AA3AB107D9F723E0AAEAB1E07F
:1009B00001C01D92A630B207E1F70E945F180C94A7
:1009C000C3290C9400008098889A8198899A849809
:1009D0008C9A85988D9A86988E9A87988F9A089582
:1009E000209828982198299822982A9823982B981B
:1009F00052985A9853985B983E9846980895CF938A
:100A0000C82F873078F58091060190910701892BD6
:100A100039F564E670E080E40E947320909307014A
:100A200080930601892BD1F464E670E082E10E9494
:100A3000E3209093070180930601892B79F481E0EC
:100A400090E001C0880FCA95EAF764E670E08095EF
:100A50000E94E32090930701809306010E943821B1
:100A6000CF9108958B30C1F048F4893079F08A3005
:100A700081F0883041F0209A2898F2CF8C3079F4B8
:100A8000539A5B98EDCF219A2998EACF229A2A9817
:100A9000E7CF239A2B98E4CF529A5A98E1CF3E9A07
:100AA0004698DECFCF93DF93873058F580910601CB
:100AB00090910701C0E0892B71F464E670E081E455
:100AC0000E9473209093070180930601892B39F0CF
:100AD000C0E00E9438218C2FDF91CF91089584E6E9
:100AE00090E00E941321EC0197FF05C0909307014D
:100AF00080930601EDCFC095109207011092060178
:100B0000E8CFCFB12FB1269526952C73C3702C2B2F
:100B1000C22FC095E0CF0E94070790E09093070195
:100B2000809306010E94F0040E94E3040895A3E06C
:100B3000B0E0EDE9F5E00C940C288091060190916D
:100B40000701892B91F08091AC018F5F8093AC01FC
:100B500081110BC00E94070790E0909307018093DA
:100B60000601892B11F40E949A0605ED12E01A8203
:100B70001B828A81895F89838A810E94FF0489811F
:100B80000E94FF048A810E9452058F73F80191919F
:100B90008F01F12C891721F031978083FF24F39482
:100BA00089810E9452058F73F8019681891791F00F
:100BB000868381E08F29FB81F82BFB830E94F00460
:100BC0008A818F5F8A838730A1F68B812396E5E047
:100BD0000C94282880E0EECF0E94070790E09093C5
:100BE0000701809306010E94F0040E94E304E3EEF3
:100BF000F2E0119282E0E13FF807D9F70895FF9201
:100C00000F931F93CF93DF93EC01F62EC901F801E8
:100C1000258184179507B1F48881222341F0811141
:100C200003C0862F0E94B00A82E0888304C082300D
:100C300039F0833081F0CDB7DEB7E5E00C94282899
:100C400081E0F3CF222361F00E94A507882399F366
:100C50008881882381F318828F2D0E94410BEBCF6E
:100C60000E94B5078111E7CF88818130A1F38230DE
:100C700011F783E0DACFB0E0A0E0E1E4F6E00C9415
:100C80000828EC01862FB42EF701D601E216F306F0
:100C9000B9F415969C91992379F09881911104C02B
:100CA00091E098830E94B00A8B2D0E94B00ACDB7C4
:100CB000DEB7E9E00C9424288B2D0E94410BF7CF7E
:100CC00098819923A1F3E016F10689F3EF54F10915
:100CD000329768F30E94410B1882E9CF259A2D9A2A
:100CE0000895269A2E9A0895279A2F9A089556982D
:100CF0005E98089525982D98089526982E98089521
:100D000027982F9808950E9477060E947A060E94DD
:100D10007D060E948006089590E09093890080935C
:100D2000880090938B0080938A0090938D0080932D
:100D30008C0008950E9483068FEF0E948C060E940B
:100D40006E062FEF80E792E0215080409040E1F75F
:100D500000C000000E9471062FEF80E792E0215052
:100D600080409040E1F700C000000E9474062FEF21
:100D700080E792E0215080409040E1F700C0000001
:100D80000E947A062FEF80E792E021508040904049
:100D9000E1F700C000000E947D062FEF80E792E09F
:100DA000215080409040E1F700C000000E94800682
:100DB0000E948306089589EA8093800089E08093E9
:100DC000810024982C983F988AB18F7C8AB96E98BC
:100DD000479A8BB180638BB9769A0E94EC1360932B
:100DE000CF027093D0028093D1029093D2026770A9
:100DF0002FEF629FC0011124959587959595879552
:100E00000E948C060E949A060E946F08089580E254
:100E100090E090930701809306018091AD018111CC
:100E20000EC00E946D2081E08093AD012FEF83ED15
:100E300090E3215080409040E1F700C0000064E65C
:100E400070E080E40E947320909307018093060174
:100E5000892B09F04EC064E670E080E00E94E32038
:100E60009093070180930601892B09F042C064E644
:100E700070E080E00E94E3209093070180930601D8
:100E8000892BB9F564E670E08FE30E94E32090932C
:100E9000070180930601892B61F50E94382164E6E1
:100EA00070E080E40E947320909307018093060114
:100EB000892BF9F464E670E08CE00E94E3209093C3
:100EC000070180930601892BA1F464E670E080E0BD
:100ED0000E94E3209093070180930601892B49F437
:100EE00064E670E08FE30E94E32090930701809313
:100EF00006010E943821809106010895A4E0B0E027
:100F0000E4E8F7E00C940F281092CF021092D00280
:100F10001092D1021092D20284E080618093CF02BD
:100F20008091CF029091D002A091D102B091D202D3
:100F3000BC01CD010E94F1130E94FF132496E2E050
:100F40000C942B280E947D1708959C01253282E580
:100F5000380730F481E02332324530F480E004C0B9
:100F600081E026323245D1F708959C01263282E590
:100F7000380799F058F4213E310579F02352324573
:100F800081E02230310540F080E0089520543E4752
:100F900081E024303105C0F7089581E0FDCFB0E055
:100FA000A0E0E5EDF7E00C940728D82FC92F5B01EE
:100FB0006B01E82EF92E00E41EE724E43EE74BE245
:100FC00050E063EE70E083EB91E00E943B0625E485
:100FD0003EE74BE250E060EE70E082EB91E00E9471
:100FE0003B0685012D2F3C2F40E45EE761EE70E06B
:100FF00081EB91E00E94FF052D2F3C2F41E45EE73D
:1010000060EE70E080EB91E00E94FF052D2F3C2FF9
:1010100042E45EE762EE70E08FEA91E00E94FF0535
:101020002D2F3C2F43E45EE763EE70E08EEA91E003
:101030000E94FF0581E0CDB7DEB7EAE00C942328DB
:101040000F931F93CF93DF938B01D82FC92F0E944B
:1010500077060E947A060E947D060E948006B801EB
:101060008D2F9C2F0E94E3098150873040F4E82F98
:10107000F0E0EB53F64D0C94F9270E946E06DF91D9
:10108000CF911F910F9108950E946E060E947106E4
:10109000F6CF0E946E060E947406F1CF0E946E0683
:1010A0000E947106F8CFA6E0B0E0E9E5F8E00C9404
:1010B0000F288D839E83AD81BE81CD01B0E0A0E07D
:1010C000BC01CD010E94200825E044E063E08D8151
:1010D0009E810E94D70F2696E2E00C942B2808955B
:1010E0008B30B8F46E30A8F4463098F4E42FF0E07A
:1010F00096E0699FE00DF11D112494E5899FE00DB4
:10110000F11D1124EE0FFF1FE455FF4F85919491BF
:10111000089581E090E008950E94700808959C0170
:101120009A9581159F4150F5D901AA27B170F9010F
:10113000EE27F270B90166277470A9014427587030
:1011400034FF0EC080E1AB2B09F480E0EF2B09F0F7
:101150008062672B09F08064452B89F080680895D0
:1011600081E0AB2B09F480E0EF2B09F08260672B64
:1011700009F08460452B19F08860089580E0089597
:10118000CF93DF93EB010E948F08FE010995DF9159
:10119000CF910895CF93DF93EC01805E910908977A
:1011A00020F06BEF7DE0209711F46CEB7BE0CE013B
:1011B0000E94C0088C2F0E94B00ADF91CF91089541
:1011C000CF93DF93EC010E94410BCE01805E910929
:1011D000089720F062E07EE0209711F463EC7BE05A
:1011E000CE010E94C008DF91CF91089581E008955B
:1011F0000E94F608089581E008950E94CF0708959F
:1012000008950E9400090895A6E0B0E0EAE0F9E040
:101210000C940E2849835A839E833091B9018981A9
:101220009A8131111AC03E81332399F0222389F02B
:101230000E946F0F182F682F89819A810E944B0F8F
:1012400069817A81812F0E945A162696E3E00C94D8
:101250002A280E945D0F182FF3CF0E946F0F69811B
:101260007A81F1CFFC01262F408151816281738107
:10127000848195810E9404090895CF93DF93D82F2C
:10128000C92F61E00E9432096D2F7C2F0E94F8085F
:10129000DF91CF910895CF93DF93D82FC92F60E0CE
:1012A0000E9432096D2F7C2F0E940109DF91CF919E
:1012B000089508950E941F0E0E9459092FEF84E39C
:1012C0009CE0215080409040E1F700C0000008956C
:1012D0000E945A090E94302008950E945A090E94D3
:1012E000622008950F931F93CF93DF938C0161E0E9
:1012F0000E943209EC01B8010E94091D882329F0DF
:1013000061E0C8010E943209EC01B801CE010E94DF
:10131000FD08811106C080E0DF91CF911F910F91F0
:101320000895B801CE010E94321D8823A1F3B801AF
:10133000CE010E945D1C882371F3B801CE010E948A
:10134000F31A882341F3B801CE010E94CF1B8823F2
:1013500011F3F8018581882381F0CA35FCE7DF07A6
:1013600011F178F4C130ECE7DE07D1F0C330FCE7CF
:10137000DF07A1F0C115DC4771F0C8010E94FB082E
:10138000CBCFCB35ECE7DE0789F0CC35DC47A9F7CE
:101390000E94B313F2CF0E946809BDCF0E94C5130B
:1013A0000E946D09B8CF0E94BD13E7CF0E94C11300
:1013B000E4CF0E94521F0E944B0A08950E944F0AD8
:1013C0000E94561F08950F931F93462F572FBC015D
:1013D000CB01AA27BB270097A105B105E9F1AC0114
:1013E000BD0180E1052F162F272F33270115110589
:1013F0002105310519F0885FB901A8018A019B0117
:10140000F4E03695279517950795FA95D1F70115CC
:1014100011052105310519F08C5FB901A8018A0178
:101420009B01E2E03695279517950795EA95D1F748
:10143000011511052105310519F08E5FB901A801CB
:101440007695679557954795452B462B472B09F081
:101450008F5F1F910F91089580E0C4CF089581E0C0
:1014600008950895CF93DF93D82F0E942F0AC82F95
:10147000882319F08D2F0E94310A8C2FDF91CF9194
:1014800008950895CF93C82F0E942E0A8C2F0E9492
:10149000320ACF91089580E00E94420A08950E9486
:1014A000BD1D0E94420A0895CF930E94BD1DC82F02
:1014B0008091B4018C1779F0C093B4010E94E01FB1
:1014C0006093B5017093B6018093B7019093B80112
:1014D0008C2F0E94420ACF910895ADE0B0E0E3E77F
:1014E000FAE00C940F28488759876A877B878C8796
:1014F0009D8791110E94E8121F8286E0FE013896B6
:10150000DE01119601900D928A95E1F78D8181118E
:101510000DC029813A814B815C816D817E818F81F3
:101520000E9415122D96E2E00C942B28CE01019614
:101530000E943D098111EDCFF5CFFC0184818130FE
:1015400021F4808191810E94A10F0895662329F0E2
:101550000E94F6180E94C91908950E945019FACFE6
:10156000CF93C82F8823C9F08238C9F40E94CA1DBE
:1015700081FD13C089E30E949B120E9424132FEF68
:1015800037EE83E0215030408040E1F700C000009A
:1015900089E30E94A3120E942413CF9108958338F7
:1015A000A1F40E94CA1D80FDF8CF83E50E949B1222
:1015B0000E9424139FEF21EE34E0915020403040F0
:1015C000E1F700C0000083E5E4CF8438A1F40E9475
:1015D000CA1D82FDE2CF87E40E949B120E94241361
:1015E0008FEF91EE24E0815090402040E1F700C061
:1015F000000087E4CECF8CEF8C0F813A90F46C2FF3
:1016000080911C0190911D010E94531E882329F096
:101610008C2F0E94A3120E9424138C2F0E949B12D5
:10162000BACF80E28C0F883048F4C77081E001C0E7
:10163000880FCA95EAF70E94C612ADCF8BE58C0FD2
:10164000833038F42C2F2452330BC9010E94F31D30
:10165000A4CFE8E5EC0FEB3150F4F0E0EE0FFF1F04
:10166000E25DFE4F808191810E94191E96CF83E337
:101670008C0F833108F091CF61E08C2F0E94A60A75
:101680008CCF882309F456C0823879F40E94CA1D91
:1016900081FF50C089E30E949B120E94241389E3BA
:1016A0000E94A3120E9424130895833859F40E94C3
:1016B000CA1D80FF3FC083E50E949B120E94241335
:1016C00083E5EECF843859F40E94CA1D82FF32C0F0
:1016D00087E40E949B120E94241387E4E1CF9CEFD1
:1016E000980F913AE8F290E2980F983050F4877092
:1016F00091E001C0990F8A95EAF7892F0E94CC12D8
:10170000D1CF9BE5980F933028F490E080E00E94C1
:10171000F31D089598E5980F9B3128F490E080E040
:101720000E94191E089593E3980F933118F460E016
:101730000E94A60A08951F93CF93DF93182FEB0101
:101740000E94B00A209739F4812F0E94410BDF914B
:10175000CF911F9108958FE99FE00197F1F700C0A5
:1017600000002197EFCF70E060E0893311F460E56D
:1017700070E00E949B0B0895882321F00E94C612FE
:101780000E9424130895882321F00E94CC120E9405
:1017900024130895B0E0A0E0E0EDFBE00C940728EE
:1017A0006C01D62FC72FFC011581068102950F70A1
:1017B0000E94BC12E82E8823E9F0E12E1123D1F01B
:1017C0008C2F807F803451F080E28D0F8830F0F0D4
:1017D000011104C08C2F807E8032C1F08091D40230
:1017E00082FF14C082E00E9487130E94BC1291E025
:1017F000E82EE9268C2F82958F70A82EB12C8C3084
:10180000B0F5F501E453F64D0C94F927E12CF2CF35
:101810000C2F0F70C07F11F00295007F112399F0FB
:10182000002359F080E28D0F883010F0D11107C0ED
:10183000802F0E94C6120E9424138D2F5CC0802F1F
:101840000E94DA12F8CF8D2F0E94410B002379F00D
:1018500080E28D0F883010F0D11104C0802F0E94DB
:10186000CC1203C0802F0E94E0120E94241388E053
:10187000A81AB10894E0A916B10420F40E94BD1D75
:101880000E94420AEE2089F00E94B81280FD0DC02D
:10189000F60115820E94B2120E94A80EC6010E9493
:1018A000D80D0E94B2120E94B80ECDB7DEB7EAE0A2
:1018B0000C942328FC2FFF70FF2EC07FC03219F03C
:1018C000F29480EFF822DD2341F0D130D1F11123E1
:1018D00009F443C00023F1F0B0CF8091D40282FD1F
:1018E00015C0112359F0FF2029F08F2D0E94C61238
:1018F0000E94241380E00E94B00AB9CF80E00E94C9
:10190000410BFF2009F4B3CF8F2DA9CF112369F02C
:10191000011104C08F2D0E94BC0BA9CF013009F02A
:10192000A6CF8F2D0E940213A2CF0111A0CF8F2D21
:101930000E94C30B8F2D0E940E138F2D0E94F21256
:1019400096CF112321F0023008F091CFE3CF01119F
:101950008ECF8F2D0E94C30B8ACF0023D1F3D933B2
:1019600049F42FEF87EE93E0215080409040E1F75B
:1019700000C000008D2F0E94410B79CF8C2F8695DF
:101980008695837069F0813009F071CF8D2F9C2F7F
:101990009370111102C080E090E00E94191E67CF81
:1019A0008D2F9C2F9370111102C080E090E00E9457
:1019B000F31D5DCF612F8D2F0E94A60A58CF8C2F6B
:1019C0008370A9F5111153CF4D2F4295469547705D
:1019D000440F440F2D2F2F7030E0042E02C0220F31
:1019E000331F0A94E2F790E080E0D4FF09C08FE053
:1019F00090E002C0880F991F4A95E2F78095909574
:101A0000C695C695C370822B932BC23051F0C3305C
:101A100059F0C13019F00E947B0E29CF0E94720E3E
:101A200026CF0E94840E23CF0E946F0E20CF869572
:101A3000112311F08C2F8170882309F418CF4D2FBA
:101A4000429546954770440F440F2D2F2F7030E07C
:101A5000042E02C0220F331F0A94E2F790E080E0C8
:101A6000D4FF09C08FE090E002C0880F991F4A950B
:101A7000E2F780959095C695C695C370822B932BFF
:101A8000C23051F0C33059F0C13019F00E94E30E5A
:101A9000EECE0E94DA0EEBCE0E94EC0EE8CE0E9453
:101AA000900EE5CECF70112329F08C2F0E94A80E46
:101AB0008D2F31CF8D2F0E94C30B8C2F0E94B80E1B
:101AC000D6CED23F39F160F4D03FB9F0D13F81F0AA
:101AD000112309F445C00111B0CE8C2F8F711EC0A7
:101AE000D33FF9F0D43FA1F78091D40282FD23C007
:101AF0008C2F8F71112311F311C0112339F00111B3
:101B0000B6CE8C2F8F710E94CA0EB1CE023008F073
:101B1000AECEF7CF8C2F8F711111D0CF0E94A80EAF
:101B2000A6CE112329F08C2F8F710E949C0E9FCE80
:101B30000E94970E9CCE112349F0CF718C2F0E94EA
:101B4000A80E63E08C2F0E94691391CE81E00E9461
:101B50008713023008F48BCE82E00E94871387CE71
:101B6000002359F0D93309F005CFEFEFF7EE23E06A
:101B7000E150F0402040E1F7FBCE8C2F8F719ECFDB
:101B80000F931F93CF93DF93EC01688179818D814F
:101B90000E94AE0F8C010E94F50E0E946E0EB801DD
:101BA000CE010E94CA0BDF91CF911F910F91089532
:101BB000CF93DF93EC018C81882399F0CE010E94B2
:101BC0007209811111C00E94BC12882351F08D81CD
:101BD000882339F08091D40282FF03C082E00E9402
:101BE0008713DF91CF910895CE010E94C00DCE01E1
:101BF0000E944B09F6CF882321F00E94DA120E943E
:101C000024130895882321F00E94E0120E942413D7
:101C1000089590E080E00E94F31D90E080E00E9433
:101C2000191E0E94E8120E9424130E94E4190E94C7
:101C3000C91908950E94AB120E94090E08950E94CE
:101C4000D4120E941A0E0895282F92959F709630F4
:101C500091F060F4925F9F70923030F481E0203F09
:101C600081F030F4283E30F080E008959A5FF3CFA1
:101C7000243FD1F7089581E0283EE0F3213FA1F70A
:101C8000F9CF0895FC018481882339F08081918106
:101C90000E94A10F0E94240E089580E00895A6E0FE
:101CA000B0E0E5E5FEE00C940F282696E2E00C9407
:101CB0002B28A7E0B0E0EFE5FEE00C940F28279674
:101CC000E2E00C942B2808950E94630E08950E9470
:101CD000640E9093E9018093E801089508950E94AD
:101CE000670E08952091E8013091E901822B932B32
:101CF0000E94670E08952091E8013091E901822346
:101D000093230E94670E08952091E8013091E90124
:101D1000822793270E94670E08950E945308089512
:101D20000E948D0E9093E7018093E601089590E064
:101D300080E00E94900E089521E030E0A90102C0E9
:101D4000440F551F8A95E2F7CA010E94900E08952C
:101D500021E030E002C0220F331F8A95E2F7809124
:101D6000E6019091E701822B932B0E94900E08953B
:101D700021E030E002C0220F331F8A95E2F7209560
:101D800030958091E6019091E701822393230E9490
:101D9000900E089521E030E002C0220F331F8A9593
:101DA000E2F78091E6019091E701822793270E9454
:101DB000900E08952091E6013091E701822B932B3C
:101DC0000E94900E08952091E6013091E701822350
:101DD00093230E94900E08952091E6013091E7012F
:101DE000822793270E94900E089508959B016770A3
:101DF00091E001C0990F6A95EAF763E0369527955F
:101E00006A95E1F7220F331F220F331FFA01E20F09
:101E1000F31F50E040E0682F70E08191DF011197DF
:101E20009B01042E02C0369527950A94E2F7217093
:101E300021952827292328272C934F5F5F4F443073
:101E4000510559F708959C01982F977083E03695B6
:101E500027958A95E1F7220F331F220F331FFB01CD
:101E6000E20FF31F50E040E080E0219130E0092EC6
:101E700002C0369527950A94E2F721703327042E85
:101E800001C0220F0A94EAF7822B4F5F5F4F443064
:101E9000510559F70895282F862F9E3068F4263073
:101EA00058F4622F70E026E0929F600D711D11249E
:101EB0004AEB51E00E94F60E0895292F9E3068F4F7
:101EC000863058F490E06AEB71E036E0239F800D95
:101ED000911D11240E94230F089580E00895B0E021
:101EE000A0E0E5E7FFE00C9408288C01E090E60113
:101EF000F090E7018091E8019091E901E82AF92A40
:101F0000CFE0D0E0CC24C394D12CBC2EC6010C2E43
:101F100002C0880F991F0A94E2F78E219F21892B16
:101F200049F4219790F7B12C8B2DCDB7DEB7E9E0BE
:101F30000C942428B8018C2F0E946616019789F30F
:101F4000F3CFCF93DF93D82FC92F0E946F0F6D2F40
:101F50007C2F0E946616DF91CF9108951F93CF9337
:101F6000DF93162FD72F9091B901992341F0862F37
:101F7000972F0E94A10FDF91CF911F910895882381
:101F800081F0862F972F0E946F0FC82F682F812F07
:101F90009D2F0E944B0F612F7D2F8C2F0E94661664
:101FA000EACF862F972F0E945D0FC82FF4CFFC0138
:101FB00081E090E0DC0102C0AA0FBB1F6A95E2F746
:101FC000BD01DC0102C0AA0FBB1F4A95E2F7AD01BB
:101FD000462B572B02C0880F991F2A95E2F79A01CA
:101FE0002E233F232417350719F48E2B9F2B08959A
:101FF000809590958E239F2308951F93CF93DF9311
:10200000E091EA0117E08091EB018E1304C0DF91AB
:10201000CF911F910895CE2FD0E01E9FF001112483
:10202000E451FE4F20813181428153816481758169
:1020300086810E94590EFE013196E770E4CF20910F
:10204000240230912502409126025091270260918E
:1020500028027091290280912A020E94590E089547
:10206000CF93DF9380912A02807F09F04DC0809149
:102070002902882309F448C0E091EA015091EB015C
:10208000C0912502D091240260912602709127020E
:1020900047E05E17C9F18E2F90E0E49FF001112414
:1020A000E451FE4F2481222391F1489FF001499F82
:1020B000F00D1124DF01A451BE4F11962C91119700
:1020C0002C1325C02C912D1322C015962C911597F9
:1020D00021111DC012962D913C91261B370B283CD7
:1020E0003105A8F480912A028F70806180932A02C2
:1020F000EE50FE4F80818F708061808384E292E099
:102100000E94D80D0E94FD0FDF91CF910895FC0130
:102110003196E770BECF982FE091EA014091EB0134
:1021200057E0E41302C080E008952E2F30E05E9F58
:10213000F0011124E451FE4F8181681306C08081B3
:10214000981303C085818111EFCFF9013196E770B3
:10215000E8CFADE0B0E0EFEAF0E10C9405288C01A7
:1021600086E0F801DE01189601900D928A95E1F75C
:10217000F8018481E58094E2A92E92E0B92E909135
:10218000280291111FC08823D1F0EE20A9F0C801C8
:102190000E94420EF82E882379F087E0F801D501DD
:1021A00001900D928A95E1F7C5010E949D0A0E9457
:1021B00030100E941F105FC0C8010E94D80DFF247C
:1021C000F39459C0C080D18082809380F09029021E
:1021D0002091260230912702A401421B530BFF20BD
:1021E00009F4DBC0483C510508F0A7C0882309F476
:1021F00042C09091250280912A02282F207F09F069
:102200005CC0D91216C090912402C91212C0E1100C
:102210004EC08F70806180932A020E941F1084E25A
:1022200092E00E94D80D80912A02F8018683F12C59
:1022300022C0E1103CC06D2D8C2D0E948B106D2DA5
:102240008C2D0E948B10E82E8111F1CFC886D98683
:10225000888599850E94A10F292F22952F7090348F
:1022600078F49F702230A8F09923B9F0F801968194
:10227000907F99F4FE2C8F2D2D96ECE00C94212864
:102280002A5F2F70223068F0C8010E94D80DEF2C11
:10229000F1CF992311F0882369F3805E883050F3E1
:1022A000F3CF803F38F3815F833020F3EDCF80910F
:1022B0002A02816080932A02BACFD91213C090916A
:1022C0002402C9120FC0E1100DC08683C8010E940C
:1022D000D80D87E0F801A4E2B2E001900D928A9552
:1022E000E1F767CFC8010E94420E882309F464CF4A
:1022F000EE2009F461CF80912A02803288F020918B
:102300002402309125023A8329839C828B8290910A
:1023100028029D831E828F83CE0101960E94D80DD4
:1023200087E0F801A4E2B2E001900D928A95E1F70E
:102330000E9430100E941F1042CF90912A02292F34
:10234000207FA1F4682D9B868A86A6017B859E2D21
:102350000E944F0E84E292E00E94D80D87E0F501C2
:1023600011928A95E9F70E941F1061CF882309F422
:1023700082CF809125028D11B5CF80912402C812A1
:10238000B1CFE110AFCF9683C8010E94D80D87E08E
:10239000F50111928A95E9F76ECF483C5105B8F5E1
:1023A000882309F40CCFFE2CEE2009F405CF809190
:1023B00025028D111EC080912402C8121AC080917E
:1023C0002A0280FD0DC0982F907F51F08683903FA8
:1023D00009F47CCF982F907F905F8F70892B75CFF9
:1023E00087E0F801A4E2B2E001900D928A95E1F74E
:1023F00042CFC8010E94420E811192CF80912A02E1
:10240000816080932A02C8010E94D80D34CF682DC4
:102410009B868A86A6017B859E2D0E944F0E87E0B3
:10242000F50111928A95E9F7C4CEAEE0B0E0EBE198
:10243000F2E10C940E28288739874A875B876C87DE
:102440007D878E87CE0108960E94A9108823B1F05F
:102450006C85662341F0288539854A855B857D85B5
:102460008E850E94590E17E08091EA019091EB0150
:1024700089133EC02E96E3E00C942A2887E0FE01E3
:102480003896DE01119601900D928A95E1F74C8500
:10249000442349F32091EB0130E0C9010196877094
:1024A00099275091EA0158171906A1F04D8397E03A
:1024B000929FD001939FB00D1124A451BE4FFE01F5
:1024C000319601900D929A95E1F78093EB010E946D
:1024D000FD0FC9CF0E941F0E1092EB011092EA016E
:1024E00087E0E4E2F2E0DF011D928A95E9F7BBCFD5
:1024F000819FC001112484519E4F0E94A9108823FE
:1025000009F4B8CFE091EA011E9FF0011124E451D3
:10251000FE4F2081318142815381648175818681A2
:102520000E94590E8091EA0190E0019687709927E8
:102530008093EA0199CF682F80911C0190911D0131
:102540000E94D71E0895682F80911C0190911D0153
:102550000E94E51E089580911C0190911D010E942A
:10256000F31E089580914B02869586958695089571
:1025700080914B028770089590914B02977081E093
:1025800009F480E0089580916F02089590916F02A0
:10259000982B90936F020895982F909580916F02D9
:1025A000892380936F02089510926F02089580919D
:1025B0006E02089590916E02982B90936E0208958A
:1025C000982F909580916E02892380936E020895D2
:1025D00010926E02089580914D02089508950E9410
:1025E000EE12089590914C02292F282331F0809506
:1025F000892380934C020E94EF12089508950E944F
:10260000FE12089590914D02292F2823281729F0B2
:10261000982B90934D020E94FF12089590914D02C5
:10262000292F282331F08095892380934D020E9421
:10263000FF12089580914D02882329F010924D02D7
:1026400080E00E94FF120895CF93DF93E0911C0178
:10265000F0911D0180916F028083E0911C01F09147
:102660001D01808190916E02892B808390914D0293
:10267000992381F0E0911C01F0911D018081892B4B
:10268000808380911C0190911D010E943F1E811149
:102690000E941A13C0911C01D0911D0140E250E02C
:1026A0006BE272E0CE010E945E29892B59F080E234
:1026B000FE01ABE2B2E001900D928A95E1F7CE0106
:1026C0000E94CD1DDF91CF91089508950E9465135A
:1026D00008959091D40292FF11C098E0899F9001D3
:1026E0001124622B60934B020E94A80E80914B0232
:1026F0008695869586950E94661308950E94A80E79
:10270000089510924B0280E00E9466130895909104
:102710004B028095892380934B02282F277069F400
:10272000891759F09091D40292FF07C0869586953B
:1027300086950E94B80E0E94811308959091D4024C
:1027400092FB222720F9281769F080FB92F99093D9
:10275000D4028091D3029091D4020E94E61382E0C9
:102760000E94871308958091D40282FB882780F904
:1027700091E089270E949E13089581E00E949E1394
:10278000089580E00E949E1308956FEF7FEF90E020
:1027900080E00E94AD29089590E080E00E947929B0
:1027A0009C0181E0263E3E4F09F080E0089582E0E2
:1027B00090E00E946B29089583E090E00E946B29CD
:1027C000089584E090E00E9479290895BC0184E096
:1027D00090E00E94AD2908958FE090E00E94732957
:1027E0000895AB01BC018FE090E00E94A1290895FB
:1027F000AB01BC0183E190E00E94A129089560E053
:1028000070E0CB010E94F8130895A8E0B0E0EBE07F
:10281000F4E10C940F2866EE7EEF90E080E00E94D9
:10282000AD2960E082E090E00E948F2960E083E0C3
:1028300090E00E948F291092E9011092E80160E077
:1028400074E184E090E00E94AD2960E086E090E0D1
:102850000E948F296FEF87E090E00E948F2940E06F
:1028600050E0BA0188E090E00E94A12960E084E293
:1028700090E00E948F2960E087E190E00E948F291C
:1028800060E08CE090E00E948F2960E08DE090E0B5
:102890000E948F2919821A821B821C821D821E822D
:1028A0001F82188648E050E068E170E0CE01019692
:1028B0000E947F2940E050E0BA0180E290E00E944F
:1028C000A1290E947E072896E2E00C942B280E9402
:1028D00005140895682F8EE090E00E948F290895D6
:1028E000A6E0B0E0E6E7F4E10C940D280E94D41FC6
:1028F0008C0180917002909171028017910781F094
:1029000019821A820E94D41F682F49815A81792F17
:1029100080E090E00E946D0A1093710200937002B3
:102920002696E4E00C9429280E94E01F609384021C
:102930007093850280938602909387026093800251
:102940007093810280938202909383020895089588
:1029500008950E94A714089508950E94AC14089544
:102960008CE597E10E946C180E94A8140E94A9149B
:10297000089581E008950E94B91408950E94B91441
:102980000895089508950E94C1140E94C2140895E4
:102990000E945F170E94410A08950E94CB1F0E9467
:1029A00085170E94C8140E94AD140895A6E0B0E0F7
:1029B000ECEDF4E10C9406280E94BB1481110CC0CC
:1029C0000E9470140E94941D0E94051A0E94540ACD
:1029D0002696EBE00C9422280E94971782E7A82EF7
:1029E00082E0B82E750110E0F70101917F01812F7F
:1029F0000E947E171F5F1E3009F441C00817A1F323
:102A00008091880281FD0E9484170E94BE14C82E06
:102A100000E099249394802F0E947E17182FF501CF
:102A200091915F01891729F1D82ED926F12CEE2436
:102A3000E3948D2D8E21A9F0CC2099F0F9820A83A0
:102A40000E94D41F9C838B839D8291E0812F8E21D5
:102A500009F490E049815A816B817C818D810E94CB
:102A60006D0AF394EE0CF6E0FF12E3CFF501319717
:102A700010830F5F0E3079F60E949414A3CF0813D1
:102A8000BFCF9ECF1F93CF93DF930E946B16EC01B5
:102A90008115924508F05FC0C11580E5D80708F0A0
:102AA000DDC0C03ED10538F5CD3CD10508F0AEC043
:102AB000C83AD10580F4C53AD10508F0A4C0C130A8
:102AC000D10509F443C0CE010497813A9105F0F194
:102AD000D0E0C0E03BC0CE01885A91094B97C0F7C7
:102AE000C85AD0E0CC0FDD1FCC59DE4F0990D881F9
:102AF000C02DD4642BC0C11590E4D907F0F4C115E2
:102B000020E2D20708F0C4C0C83ED105F8F0CE01DB
:102B10009A9581159F41E0F68D2F0E940D17182F71
:102B2000CE0199270E946B16C12FD0E0DC2FCC2755
:102B3000CC27DF71C82BD92B09C0CE0199270E9461
:102B40006B16CC27DF70C82BD92BD06ACE01DF9152
:102B5000CF911F910895C03882E5D807B8F5C036E7
:102B600092E5D90708F05BC0C03422E5D207C8F46B
:102B7000C03282E5D80708F04BC02C2F2695269549
:102B800090E2299F900111248C2F8370C1E0D0E046
:102B900002C0CC0FDD1F8A95E2F7C22BD32BDD6874
:102BA000D5CF2C2F26952695277080E2289F90015F
:102BB00011248C2F8370C1E0D0E002C0CC0FDD1F48
:102BC0008A95E2F7C22BD32BDC68C0CFC03C92E5DC
:102BD000D90760F48C2F8F71C03AD245A8F5C82F61
:102BE000D0E0DC2FCC27C46FD06AB0CFCE01805CA0
:102BF0009245809708F06CCFDC2FCC27CC27DF7173
:102C0000C06FD06AA3CFA497D064A0CFD0659ECF69
:102C1000CF71D0E0DC2FCC27C16FD06A97CF2C2F9B
:102C200026952695277080E2289F900111248C2FED
:102C30008370C1E0D0E002C0CC0FDD1F8A95E2F7BF
:102C4000C22BD32BDA6882CF0E940D17C82FD0E099
:102C5000DC2FCC27CC27DF71D06278CF8C2F8F71FF
:102C60000E940D1755E0D695C7955A95E1F7CF709C
:102C7000D0E0DC2FCC27282F30E084FF05C044E0D3
:102C8000220F331F4A95E1F7C22BD32BD0695ECFB9
:102C90008D2F8F710E940D17182FCE0199270E943A
:102CA0006B16C12FD0E0DC2FCC27CC27DF71C82BCF
:102CB000D92BD2CF462F672F7E3028F4463018F418
:102CC0000E948C08089580E090E008950E945A16B2
:102CD0000E9442150895803E9105C1F1C8F48133E8
:102CE000910509F47DC048F48932910509F46DC05D
:102CF0008A32910509F47BC0089589339105D1F09A
:102D000082389105B9F08533910509F459C00895C9
:102D1000843E9105C1F138F4823E910521F1833E54
:102D2000910531F10895863E9105C1F1873E9105E7
:102D3000E1F108952091D302237009F065C020913C
:102D4000D40223FF14C089E290E008952091D302B9
:102D500020FD43C03091D40230FF09C024FF4EC093
:102D600090E080E008952091D30222FDF7CF0895EE
:102D70002091D30222FD45C03091D40230FD44C0E1
:102D800024FFF5CFEDCF2091D40221FFF0CF809129
:102D9000D30284FDE5CF87EE90E008952091D30221
:102DA00023FFE5CF24FDDCCFF6CF2091D30223FD16
:102DB0002EC03091D40231FFE3CF84EE90E008952D
:102DC0002091D30225FFD3CFBECF2091D30225FD82
:102DD00021C02091D40223FFCACF89E390E0C7CF5E
:102DE0002091D30226FFC3CF8AE290E0089520917C
:102DF000D30226FFBCCF81E390E0089583EE90E0FC
:102E0000089582EE90E0089580EE90E0089586EEB9
:102E100090E0089585E390E008959091D30292FFA9
:102E200010C041E0282F2471243009F040E031E047
:102E3000282F2871283009F030E0431711F02CE0DA
:102E4000822793FF10C041E0282F2471243109F01C
:102E500040E031E0282F2871283109F030E0431795
:102E600011F02CE082273091D40230FF10C051E0E5
:102E7000282F2171213009F050E041E0282F2871DE
:102E8000283009F040E0541711F029E0822731FF83
:102E900010C041E0282F2171213109F040E031E0DC
:102EA000282F2871283109F030E0431711F029E06C
:102EB000822794FD877E089580E0089508950E94FA
:102EC000CC13811102C00E9467140E94D713809313
:102ED00088020E94E1139093D4028093D3020E944F
:102EE0005E170E94DC1390E00E946F0E8091E60155
:102EF0009091E7010E948D0E08950895E82FF0E06B
:102F0000ED51FD4F8081089508950E948B05E5EDF8
:102F1000F2E0A3EEB2E011921D9282E0E33EF807E8
:102F2000D1F78EE00E94AA170E94DB060895CF9386
:102F300085ED92E00E949705282F4EE063EE72E047
:102F400085ED92E00E94BD17C82F0E94A2078C2F2A
:102F5000CF910895CF93C82F90E00E943628809398
:102F60008D0290938E02282FFC018E2F821B8C17CE
:102F700010F0CF9108951192F8CFB0E0A0E0E3EC0B
:102F8000F7E10C940A28082FF92EE62ED72E142FDD
:102F9000C22F10928902D0918A02DD2309F454C015
:102FA0000E94D41F9C0180918B0290918C02F901A8
:102FB000E81BF90B30938C0220938B02EF3FF10555
:102FC00009F0D0F43097A1F03E2F10928A021092AF
:102FD0008F0240918D02E42FF0918E0280E090E00C
:102FE0002E2F241B211758F090938A0280938F0272
:102FF000C11138C0CD2F2AC0EFEFF0E0E5CF20811E
:10300000222321F0321720F010828D2F3196E8CF45
:10301000231B20839D2FFACF8C913881381781F0A4
:10302000308131110DC0508388839C91892730E015
:10303000B901682BCB0121E0892B09F420E091E054
:103040003196219611961EC0211106C080918F02E3
:10305000882301F1C11106C00E94D41F90938C02F5
:1030600080938B0210928F0240918D0220918902F1
:1030700090918A02CE2DDD2DA02FBF2DE42FF0914F
:103080008E025EE18E2F841B811730F2209389021D
:1030900090938A0280918902CDB7DEB7E7E00C9465
:1030A00026280E94AF220E94CD140E94BC220895BF
:1030B0000E94C1220E94D6140E94DB2208950E9421
:1030C0006D1F0E9495220E94B0140E9451180E9408
:1030D00058180E94C314FBCF9093AB018093AA01B0
:1030E0000895282F35EB2303C001112497FF04C056
:1030F00080589109892F089580589F4FFBCF809168
:10310000970280FF0DC06091230170E0660F771F6A
:103110006038710570F56115710569F1862F0895A4
:1031200081FF07C06091230184E0689FB0011124F2
:10313000EFCF6091230182FD0AC08091960288231F
:10314000A9F02091220160912301821710F088E0FC
:10315000ECCF869FC001112433E0880F991F3A9568
:10316000E1F7622F70E00E94E527D2CF68E070E0BF
:10317000D5CF8FE7089581E008958091970280FF71
:103180000CC060911F0170E0759567957595679506
:103190006115710549F1862F089581FF06C0609180
:1031A0001F0170E075956795F3CF60911F0182FD57
:1031B0000BC0909195029923A1F060911E0180911E
:1031C0001F01961738F0682F70E06038710500F322
:1031D0008FE70895899FC001112470E00E94E527C0
:1031E000F4CF61E070E0D7CF81E008958D3C31F4F9
:1031F0000E947F18819580939A0208958E3C19F45D
:103200000E947F18F8CF8F3C31F40E947F1881957F
:10321000809399020895803D19F40E947F18F8CF99
:10322000893D29F40E94BD1880939B0208958A3D30
:1032300021F40E94BD188195F7CF8B3D31F40E9497
:10324000BD18819580939C0208958C3D19F40E94CD
:10325000BD18F8CF9FE2980F983070F4815D990BFC
:1032600021E030E001C0220F8A95EAF780919802B0
:10327000822B8093980208958D3D31F480919702BE
:1032800081608093970208958E3D21F4809197028A
:103290008260F7CF8F3DB9F7809197028460F1CFBC
:1032A000409199028D3C59F480919A0287FF0DC09C
:1032B00010929A0241110BC01092960208C08E3CE7
:1032C00081F480919A0218169CF3442381F0809136
:1032D0009B0290919C02892B09F05AC01092950292
:1032E00008958F3C49F447FFF0CF109299028091E6
:1032F0009A028111ECCFE0CF803D19F41416ACF3A3
:10330000E4CF90919B02893D29F41916F4F61092AE
:103310009B02DBCF8A3D19F497FFD7CFF8CF90916E
:103320009C028B3D29F497FFD0CF10929C02CDCF09
:103330008C3D19F41916CCF3C8CF9FE2980F983042
:1033400090F4815D990B21E030E0B90102C0660F75
:10335000771F8A95E2F7CB01809590919802892397
:1033600080939802B2CF8D3D31F4809197028E7F89
:1033700080939702AACF8E3D21F4809197028D7F92
:10338000F7CF8F3D09F0A1CF809197028B7FF0CFCF
:1033900008950E94D41F2091990230919A02232B04
:1033A00021F0809393029093940220919B0230919C
:1033B0009C02232B21F0809391029093920288E942
:1033C00092E00E94E81D089585E0E8E9F2E0DF015F
:1033D0001D928A95E9F7109296021092950210922A
:1033E00097020895FC01818181110DC082818111B4
:1033F0000AC08381811107C081E09481911101C0CD
:1034000080E08170089581E0FCCFA5E0B0E0EBE0C2
:10341000FAE10C940E2885E0E8E9F2E0DE0111966D
:1034200001900D928A95E1F71092990210929A02FA
:1034300010929B0210929C028A819B81892B89F0B9
:1034400080919302909194020E94FD1F9C018091B3
:1034500096028823C9F1909124019217130608F46B
:1034600040C08C819D81892B91F080919102909137
:1034700092020E94FD1F9C0180919502882309F40D
:103480006AC0909120019217130608F472C0BE0121
:103490006F5F7F4F88E992E00E94051F811105C090
:1034A00088E992E00E94F21981110E94C91985E011
:1034B000FE013196A8E9B2E001900D928A95E1F7FC
:1034C0002596E3E00C942A28409190029AE0499FC7
:1034D000A00111244217530720F68F5F80939602B4
:1034E00002C08F3FD1F71A81112359F00E947F1833
:1034F0009FEF11160CF491E0899F802D1124809389
:1035000099021B81112359F00E947F189FEF111619
:103510000CF491E0899F802D112480939A02809170
:103520009902882309F49DCF10919A02112309F47E
:1035300098CF0E947118882351F080939902812FAF
:103540000E947118882329F080939A028ACF81E023
:10355000F4CF81E0F9CF409121019AE0499FA00189
:1035600011244217530708F092CF8F5F8093950282
:1035700002C08F3FD1F71C81112359F00E94BD1862
:103580009FEF11160CF491E0899F802D11248093F8
:103590009B021D81112359F00E94BD189FEF111647
:1035A0000CF491E0899F802D112480939C028091DE
:1035B0009B02882309F46BCF10919C02112309F41C
:1035C00066CF0E947118882351F080939B02812F4F
:1035D0000E947118882329F080939C0258CF81E0C3
:1035E000F4CF81E0F9CFCF93DF93EC01FB0185812C
:1035F000882309F4D2C09E0130572332310508F0E8
:10360000B2C00E94E1139093D4028093D302FE01D2
:10361000E150F047E232F10520F4E852F64D0C9407
:10362000F9278091D30281608093D30293C0809167
:10363000D40288608093D4028DC08091D3028260CE
:10364000F3CF8091D3028460EFCF8091D302886062
:10365000EBCF8091D4028160EDCF8091D402826063
:10366000E9CF8091D3028061DFCF8091D302806265
:10367000DBCF8091D3028064D7CF0E941F0E809150
:10368000D3028068D1CF8091D3028C60CDCF80915E
:10369000D4028360CFCF8091D3028E7FC5CF80913B
:1036A000D402877FC7CF8091D3028D7FBDCF809119
:1036B000D3028B7FB9CF8091D302877FB5CF809122
:1036C000D4028E7FB7CF8091D4028D7FB3CF80910B
:1036D000D3028F7EA9CF8091D3028F7DA5CF809119
:1036E000D3028F7BA1CF0E941F0E8091D3028F77D0
:1036F0009BCF8091D302837F97CF8091D4028C7F20
:1037000099CF8091D30282FB992790F921E09227EB
:1037100090FB82F990FB83F987CF8091D402982F98
:10372000909591708E7F892B90FB81F983CF90913A
:10373000D302892F8F7B96FF806476CF0E941F0E65
:103740009091D302892F97FB87F980586DCF81E044
:103750000E946A148091D3029091D4020E94E613D1
:103760000E941F0E80E0DF91CF91089580E0F0CF9E
:103770009091D302892F8F7E94FF806155CF9091D5
:10378000D302892F8E7F90FF81604ECF9091D4021B
:10379000892F877F93FF88604DCF81E0E4CFCF935F
:1037A000DF93EB0186319C4711F50E94C3129D8186
:1037B000992399F08A7A91E009F490E090939D0220
:1037C000811109C089E20E949B120E94241380E0AB
:1037D000DF91CF91089585E3F6CF80919D0281110D
:1037E00004C089E20E94A312F0CF85E3FBCF81E001
:1037F000EFCF0F931F93CF93DF93C42FD22FFC01F2
:1038000085818823C9F04093A0020E94D41F909321
:103810009F0280939E0280E28C0F883040F4C77034
:1038200081E001C0880FCA95EAF70E94BC0BDF91C6
:10383000CF911F910F9108951091A002141332C0DF
:1038400080919E0290919F020E94FD1F883C9105ED
:1038500048F5C0E2CD0F1D17B9F080E2810F883026
:1038600040F4177081E001C0880F1A95EAF70E94B2
:10387000C30BC83048F481E09D2F977001C0880FBA
:103880009A95EAF70E94BC0B802F0E94B30BC830B8
:1038900070F6D77081E001C0880FDA95EAF70E94D0
:1038A000C30BC5CF80E28C0F883008F6C77081E06B
:1038B00001C0880FCA95EAF7F2CF0F93FC01CB0144
:1038C000E851FC47E730F10590F5E650F64D0C94D1
:1038D000F92706E221EE41EE6AE17CE70E94F91B3E
:1038E00080E00F91089507E225EE45EE6BE17CE75D
:1038F000F5CF06E221EE40EE68E17CE7EFCF07E28C
:1039000025EE44EE69E17CE7E9CF06E221EE42EEE6
:103910006CE17CE7E3CF07E225EE46EE6DE17CE764
:10392000DDCF08E221E045EE6EE17CE7D7CFFB0179
:103930008581882319F01092A002D3CF81E0D1CFE6
:10394000FA01309709F009950895CF93DF93EC01C0
:103950004A855B856E857F850E94A01C8B810E94B5
:10396000E0128C810E94CC120E94241386E0FE019A
:1039700011928A95E9F7DF91CF910895CF93DF9364
:10398000EC018D8181FD11C082608D838B810E944D
:10399000DA128C810E94C6120E9424134885598530
:1039A0006E857F85CE010E94A01C1092A402109209
:1039B000A3028D8180FD03C0CE010E94A51CDF9172
:1039C000CF910895CF93DF93EC01FB018A81823080
:1039D00039F4828193810E94CA088D8182608D832F
:1039E000DF91CF910895FB01808191810E94CA08E7
:1039F0000895FB01DC0112968C91813029F48081BD
:103A000091810E94E00808958230E9F782819381D4
:103A1000F8CFCF939C01FB01C581CC23F1F08091BD
:103A2000A3029091A4020097D9F082179307C1F0E6
:103A3000992744E0880F991F4A95E1F7FC01E35F5D
:103A4000FE4F408144604083885F9E4FFC0131837C
:103A500020830E94BE1C0E94E8128C2FCF910895F3
:103A6000C0E0FBCF0F931F93CF93DF938C01DB015B
:103A700097558F3F910509F0C0F5F801FF2784E0C5
:103A8000EE0FFF1F8A95E1F7EF01C85FDE4F159635
:103A90008C91E35FFE4F908180FB90F990838823A7
:103AA00051F10E94D41F9093A2028093A1028A81B7
:103AB0008F5F8A830E94C3128B830E94D7129B81DF
:103AC000982B9B830E94EB128C834E815F816E85C5
:103AD0007F85CE010E94A01C8D8181FF02C010E075
:103AE00000E01093A4020093A30281E0DF91CF9144
:103AF0001F910F9108954C855D856E857F85CE0160
:103B00000E94A01C8D8181FFF0CFCE010E94A51CD8
:103B10008091A3029091A4028017910731F710922F
:103B2000A4021092A302E1CF8091A3029091A4027B
:103B3000892BE9F08091A1029091A2020E94FD1FC1
:103B4000893C9105A0F08091A3029091A40299274D
:103B500024E0880F991F2A95E1F7FC01E35FFE4FEF
:103B6000208122FD04C0885F9E4F0E94BE1C0895E4
:103B70009093AA028093A9020895E091A902F0917E
:103B8000AA02309729F00190F081E02D099508955F
:103B900080E008950E94BD1D0895DC01E091A90216
:103BA000F091AA02309799F080912D01882351F06D
:103BB0008091D30287FF06C08C9111968C93119748
:103BC00086E08C930280F381E02DCD010995089564
:103BD000E091A902F091AA02309721F00480F581CA
:103BE000E02D09950895A3E0B0E0E9EFFDE10C9424
:103BF0000F289C018091A7029091A8028217930739
:103C0000A1F03093A8022093A702E091A902F091BD
:103C1000AA02309751F083E089833B832A83068090
:103C2000F781E02DCE01019609952396E2E00C94F0
:103C30002B28A3E0B0E0EFE1FEE10C940F289C01FB
:103C40008091A5029091A60282179307A1F030936C
:103C5000A6022093A502E091A902F091AA02309752
:103C600051F084E089833B832A830680F781E02D2D
:103C7000CE01019609952396E2E00C942B28FC01D5
:103C8000329680912D01882321F08091D3029EE10C
:103C900087FF96E080E0915008F408952191222357
:103CA000D1F38F5FF8CF9C01662301F180912D0144
:103CB0008823F1F08091D30287FF1AC0462F4695E2
:103CC00046954695603F90F4677081E090E002C0B1
:103CD000880F991F6A95E2F7240F311DF90122819F
:103CE00030E02823392381E0232B71F480E008950C
:103CF000F9013296285F3F4F8191861721F0E21734
:103D0000F307D1F7F3CF81E008959C01FC013296CF
:103D10008FEF90E04191461751F08F3F19F4411118
:103D200001C0892F9F5F9630A9F78F3F09F408954E
:103D3000280F311D87FD3A95F901628308959C0192
:103D4000FC013296285F3F4F8191861303C0DF014B
:103D500011971C92E217F307B9F70895E62FE6953D
:103D6000E695E695603F68F4E80FF92FF11D67705E
:103D700021E030E001C0220F6A95EAF78281822BB0
:103D800082830895E62FE695E695E695603F70F408
:103D9000E80FF92FF11D677081E090E001C0880FF6
:103DA0006A95EAF78095928189238283089520910C
:103DB0002D01222339F02091D30227FF03C00E9456
:103DC000AE1E08950E94851E089520912D01222384
:103DD00039F02091D30227FF03C00E94C21E08952C
:103DE0000E949F1E0895FC01329680912D01882328
:103DF00051F08091D30287FF06C08EE1DF011D9252
:103E00008A95E9F7089586E0F9CFDC01FB019C91E2
:103E10008081981322C011968C911197882319F0F4
:103E2000918189131AC012968C911297882319F0E8
:103E30009281891312C014968C911497882319F0DB
:103E4000948189130AC013969C91992321F081E0F3
:103E50002381291303C080E001C081E081700895AF
:103E600008950E94301F0895811106C081E080935B
:103E7000AB020E94311F089582E0F9CF83E0809366
:103E8000AB020E94311F08950E94341F089581E003
:103E90008093AB020E94311F08950E94471F08952E
:103EA000089508950E94511F089508950E94501F7B
:103EB0000895CF930E94EC050E9497170E94551F0A
:103EC000C0E08C2F0E947E17811105C0CF5FCE30DD
:103ED000C1F7CF91089581E0FCCF85B7806885BF99
:103EE00085B7806885BF08951F921FB61F92112461
:103EF0008F939F93AF93BF938091AC02811113C0B6
:103F00008091F1029091F202A091F302B091F4023B
:103F10004196A11DB11D8093F1029093F202A093EE
:103F2000F302B093F402BF91AF919F918F911F90D4
:103F30001FBE1F9018958091F902843031F10E94C4
:103F4000D9091092AC0288E190E020E40FB6F89411
:103F5000A895809360000FBE2093600083B7817F97
:103F6000846083BF83B7816083BF7894889583B76B
:103F70008E7F83BF0FB6F894A8958091600088610A
:103F800080936000109260000FBE08950E941F0E83
:103F90000E94DE09089582E084BD93E095BD9AEF0A
:103FA00097BD80936E0008952FB7F8948091F10229
:103FB0009091F202A091F302B091F4022FBF089504
:103FC000A4E0B0E0E6EEFFE10C940F288FB7F89480
:103FD0002091F1023091F2024091F3025091F402EB
:103FE00029833A834B835C838FBF69817A818B817C
:103FF0009C812496E2E00C942B289C014FB7F89406
:104000008091F1029091F202A091F302B091F4023A
:104010004FBF821B930B089578941F921FB61F9277
:1040200011248F939F93AF93BF938091F10290914E
:10403000F202A091F302B091F4020196A11DB11D0C
:104040008093F1029093F202A093F302B093F402F2
:10405000BF91AF919F918F911F901FBE1F90189598
:10406000F89481E08093E00080E28093D800E9EC4E
:10407000F0E010828FE19EE40197F1F700C00000AC
:104080001DBA109268001CBC10BE1FBA10927A00B4
:1040900010926E0010926F001092710010927200D8
:1040A0001082ECEBF0E0108214B817B81AB81DB803
:1040B00010BA108215B818B81BB81EB811BA0C94F3
:1040C000003F089588E19AE00FB6F894A895809390
:1040D00060000FBE90936000FFCF1092B9008CE09B
:1040E0008093B8000895B0E0A0E0E9E7F0E20C9416
:1040F0000628B82EEB010E94D41F6C01EE24E39435
:10410000F12CC431D10560F025E0E22EF12CCF3F37
:10411000DC0731F0CE0164E170E00E94D1277B0121
:1041200084EAA82E94E8992E1092BC00A092BC00BC
:104130000E94D41F182F092F8091BC0087FF0DC04B
:104140008091B900887F883001F18091B900887F23
:104150008031D9F00FEF1FEF09C0812F902F0E94FF
:10416000FD1FE816F90640F70EEF1FEFCF3FDC0703
:10417000D9F2C6010E94FD1FC817D907A8F6C801C9
:10418000CDB7DEB7EBE00C942228B092BB00909242
:10419000BC000E94D41F182F092F8091BC0087FFFC
:1041A0000AC02091B900287F283111F0203491F6FF
:1041B00010E000E0E4CF812F902F0E94FD1FE81651
:1041C000F90658F7D1CF0F931F93CF93DF93EB01ED
:1041D0008093BB0084E88093BC000E94D41F182FFA
:1041E000092F8091BC0087FF11C02091B900287F62
:1041F00081E090E0283211F490E080E09195819583
:104200009109DF91CF911F910F910895CF3FDC0766
:1042100041F3812F902F0E94FD1FC817D90708F77F
:104220008EEF9FEFEECF0F931F93CF93DF93EC01B1
:1042300084E88093BC000E94D41F182F092F80911E
:10424000BC0087FF08C08091BB0090E0DF91CF9158
:104250001F910F910895CF3FDC0789F3812F902F95
:104260000E94FD1FC817D90750F78EEF9FEFEECFC2
:1042700084E98093BC0008958091CD020895282F91
:10428000CB01BA013091F9023430E1F42F70209360
:10429000E9002FEF3091E800215035FD06C035EDE3
:1042A0003A95F1F700002111F5CF2091E80025FFA4
:1042B00009C050E040E00E9453238091E8008E77CF
:1042C0008093E8000895BC0143E050E083E00E9441
:1042D0003F210895BC0145E050E082E00E943F216B
:1042E0000895CF93DF93D82FC92F80912D0181118D
:1042F00013C048E050E06D2F792F81E00E943F21EC
:1043000080E2ED2FFC2FADEAB2E001900D928A958C
:10431000E1F7DF91CF9108958091D30287FF06C026
:1043200040E283E050E06D2F7C2FE8CF48E081E051
:10433000F9CF8091F802811109C00E94DB240E940C
:1043400038258091E20084608093E2000895109205
:10435000F80208950E94471F08956091F50281E0D8
:10436000611101C080E00E943E1F08959091F90202
:1043700081E0943009F080E06091F5020E94441FD2
:10438000089542E061EC81E00E94572442E061EC34
:1043900082E00E94572442E261EC83E00E945724AD
:1043A0009091F90281E0943009F080E06091F5028B
:1043B0000E94341F08958091FB02893089F148F4EE
:1043C000823009F4A1C0833009F45BC0813041F030
:1043D00008958A3009F488C08B3009F46DC00895BF
:1043E0008091FA02813A09F04BC08091E800877F02
:1043F0008093E8008091FE029091FF02892B61F486
:1044000060E28DEA92E070E00E94A2238091E800D1
:104410008B778093E800089560E090E080E0F3CF30
:104420008091FA02813261F58091FE029091FF0243
:104430008D7F892B29F58091E800877F8093E800A4
:104440008091E80082FF18C09091F3008091F20003
:10445000029731F48091F100813011F0863021F41F
:104460008091F1008093CD028091E8008B7780935A
:10447000E8000E948B2404C08091F9028111E0CFF2
:1044800008958091FA02813AD9F78091FE029091C5
:10449000FF02892BA9F78091E800877F8093E800CD
:1044A0008091E80080FFFCCF80912D018093F10086
:1044B0008091E8008E77DBCF8091FA02813201F79C
:1044C0008091FE029091FF02892BD1F68091E80045
:1044D000877F8093E8000E948B248091FC02809368
:1044E0002D010E941F0E08958091FA02813241F63B
:1044F0008091E800877F8093E8000E948B24809160
:10450000FD028093CE0208958091FA02813A09F06B
:10451000B7CF8091E800877F8093E8008091E80022
:1045200080FFFCCF8091CE02C1CF84B7877F84BF4C
:104530000FB6F894A8958091600088618093600020
:10454000109260000FBE80E890E00FB6F894809360
:104550006100909361000FBE0E944D1F08950E945C
:10456000DB240E943825E2EEF0E0808184608083C5
:1045700078940E94B627089585E291E00E94B81DC4
:1045800008958091F902853031F48091F9028530E7
:1045900019F00E94C61F08950E949B1F8091F70288
:1045A000882399F30E94591F882379F30E943D23A1
:1045B0000E941F0EEACF08959A0140910003509186
:1045C00001030E94E4220895AC01CB01D901252FFB
:1045D000332723303105D1F070F42130310509F44F
:1045E00047C02230310569F484E590E02AE238E0E2
:1045F0002D933C93089521323105E9F022323105A3
:1046000039F190E080E030E020E0F2CFCA01992754
:10461000413059F08230910559F0E6E2F8E0892BFB
:1046200081F7849190E09F01E3CFECEFF7E0F9CFC1
:10463000E4EEF7E0F6CF8330910518F7880F991F65
:10464000FC01ED55FE4F2081318189E090E0D0CF13
:1046500083309105B0F6FC01EE0FFF1FE356FE4FCD
:104660002081318186569E4FFC01808190E0C0CF31
:1046700082E190E02EE738E0BBCF80E189BD82E1A6
:1046800089BD09B400FEFDCF8091D8008F7D809355
:10469000D8008091E00082608093E0008091E0008B
:1046A00081FDFCCF0895AF92BF92CF92DF92FF922F
:1046B0000F931F93CF93DF936C01EB018A010E944C
:1046C000AA24F82E811123C00115110539F0F80133
:1046D00080819181C81BD90BC80ED91EB12CA12C89
:1046E0002097A9F08091E80085FD22C08091E80024
:1046F0008E778093E80001151105A1F0F801808103
:104700009181A80EB91EB182A08285E0F82E8F2D6E
:10471000DF91CF911F910F91FF90DF90CF90BF90CD
:10472000AF9008950E94AA248823D1F2F82EEFCFEB
:10473000F60181916F018093F1002197FFEFAF1A8D
:10474000BF0ACECFFC01CB012091000330910103C1
:104750002617370790F0009729F42091E8002E776C
:104760002093E80040E0009751F4411108C0809187
:10477000E80082FF31C080E00895C901F3CF2091A5
:10478000F9022223A9F12530A9F12091E80023FDA7
:104790002DC02091E80022FDEACF2091E80020FF03
:1047A000E2CF3091F3002091F200009719F0283009
:1047B000310558F041E02830310509F040E0209102
:1047C000E8002E772093E800CECF41914093F1008E
:1047D00001972F5F3F4FE9CF8091F902882341F085
:1047E000853041F08091E80083FFC1CF81E00895DA
:1047F00082E0089583E00895FC01CB01209100033D
:10480000309101032617370790F0009729F4209183
:10481000E8002E772093E80040E0009751F4411122
:1048200008C08091E80082FF32C080E00895C9018D
:10483000F3CF2091F9022223B1F12530B1F120917B
:10484000E80023FD2EC02091E80022FDEACF209150
:10485000E80020FFE2CF3091F3002091F2000097B2
:1048600019F02830310558F041E02830310509F0C1
:1048700040E02091E8002E772093E800CECF4491CD
:104880004093F100319601972F5F3F4FE8CF809121
:10489000F902882341F0853041F08091E80083FFE0
:1048A000C0CF81E0089582E0089583E00895982FB5
:1048B000973028F08F708093E90081E008959093FD
:1048C000E900242F762F50E0981731F07091EC001A
:1048D0002091ED005091F00021FD02C09F5FE8CFD4
:1048E0003091EB003E7F3093EB003091ED003D7F47
:1048F0003093ED003091EB0031603093EB0070931A
:10490000EC002093ED005093F0002091EE0027FD85
:10491000E5CF80E008958091FA0287FF13C080916F
:10492000E80082FF06C08091E8008B778093E80062
:1049300004C08091F9028111F2CF08958091F902AB
:104940008823D9F38091E80080FFF8CF8091E800B8
:104950008E77ECCF2091E4003091E50095E6A90137
:104960002091EC00822F817020FF06C08091E8002A
:1049700080FF06C080E008952091E80022FD1AC063
:104980008091F902882389F0853089F08091EB00CD
:1049900085FD0FC02091E4003091E50042175307D8
:1049A000F9F29150E1F684E0089582E0089583E001
:1049B000089581E008950E944A250E945225E0EE64
:1049C000F0E0808181608083E8EDF0E080818F7786
:1049D000808319BCA7EDB0E08C918E7F8C93808191
:1049E0008F7E80831092F80208950F931F93CF93C8
:1049F000DF930E944A250E945225C8EDD0E08881AD
:104A00008F77888388818068888388818F7D888379
:104A100019BC1092F9021092F5021092F70210924E
:104A2000F60200EE10E0F80180818B7F80838881A0
:104A30008160888342E060E080E00E945724E1EEDC
:104A4000F0E080818E7F8083E2EEF0E08081816003
:104A50008083808188608083F80180818E7F80835D
:104A6000888180618883DF91CF911F910F91089594
:104A7000E8EDF0E080818F7E8083E7EDF0E08081DB
:104A80008160808384E082BF81E08093F8020E948D
:104A9000F5240895E8EDF0E080818E7F8083109208
:104AA000E20008951092DA001092E10008951F923A
:104AB0000F920FB60F9211242F933F934F935F9352
:104AC0006F937F938F939F93AF93BF93EF93FF93D6
:104AD0008091E10082FF0BC08091E20082FF07C05D
:104AE0008091E1008B7F8093E1000E94B527809147
:104AF000DA0080FF19C08091D80080FF15C0809136
:104B0000DA008E7F8093DA008091D90080FF94C014
:104B100080E189BD82E189BD09B400FEFDCF81E05D
:104B20008093F9020E9499218091E10080FF19C0D1
:104B30008091E20080FF15C08091E2008E7F80931B
:104B4000E2008091E20080618093E2008091D800D1
:104B500080628093D80019BC85E08093F9020E949E
:104B6000AD218091E10084FF29C08091E20084FFA3
:104B700025C080E189BD82E189BD09B400FEFDCF79
:104B80008091D8008F7D8093D8008091E1008F7E46
:104B90008093E1008091E2008F7E8093E20080911B
:104BA000E20081608093E2008091F502882309F49D
:104BB00049C084E08093F9020E94B6218091E1000F
:104BC00083FF29C08091E20083FF25C08091E1002E
:104BD000877F8093E10082E08093F9021092F502D2
:104BE0008091E1008E7F8093E1008091E2008E7FD2
:104BF0008093E2008091E20080618093E20042E0D5
:104C000060E080E00E9457248091F00088608093EB
:104C1000F0000E94AA21FF91EF91BF91AF919F9167
:104C20008F917F916F915F914F913F912F910F9055
:104C30000FBE0F901F90189519BC1092F9020E9498
:104C4000A72172CF8091E30087FD02C081E0B2CF3F
:104C500083E0B0CF1F920F920FB60F9211242F93C3
:104C60003F934F935F936F937F938F939F93AF93F4
:104C7000BF93CF93DF93EF93FF93D091E900DF7061
:104C80008091EC00C82FC17080FDC0E81092E9004F
:104C90008091F000877F8093F00078940E946E26C8
:104CA0001092E9008091F00088608093F000CD2B95
:104CB000CF70C093E900FF91EF91DF91CF91BF9149
:104CC000AF919F918F917F916F915F914F913F91A4
:104CD0002F910F900FBE0F901F901895AAE2B0E091
:104CE000E4E7F6E20C940E288AEF92E0FC010196CC
:104CF0002091F100208323E082309207B9F70E94CF
:104D0000DB218091E80083FF1EC18091FA0290911F
:104D1000FB029A3008F017C1E92FF0E0EF5FF54D84
:104D20000C94F927803899F0823809F00CC18091F1
:104D3000FE028F70873008F006C18093E9008091F1
:104D4000EB0085FB882780F91092E90006C080916E
:104D5000F6029091F702911182609091E800977F9E
:104D60009093E8008093F1001092F1008091E800A8
:104D70008E77E5C0882309F4D3C0823009F0E3C000
:104D80008091FC028111D6C08091FE028F702FEFBE
:104D9000280F263008F0D7C08093E9002091EB005F
:104DA00020FFC8C0933031F48091EB008062809383
:104DB000EB00C0C09091EB0090619093EB0021E07C
:104DC00030E001C0220F8A95EAF72093EA001092A2
:104DD000EA008091EB008860EACF8111B4C01091A5
:104DE000FC021F778091E3008078812B8093E300A1
:104DF0008091E800877F8093E8000E948B24809157
:104E0000E80080FFFCCF8091E30080688093E3009E
:104E100082E0111183E08093F90295C080588230BE
:104E200008F091C08091FC029091FD028C3D23E03E
:104E30009207A1F583E08A838AE289834FB7F894C9
:104E4000DE01139620E03EE051E2E32FF0E05093C4
:104E50005700E49120FF03C0E295EF703F5FEF70D1
:104E60008E2F90E0EA30C0F0C7968D939D932F5F10
:104E7000243159F74FBF8091E800877F8093E80085
:104E80006AE270E0CE0101960E94A2238091E800C0
:104E90008B778093E80057C0C096E7CF6091FE0201
:104EA0007091FF02AE014F5F5F4F0E94DC22BC0198
:104EB000892B09F448C08091E800877F8093E8003F
:104EC00089819A810E94FC23E1CF8038E1F58091AD
:104ED000E800877F8093E8008091F5028093F100DD
:104EE00045CF811130C09091FC02923060F58091E5
:104EF000E800877F8093E8009093F5020E948B245E
:104F00008091F502882311F084E005C08091E300D0
:104F100087FDFACF81E08093F9020E94C12113C07E
:104F20008091FC02813079F481E0933009F080E0D7
:104F30008093F7021092E9008091E800877F8093C8
:104F4000E8000E948B248091E80083FF0AC08091D2
:104F5000E800877F8093E8008091EB008062809377
:104F6000EB00AA96E3E00C942A280895CF93809151
:104F7000F9028823A1F0C091E900CF709091EC0074
:104F8000892F817090FD80E8C82B1092E9008091F4
:104F9000E80083FD0E946E26CF70C093E900CF9198
:104FA0000895AA1BBB1B51E107C0AA1FBB1FA61770
:104FB000B70710F0A61BB70B881F991F5A95A9F7C2
:104FC00080959095BC01CD01089597FB072E16F4AE
:104FD000009407D077FD09D00E94D12707FC05D0A7
:104FE0003EF4909581959F4F0895709561957F4F00
:104FF0000895EE0FFF1F0590F491E02D09942F9274
:105000003F924F925F926F927F928F929F92AF9258
:10501000BF92CF92DF92EF92FF920F931F93CF93A5
:10502000DF93CDB7DEB7CA1BDB0B0FB6F894DEBF3C
:105030000FBECDBF09942A88398848885F846E8462
:105040007D848C849B84AA84B984C884DF80EE80AC
:10505000FD800C811B81AA81B981CE0FD11D0FB6B5
:10506000F894DEBF0FBECDBFED0108950F931F93DF
:10507000CF93DF939C01029710F422E030E0E0919F
:105080000403F091050390E080E0B0E0A0E03097E9
:1050900091F4009709F445C0821B930B843091056D
:1050A000B8F58A819B816115710569F1FB019383D4
:1050B0008283FE0111C04081518102811381421718
:1050C0005307F0F04217530799F4109761F01296C6
:1050D0000C93129713961C933296CF01DF91CF91C8
:1050E0001F910F9108950093040310930503F4CFCB
:1050F000009719F04817590718F4CA01BD01EF01CC
:10510000DF01F801C4CF9093050380930403D1CF4E
:10511000FE01E80FF91F2193319302979983888349
:10512000DCCF8091020390910303892B41F480919D
:1051300002019091030190930303809302038091F5
:10514000000190910101009741F48DB79EB7409105
:10515000040150910501841B950B4091020350916D
:1051600003034817590708F0B8CF841B950B821723
:10517000930708F4B2CFB9016E5F7F4F8617970788
:1051800008F4ABCF640F751F7093030360930203A1
:10519000FA0121933193A1CFCF93DF939C01009724
:1051A000E9F0FC01329713821282C0910403D0917E
:1051B0000503DE0190E080E02097A1F480819181D9
:1051C000280F391F809102039091030382179307E0
:1051D00009F067C0F0930303E0930203DF91CF91DE
:1051E0000895DA01AE17BF0708F041C012964D913D
:1051F0005C911397CD014115510599F7DC01139688
:10520000FC93EE9312974D915D91A40FB51FEA1791
:10521000FB0781F4208131812E5F3F4F240F351F22
:10522000DC0111963C932E932281338113963C939B
:105230002E931297B0E0A0E08A819B810097B1F590
:10524000FE0181919191E80FF91F809102039091E5
:1052500003038E179F0711F6109759F51092050357
:1052600010920403D0930303C0930203B7CFB38318
:10527000A28340815181240F351FA217B30771F417
:105280004E5F5F4F2D913C911197420F531F5183F9
:10529000408312962D913C9133832283009709F02D
:1052A000ADCFF0930503E093040398CFDE01EC014A
:1052B000C3CF13961C921E921297D4CFFB01DC0130
:1052C00004C08D910190801921F441505040C8F7DD
:1052D000881B990B0895F999FECF92BD81BDF89A6C
:1052E000992780B50895A6E1B0E044E050E00C9421
:1052F000B529A8E1B0E042E050E00C94B529DC010A
:10530000A40FB51F4150504048F0CB01840F951FAA
:105310002E910E94902941505040D0F70895262F99
:10532000F999FECF92BD81BDF89A019700B402169B
:1053300039F01FBA20BD0FB6F894FA9AF99A0FBE49
:1053400008950396272F0E9490290E948F29252FC8
:105350000E949029242F0C9490290196272F0E94B7
:1053600090290C948F29DC01CB01FC01F999FECF27
:1053700006C0F2BDE1BDF89A319600B40D924150DD
:105380005040B8F70895F894FFCF3D0846084B0801
:105390004408490850084E08080C080C5A0C5A0CCE
:1053A000BE0CDA0C370C370CDF0C520D610D610DA1
:1053B0004B1BBF1B531B1D1B211B571B251B5B1BA3
:1053C000671B311BB81B351B6B1B391B6F1B971BD6
:1053D0003D1B731B9E1B431B791B811B291B5F1BE2
:1053E0002D1B631B471B7D1B8D1BA71BB61B171B90
:1053F0004F1BC61B791C7F1C691C731C851C8B1CD6
:10540000911C9226BA26A327BA26A327ED260E279B
:06541000A32765277127A8
:105416000000060320002000000000000000E21C3F
:10542600F31CF91C00001801340034024E023C073C
:1054360014283C07143C2171216A21632101E200F2
:10544600E900EA00B500B600B700CD008301CC0044
:105456008A019201940121022302240225022602D6
:1054660027022A02B300B4006F0070009F01CB012F
:105476009F02A002E200E900EA00B500B600B7000C
:10548600CD008301CC008A019201940121022302FE
:1054960024022502260227022A02B300B4006F0066
:1054A60070009F01CB019F02A00244476D4409FD95
:0A54B6000890083C0855086E080035
:00000001FF
